{"contracts/CoderNFT.sol":{"CoderNFT":{"abi":[{"inputs":[{"internalType":"string","name":"name","type":"string"},{"internalType":"string","name":"symbol","type":"string"}],"stateMutability":"nonpayable","type":"constructor"},{"inputs":[],"name":"ApprovalCallerNotOwnerNorApproved","type":"error"},{"inputs":[],"name":"ApprovalQueryForNonexistentToken","type":"error"},{"inputs":[],"name":"BalanceQueryForZeroAddress","type":"error"},{"inputs":[],"name":"MintERC2309QuantityExceedsLimit","type":"error"},{"inputs":[],"name":"MintToZeroAddress","type":"error"},{"inputs":[],"name":"MintZeroQuantity","type":"error"},{"inputs":[{"internalType":"address","name":"owner","type":"address"}],"name":"OwnableInvalidOwner","type":"error"},{"inputs":[{"internalType":"address","name":"account","type":"address"}],"name":"OwnableUnauthorizedAccount","type":"error"},{"inputs":[],"name":"OwnerQueryForNonexistentToken","type":"error"},{"inputs":[],"name":"OwnershipNotInitializedForExtraData","type":"error"},{"inputs":[],"name":"TransferCallerNotOwnerNorApproved","type":"error"},{"inputs":[],"name":"TransferFromIncorrectOwner","type":"error"},{"inputs":[],"name":"TransferToNonERC721ReceiverImplementer","type":"error"},{"inputs":[],"name":"TransferToZeroAddress","type":"error"},{"inputs":[],"name":"URIQueryForNonexistentToken","type":"error"},{"anonymous":false,"inputs":[{"indexed":true,"internalType":"address","name":"owner","type":"address"},{"indexed":true,"internalType":"address","name":"approved","type":"address"},{"indexed":true,"internalType":"uint256","name":"tokenId","type":"uint256"}],"name":"Approval","type":"event"},{"anonymous":false,"inputs":[{"indexed":true,"internalType":"address","name":"owner","type":"address"},{"indexed":true,"internalType":"address","name":"operator","type":"address"},{"indexed":false,"internalType":"bool","name":"approved","type":"bool"}],"name":"ApprovalForAll","type":"event"},{"anonymous":false,"inputs":[{"indexed":true,"internalType":"uint256","name":"fromTokenId","type":"uint256"},{"indexed":false,"internalType":"uint256","name":"toTokenId","type":"uint256"},{"indexed":true,"internalType":"address","name":"from","type":"address"},{"indexed":true,"internalType":"address","name":"to","type":"address"}],"name":"ConsecutiveTransfer","type":"event"},{"anonymous":false,"inputs":[{"indexed":true,"internalType":"address","name":"previousOwner","type":"address"},{"indexed":true,"internalType":"address","name":"newOwner","type":"address"}],"name":"OwnershipTransferred","type":"event"},{"anonymous":false,"inputs":[{"indexed":true,"internalType":"address","name":"from","type":"address"},{"indexed":true,"internalType":"address","name":"to","type":"address"},{"indexed":true,"internalType":"uint256","name":"tokenId","type":"uint256"}],"name":"Transfer","type":"event"},{"inputs":[{"internalType":"address","name":"to","type":"address"},{"internalType":"uint256","name":"tokenId","type":"uint256"}],"name":"approve","outputs":[],"stateMutability":"payable","type":"function"},{"inputs":[{"internalType":"address","name":"owner","type":"address"}],"name":"balanceOf","outputs":[{"internalType":"uint256","name":"","type":"uint256"}],"stateMutability":"view","type":"function"},{"inputs":[{"internalType":"uint256","name":"tokenId","type":"uint256"}],"name":"getApproved","outputs":[{"internalType":"address","name":"","type":"address"}],"stateMutability":"view","type":"function"},{"inputs":[{"internalType":"address","name":"owner","type":"address"},{"internalType":"address","name":"operator","type":"address"}],"name":"isApprovedForAll","outputs":[{"internalType":"bool","name":"","type":"bool"}],"stateMutability":"view","type":"function"},{"inputs":[{"internalType":"address","name":"to","type":"address"},{"internalType":"uint256","name":"quantity","type":"uint256"}],"name":"mint","outputs":[],"stateMutability":"nonpayable","type":"function"},{"inputs":[],"name":"name","outputs":[{"internalType":"string","name":"","type":"string"}],"stateMutability":"view","type":"function"},{"inputs":[],"name":"owner","outputs":[{"internalType":"address","name":"","type":"address"}],"stateMutability":"view","type":"function"},{"inputs":[{"internalType":"uint256","name":"tokenId","type":"uint256"}],"name":"ownerOf","outputs":[{"internalType":"address","name":"","type":"address"}],"stateMutability":"view","type":"function"},{"inputs":[],"name":"renounceOwnership","outputs":[],"stateMutability":"nonpayable","type":"function"},{"inputs":[{"internalType":"address","name":"from","type":"address"},{"internalType":"address","name":"to","type":"address"},{"internalType":"uint256","name":"tokenId","type":"uint256"}],"name":"safeTransferFrom","outputs":[],"stateMutability":"payable","type":"function"},{"inputs":[{"internalType":"address","name":"from","type":"address"},{"internalType":"address","name":"to","type":"address"},{"internalType":"uint256","name":"tokenId","type":"uint256"},{"internalType":"bytes","name":"_data","type":"bytes"}],"name":"safeTransferFrom","outputs":[],"stateMutability":"payable","type":"function"},{"inputs":[{"internalType":"address","name":"operator","type":"address"},{"internalType":"bool","name":"approved","type":"bool"}],"name":"setApprovalForAll","outputs":[],"stateMutability":"nonpayable","type":"function"},{"inputs":[{"internalType":"string","name":"uri","type":"string"},{"internalType":"uint256","name":"tokenId","type":"uint256"}],"name":"setURI","outputs":[],"stateMutability":"nonpayable","type":"function"},{"inputs":[{"internalType":"bytes4","name":"interfaceId","type":"bytes4"}],"name":"supportsInterface","outputs":[{"internalType":"bool","name":"","type":"bool"}],"stateMutability":"view","type":"function"},{"inputs":[],"name":"symbol","outputs":[{"internalType":"string","name":"","type":"string"}],"stateMutability":"view","type":"function"},{"inputs":[{"internalType":"uint256","name":"tokenId","type":"uint256"}],"name":"tokenURI","outputs":[{"internalType":"string","name":"","type":"string"}],"stateMutability":"view","type":"function"},{"inputs":[],"name":"totalSupply","outputs":[{"internalType":"uint256","name":"","type":"uint256"}],"stateMutability":"view","type":"function"},{"inputs":[{"internalType":"address","name":"from","type":"address"},{"internalType":"address","name":"to","type":"address"},{"internalType":"uint256","name":"tokenId","type":"uint256"}],"name":"transferFrom","outputs":[],"stateMutability":"payable","type":"function"},{"inputs":[{"internalType":"address","name":"newOwner","type":"address"}],"name":"transferOwnership","outputs":[],"stateMutability":"nonpayable","type":"function"},{"inputs":[{"internalType":"string","name":"prmpt","type":"string"},{"internalType":"uint256","name":"tokenId","type":"uint256"}],"name":"updatePrompt","outputs":[],"stateMutability":"nonpayable","type":"function"}],"evm":{"bytecode":{"linkReferences":{},"object":"608060405234801562000010575f80fd5b50604051620029e2380380620029e283398181016040528101906200003691906200034d565b33828281600290816200004a919062000607565b5080600390816200005c919062000607565b506200006d6200010160201b60201c565b5f8190555050505f73ffffffffffffffffffffffffffffffffffffffff168173ffffffffffffffffffffffffffffffffffffffff1603620000e7575f6040517f1e4fbdf7000000000000000000000000000000000000000000000000000000008152600401620000de91906200072e565b60405180910390fd5b620000f8816200010560201b60201c565b50505062000749565b5f90565b5f60085f9054906101000a900473ffffffffffffffffffffffffffffffffffffffff1690508160085f6101000a81548173ffffffffffffffffffffffffffffffffffffffff021916908373ffffffffffffffffffffffffffffffffffffffff1602179055508173ffffffffffffffffffffffffffffffffffffffff168173ffffffffffffffffffffffffffffffffffffffff167f8be0079c531659141344cd1fd0a4f28419497f9722a3daafe3b4186f6b6457e060405160405180910390a35050565b5f604051905090565b5f80fd5b5f80fd5b5f80fd5b5f80fd5b5f601f19601f8301169050919050565b7f4e487b71000000000000000000000000000000000000000000000000000000005f52604160045260245ffd5b6200022982620001e1565b810181811067ffffffffffffffff821117156200024b576200024a620001f1565b5b80604052505050565b5f6200025f620001c8565b90506200026d82826200021e565b919050565b5f67ffffffffffffffff8211156200028f576200028e620001f1565b5b6200029a82620001e1565b9050602081019050919050565b5f5b83811015620002c6578082015181840152602081019050620002a9565b5f8484015250505050565b5f620002e7620002e18462000272565b62000254565b905082815260208101848484011115620003065762000305620001dd565b5b62000313848285620002a7565b509392505050565b5f82601f830112620003325762000331620001d9565b5b815162000344848260208601620002d1565b91505092915050565b5f8060408385031215620003665762000365620001d1565b5b5f83015167ffffffffffffffff811115620003865762000385620001d5565b5b62000394858286016200031b565b925050602083015167ffffffffffffffff811115620003b857620003b7620001d5565b5b620003c6858286016200031b565b9150509250929050565b5f81519050919050565b7f4e487b71000000000000000000000000000000000000000000000000000000005f52602260045260245ffd5b5f60028204905060018216806200041f57607f821691505b602082108103620004355762000434620003da565b5b50919050565b5f819050815f5260205f209050919050565b5f6020601f8301049050919050565b5f82821b905092915050565b5f60088302620004997fffffffffffffffffffffffffffffffffffffffffffffffffffffffffffffffff826200045c565b620004a586836200045c565b95508019841693508086168417925050509392505050565b5f819050919050565b5f819050919050565b5f620004ef620004e9620004e384620004bd565b620004c6565b620004bd565b9050919050565b5f819050919050565b6200050a83620004cf565b620005226200051982620004f6565b84845462000468565b825550505050565b5f90565b620005386200052a565b62000545818484620004ff565b505050565b5b818110156200056c57620005605f826200052e565b6001810190506200054b565b5050565b601f821115620005bb5762000585816200043b565b62000590846200044d565b81016020851015620005a0578190505b620005b8620005af856200044d565b8301826200054a565b50505b505050565b5f82821c905092915050565b5f620005dd5f1984600802620005c0565b1980831691505092915050565b5f620005f78383620005cc565b9150826002028217905092915050565b6200061282620003d0565b67ffffffffffffffff8111156200062e576200062d620001f1565b5b6200063a825462000407565b6200064782828562000570565b5f60209050601f8311600181146200067d575f841562000668578287015190505b620006748582620005ea565b865550620006e3565b601f1984166200068d866200043b565b5f5b82811015620006b6578489015182556001820191506020850194506020810190506200068f565b86831015620006d65784890151620006d2601f891682620005cc565b8355505b6001600288020188555050505b505050505050565b5f73ffffffffffffffffffffffffffffffffffffffff82169050919050565b5f6200071682620006eb565b9050919050565b62000728816200070a565b82525050565b5f602082019050620007435f8301846200071d565b92915050565b61228b80620007575f395ff3fe60806040526004361061011e575f3560e01c806370a082311161009f578063b88d4fde11610063578063b88d4fde1461039c578063be9eb325146103b8578063c87b56dd146103e0578063e985e9c51461041c578063f2fde38b146104585761011e565b806370a08231146102ce578063715018a61461030a5780638da5cb5b1461032057806395d89b411461034a578063a22cb465146103745761011e565b806323b872dd116100e657806323b872dd1461020a57806340c10f191461022657806342842e0e1461024e5780636352211e1461026a57806367db3b8f146102a65761011e565b806301ffc9a71461012257806306fdde031461015e578063081812fc14610188578063095ea7b3146101c457806318160ddd146101e0575b5f80fd5b34801561012d575f80fd5b506101486004803603810190610143919061184d565b610480565b6040516101559190611892565b60405180910390f35b348015610169575f80fd5b50610172610511565b60405161017f9190611935565b60405180910390f35b348015610193575f80fd5b506101ae60048036038101906101a99190611988565b6105a1565b6040516101bb91906119f2565b60405180910390f35b6101de60048036038101906101d99190611a35565b61061b565b005b3480156101eb575f80fd5b506101f461075a565b6040516102019190611a82565b60405180910390f35b610224600480360381019061021f9190611a9b565b61076f565b005b348015610231575f80fd5b5061024c60048036038101906102479190611a35565b610a7d565b005b61026860048036038101906102639190611a9b565b610b01565b005b348015610275575f80fd5b50610290600480360381019061028b9190611988565b610b20565b60405161029d91906119f2565b60405180910390f35b3480156102b1575f80fd5b506102cc60048036038101906102c79190611c17565b610b31565b005b3480156102d9575f80fd5b506102f460048036038101906102ef9190611c71565b610b93565b6040516103019190611a82565b60405180910390f35b348015610315575f80fd5b5061031e610c48565b005b34801561032b575f80fd5b50610334610c5b565b60405161034191906119f2565b60405180910390f35b348015610355575f80fd5b5061035e610c83565b60405161036b9190611935565b60405180910390f35b34801561037f575f80fd5b5061039a60048036038101906103959190611cc6565b610d13565b005b6103b660048036038101906103b19190611da2565b610e19565b005b3480156103c3575f80fd5b506103de60048036038101906103d99190611c17565b610e8b565b005b3480156103eb575f80fd5b5061040660048036038101906104019190611988565b610eed565b6040516104139190611935565b60405180910390f35b348015610427575f80fd5b50610442600480360381019061043d9190611e22565b610fcd565b60405161044f9190611892565b60405180910390f35b348015610463575f80fd5b5061047e60048036038101906104799190611c71565b61105b565b005b5f6301ffc9a760e01b827bffffffffffffffffffffffffffffffffffffffffffffffffffffffff191614806104da57506380ac58cd60e01b827bffffffffffffffffffffffffffffffffffffffffffffffffffffffff1916145b8061050a5750635b5e139f60e01b827bffffffffffffffffffffffffffffffffffffffffffffffffffffffff1916145b9050919050565b60606002805461052090611e8d565b80601f016020809104026020016040519081016040528092919081815260200182805461054c90611e8d565b80156105975780601f1061056e57610100808354040283529160200191610597565b820191905f5260205f20905b81548152906001019060200180831161057a57829003601f168201915b5050505050905090565b5f6105ab826110df565b6105e1576040517fcf4700e400000000000000000000000000000000000000000000000000000000815260040160405180910390fd5b60065f8381526020019081526020015f205f015f9054906101000a900473ffffffffffffffffffffffffffffffffffffffff169050919050565b5f61062582610b20565b90508073ffffffffffffffffffffffffffffffffffffffff16610646611139565b73ffffffffffffffffffffffffffffffffffffffff16146106a9576106728161066d611139565b610fcd565b6106a8576040517fcfb3b94200000000000000000000000000000000000000000000000000000000815260040160405180910390fd5b5b8260065f8481526020019081526020015f205f015f6101000a81548173ffffffffffffffffffffffffffffffffffffffff021916908373ffffffffffffffffffffffffffffffffffffffff160217905550818373ffffffffffffffffffffffffffffffffffffffff168273ffffffffffffffffffffffffffffffffffffffff167f8c5be1e5ebec7d5bd14f71427d1e84f3dd0314c0f7b2291e5b200ac8c7c3b92560405160405180910390a4505050565b5f610763611140565b6001545f540303905090565b5f61077982611144565b90508373ffffffffffffffffffffffffffffffffffffffff168173ffffffffffffffffffffffffffffffffffffffff16146107e0576040517fa114810000000000000000000000000000000000000000000000000000000000815260040160405180910390fd5b5f806107eb84611207565b9150915061080181876107fc611139565b61122a565b61084d5761081686610811611139565b610fcd565b61084c576040517f59c896be00000000000000000000000000000000000000000000000000000000815260040160405180910390fd5b5b5f73ffffffffffffffffffffffffffffffffffffffff168573ffffffffffffffffffffffffffffffffffffffff16036108b2576040517fea553b3400000000000000000000000000000000000000000000000000000000815260040160405180910390fd5b6108bf868686600161126d565b80156108c9575f82555b60055f8773ffffffffffffffffffffffffffffffffffffffff1673ffffffffffffffffffffffffffffffffffffffff1681526020019081526020015f205f8154600190039190508190555060055f8673ffffffffffffffffffffffffffffffffffffffff1673ffffffffffffffffffffffffffffffffffffffff1681526020019081526020015f205f8154600101919050819055506109918561096d888887611273565b7c02000000000000000000000000000000000000000000000000000000001761129a565b60045f8681526020019081526020015f20819055505f7c0200000000000000000000000000000000000000000000000000000000841603610a0d575f6001850190505f60045f8381526020019081526020015f205403610a0b575f548114610a0a578360045f8381526020019081526020015f20819055505b5b505b838573ffffffffffffffffffffffffffffffffffffffff168773ffffffffffffffffffffffffffffffffffffffff167fddf252ad1be2c89b69c2b068fc378daa952ba7f163c4a11628f55a4df523b3ef60405160405180910390a4610a7586868660016112c4565b505050505050565b610a8782826112ca565b610afd6040518060400160405280601481526020017f7375636365737366756c6c79206d696e74656420000000000000000000000000815250826040518060400160405280600981526020017f206e66747320746f20000000000000000000000000000000000000000000000081525085611473565b5050565b610b1b83838360405180602001604052805f815250610e19565b505050565b5f610b2a82611144565b9050919050565b610b3a816110df565b610b70576040517fa14c4b5000000000000000000000000000000000000000000000000000000000815260040160405180910390fd5b8160095f8381526020019081526020015f209081610b8e919061205a565b505050565b5f8073ffffffffffffffffffffffffffffffffffffffff168273ffffffffffffffffffffffffffffffffffffffff1603610bf9576040517f8f4eb60400000000000000000000000000000000000000000000000000000000815260040160405180910390fd5b67ffffffffffffffff60055f8473ffffffffffffffffffffffffffffffffffffffff1673ffffffffffffffffffffffffffffffffffffffff1681526020019081526020015f2054169050919050565b610c50611515565b610c595f61159c565b565b5f60085f9054906101000a900473ffffffffffffffffffffffffffffffffffffffff16905090565b606060038054610c9290611e8d565b80601f0160208091040260200160405190810160405280929190818152602001828054610cbe90611e8d565b8015610d095780601f10610ce057610100808354040283529160200191610d09565b820191905f5260205f20905b815481529060010190602001808311610cec57829003601f168201915b5050505050905090565b8060075f610d1f611139565b73ffffffffffffffffffffffffffffffffffffffff1673ffffffffffffffffffffffffffffffffffffffff1681526020019081526020015f205f8473ffffffffffffffffffffffffffffffffffffffff1673ffffffffffffffffffffffffffffffffffffffff1681526020019081526020015f205f6101000a81548160ff0219169083151502179055508173ffffffffffffffffffffffffffffffffffffffff16610dc8611139565b73ffffffffffffffffffffffffffffffffffffffff167f17307eab39ab6107e8899845ad3d59bd9653f200f220920489ca2b5937696c3183604051610e0d9190611892565b60405180910390a35050565b610e2484848461076f565b5f8373ffffffffffffffffffffffffffffffffffffffff163b14610e8557610e4e8484848461165f565b610e84576040517fd1a57ed600000000000000000000000000000000000000000000000000000000815260040160405180910390fd5b5b50505050565b610e94816110df565b610eca576040517fa14c4b5000000000000000000000000000000000000000000000000000000000815260040160405180910390fd5b81600a5f8381526020019081526020015f209081610ee8919061205a565b505050565b6060610ef8826110df565b610f2e576040517fa14c4b5000000000000000000000000000000000000000000000000000000000815260040160405180910390fd5b60095f8381526020019081526020015f208054610f4a90611e8d565b80601f0160208091040260200160405190810160405280929190818152602001828054610f7690611e8d565b8015610fc15780601f10610f9857610100808354040283529160200191610fc1565b820191905f5260205f20905b815481529060010190602001808311610fa457829003601f168201915b50505050509050919050565b5f60075f8473ffffffffffffffffffffffffffffffffffffffff1673ffffffffffffffffffffffffffffffffffffffff1681526020019081526020015f205f8373ffffffffffffffffffffffffffffffffffffffff1673ffffffffffffffffffffffffffffffffffffffff1681526020019081526020015f205f9054906101000a900460ff16905092915050565b611063611515565b5f73ffffffffffffffffffffffffffffffffffffffff168173ffffffffffffffffffffffffffffffffffffffff16036110d3575f6040517f1e4fbdf70000000000000000000000000000000000000000000000000000000081526004016110ca91906119f2565b60405180910390fd5b6110dc8161159c565b50565b5f816110e9611140565b111580156110f757505f5482105b801561113257505f7c010000000000000000000000000000000000000000000000000000000060045f8581526020019081526020015f205416145b9050919050565b5f33905090565b5f90565b5f8082905080611152611140565b116111d0575f548110156111cf575f60045f8381526020019081526020015f205490505f7c01000000000000000000000000000000000000000000000000000000008216036111cd575b5f81036111c35760045f836001900393508381526020019081526020015f2054905061119c565b8092505050611202565b505b5b6040517fdf2d9b4200000000000000000000000000000000000000000000000000000000815260040160405180910390fd5b919050565b5f805f60065f8581526020019081526020015f2090508092508254915050915091565b5f73ffffffffffffffffffffffffffffffffffffffff8316925073ffffffffffffffffffffffffffffffffffffffff821691508382148383141790509392505050565b50505050565b5f8060e883901c905060e86112898686846117aa565b62ffffff16901b9150509392505050565b5f73ffffffffffffffffffffffffffffffffffffffff83169250814260a01b178317905092915050565b50505050565b5f805490505f8203611308576040517fb562e8dd00000000000000000000000000000000000000000000000000000000815260040160405180910390fd5b6113145f84838561126d565b600160406001901b17820260055f8573ffffffffffffffffffffffffffffffffffffffff1673ffffffffffffffffffffffffffffffffffffffff1681526020019081526020015f205f8282540192505081905550611386836113775f865f611273565b611380856117b2565b1761129a565b60045f8381526020019081526020015f20819055505f80838301905073ffffffffffffffffffffffffffffffffffffffff8516915082825f7fddf252ad1be2c89b69c2b068fc378daa952ba7f163c4a11628f55a4df523b3ef5f80a4600183015b8181146114205780835f7fddf252ad1be2c89b69c2b068fc378daa952ba7f163c4a11628f55a4df523b3ef5f80a46001810190506113e7565b505f820361145a576040517f2e07630000000000000000000000000000000000000000000000000000000000815260040160405180910390fd5b805f81905550505061146e5f8483856112c4565b505050565b61150f8484848460405160240161148d9493929190612129565b6040516020818303038152906040527f7c4632a4000000000000000000000000000000000000000000000000000000007bffffffffffffffffffffffffffffffffffffffffffffffffffffffff19166020820180517bffffffffffffffffffffffffffffffffffffffffffffffffffffffff83818316178352505050506117c1565b50505050565b61151d6117e0565b73ffffffffffffffffffffffffffffffffffffffff1661153b610c5b565b73ffffffffffffffffffffffffffffffffffffffff161461159a5761155e6117e0565b6040517f118cdaa700000000000000000000000000000000000000000000000000000000815260040161159191906119f2565b60405180910390fd5b565b5f60085f9054906101000a900473ffffffffffffffffffffffffffffffffffffffff1690508160085f6101000a81548173ffffffffffffffffffffffffffffffffffffffff021916908373ffffffffffffffffffffffffffffffffffffffff1602179055508173ffffffffffffffffffffffffffffffffffffffff168173ffffffffffffffffffffffffffffffffffffffff167f8be0079c531659141344cd1fd0a4f28419497f9722a3daafe3b4186f6b6457e060405160405180910390a35050565b5f8373ffffffffffffffffffffffffffffffffffffffff1663150b7a02611684611139565b8786866040518563ffffffff1660e01b81526004016116a694939291906121cc565b6020604051808303815f875af19250505080156116e157506040513d601f19601f820116820180604052508101906116de919061222a565b60015b611757573d805f811461170f576040519150601f19603f3d011682016040523d82523d5f602084013e611714565b606091505b505f81510361174f576040517fd1a57ed600000000000000000000000000000000000000000000000000000000815260040160405180910390fd5b805181602001fd5b63150b7a0260e01b7bffffffffffffffffffffffffffffffffffffffffffffffffffffffff1916817bffffffffffffffffffffffffffffffffffffffffffffffffffffffff191614915050949350505050565b5f9392505050565b5f6001821460e11b9050919050565b5f6a636f6e736f6c652e6c6f6790505f80835160208501845afa505050565b5f33905090565b5f604051905090565b5f80fd5b5f80fd5b5f7fffffffff0000000000000000000000000000000000000000000000000000000082169050919050565b61182c816117f8565b8114611836575f80fd5b50565b5f8135905061184781611823565b92915050565b5f60208284031215611862576118616117f0565b5b5f61186f84828501611839565b91505092915050565b5f8115159050919050565b61188c81611878565b82525050565b5f6020820190506118a55f830184611883565b92915050565b5f81519050919050565b5f82825260208201905092915050565b5f5b838110156118e25780820151818401526020810190506118c7565b5f8484015250505050565b5f601f19601f8301169050919050565b5f611907826118ab565b61191181856118b5565b93506119218185602086016118c5565b61192a816118ed565b840191505092915050565b5f6020820190508181035f83015261194d81846118fd565b905092915050565b5f819050919050565b61196781611955565b8114611971575f80fd5b50565b5f813590506119828161195e565b92915050565b5f6020828403121561199d5761199c6117f0565b5b5f6119aa84828501611974565b91505092915050565b5f73ffffffffffffffffffffffffffffffffffffffff82169050919050565b5f6119dc826119b3565b9050919050565b6119ec816119d2565b82525050565b5f602082019050611a055f8301846119e3565b92915050565b611a14816119d2565b8114611a1e575f80fd5b50565b5f81359050611a2f81611a0b565b92915050565b5f8060408385031215611a4b57611a4a6117f0565b5b5f611a5885828601611a21565b9250506020611a6985828601611974565b9150509250929050565b611a7c81611955565b82525050565b5f602082019050611a955f830184611a73565b92915050565b5f805f60608486031215611ab257611ab16117f0565b5b5f611abf86828701611a21565b9350506020611ad086828701611a21565b9250506040611ae186828701611974565b9150509250925092565b5f80fd5b5f80fd5b7f4e487b71000000000000000000000000000000000000000000000000000000005f52604160045260245ffd5b611b29826118ed565b810181811067ffffffffffffffff82111715611b4857611b47611af3565b5b80604052505050565b5f611b5a6117e7565b9050611b668282611b20565b919050565b5f67ffffffffffffffff821115611b8557611b84611af3565b5b611b8e826118ed565b9050602081019050919050565b828183375f83830152505050565b5f611bbb611bb684611b6b565b611b51565b905082815260208101848484011115611bd757611bd6611aef565b5b611be2848285611b9b565b509392505050565b5f82601f830112611bfe57611bfd611aeb565b5b8135611c0e848260208601611ba9565b91505092915050565b5f8060408385031215611c2d57611c2c6117f0565b5b5f83013567ffffffffffffffff811115611c4a57611c496117f4565b5b611c5685828601611bea565b9250506020611c6785828601611974565b9150509250929050565b5f60208284031215611c8657611c856117f0565b5b5f611c9384828501611a21565b91505092915050565b611ca581611878565b8114611caf575f80fd5b50565b5f81359050611cc081611c9c565b92915050565b5f8060408385031215611cdc57611cdb6117f0565b5b5f611ce985828601611a21565b9250506020611cfa85828601611cb2565b9150509250929050565b5f67ffffffffffffffff821115611d1e57611d1d611af3565b5b611d27826118ed565b9050602081019050919050565b5f611d46611d4184611d04565b611b51565b905082815260208101848484011115611d6257611d61611aef565b5b611d6d848285611b9b565b509392505050565b5f82601f830112611d8957611d88611aeb565b5b8135611d99848260208601611d34565b91505092915050565b5f805f8060808587031215611dba57611db96117f0565b5b5f611dc787828801611a21565b9450506020611dd887828801611a21565b9350506040611de987828801611974565b925050606085013567ffffffffffffffff811115611e0a57611e096117f4565b5b611e1687828801611d75565b91505092959194509250565b5f8060408385031215611e3857611e376117f0565b5b5f611e4585828601611a21565b9250506020611e5685828601611a21565b9150509250929050565b7f4e487b71000000000000000000000000000000000000000000000000000000005f52602260045260245ffd5b5f6002820490506001821680611ea457607f821691505b602082108103611eb757611eb6611e60565b5b50919050565b5f819050815f5260205f209050919050565b5f6020601f8301049050919050565b5f82821b905092915050565b5f60088302611f197fffffffffffffffffffffffffffffffffffffffffffffffffffffffffffffffff82611ede565b611f238683611ede565b95508019841693508086168417925050509392505050565b5f819050919050565b5f611f5e611f59611f5484611955565b611f3b565b611955565b9050919050565b5f819050919050565b611f7783611f44565b611f8b611f8382611f65565b848454611eea565b825550505050565b5f90565b611f9f611f93565b611faa818484611f6e565b505050565b5b81811015611fcd57611fc25f82611f97565b600181019050611fb0565b5050565b601f82111561201257611fe381611ebd565b611fec84611ecf565b81016020851015611ffb578190505b61200f61200785611ecf565b830182611faf565b50505b505050565b5f82821c905092915050565b5f6120325f1984600802612017565b1980831691505092915050565b5f61204a8383612023565b9150826002028217905092915050565b612063826118ab565b67ffffffffffffffff81111561207c5761207b611af3565b5b6120868254611e8d565b612091828285611fd1565b5f60209050601f8311600181146120c2575f84156120b0578287015190505b6120ba858261203f565b865550612121565b601f1984166120d086611ebd565b5f5b828110156120f7578489015182556001820191506020850194506020810190506120d2565b868310156121145784890151612110601f891682612023565b8355505b6001600288020188555050505b505050505050565b5f6080820190508181035f83015261214181876118fd565b90506121506020830186611a73565b818103604083015261216281856118fd565b905061217160608301846119e3565b95945050505050565b5f81519050919050565b5f82825260208201905092915050565b5f61219e8261217a565b6121a88185612184565b93506121b88185602086016118c5565b6121c1816118ed565b840191505092915050565b5f6080820190506121df5f8301876119e3565b6121ec60208301866119e3565b6121f96040830185611a73565b818103606083015261220b8184612194565b905095945050505050565b5f8151905061222481611823565b92915050565b5f6020828403121561223f5761223e6117f0565b5b5f61224c84828501612216565b9150509291505056fea264697066735822122078ac96fa69684aa38dbe9d763d71469cb905ce3fd8cacb2942fe73e8164444af64736f6c63430008150033","opcodes":"PUSH1 0x80 PUSH1 0x40 MSTORE CALLVALUE DUP1 ISZERO PUSH3 0x10 JUMPI PUSH0 DUP1 REVERT JUMPDEST POP PUSH1 0x40 MLOAD PUSH3 0x29E2 CODESIZE SUB DUP1 PUSH3 0x29E2 DUP4 CODECOPY DUP2 DUP2 ADD PUSH1 0x40 MSTORE DUP2 ADD SWAP1 PUSH3 0x36 SWAP2 SWAP1 PUSH3 0x34D JUMP JUMPDEST CALLER DUP3 DUP3 DUP2 PUSH1 0x2 SWAP1 DUP2 PUSH3 0x4A SWAP2 SWAP1 PUSH3 0x607 JUMP JUMPDEST POP DUP1 PUSH1 0x3 SWAP1 DUP2 PUSH3 0x5C SWAP2 SWAP1 PUSH3 0x607 JUMP JUMPDEST POP PUSH3 0x6D PUSH3 0x101 PUSH1 0x20 SHL PUSH1 0x20 SHR JUMP JUMPDEST PUSH0 DUP2 SWAP1 SSTORE POP POP POP PUSH0 PUSH20 0xFFFFFFFFFFFFFFFFFFFFFFFFFFFFFFFFFFFFFFFF AND DUP2 PUSH20 0xFFFFFFFFFFFFFFFFFFFFFFFFFFFFFFFFFFFFFFFF AND SUB PUSH3 0xE7 JUMPI PUSH0 PUSH1 0x40 MLOAD PUSH32 0x1E4FBDF700000000000000000000000000000000000000000000000000000000 DUP2 MSTORE PUSH1 0x4 ADD PUSH3 0xDE SWAP2 SWAP1 PUSH3 0x72E JUMP JUMPDEST PUSH1 0x40 MLOAD DUP1 SWAP2 SUB SWAP1 REVERT JUMPDEST PUSH3 0xF8 DUP2 PUSH3 0x105 PUSH1 0x20 SHL PUSH1 0x20 SHR JUMP JUMPDEST POP POP POP PUSH3 0x749 JUMP JUMPDEST PUSH0 SWAP1 JUMP JUMPDEST PUSH0 PUSH1 0x8 PUSH0 SWAP1 SLOAD SWAP1 PUSH2 0x100 EXP SWAP1 DIV PUSH20 0xFFFFFFFFFFFFFFFFFFFFFFFFFFFFFFFFFFFFFFFF AND SWAP1 POP DUP2 PUSH1 0x8 PUSH0 PUSH2 0x100 EXP DUP2 SLOAD DUP2 PUSH20 0xFFFFFFFFFFFFFFFFFFFFFFFFFFFFFFFFFFFFFFFF MUL NOT AND SWAP1 DUP4 PUSH20 0xFFFFFFFFFFFFFFFFFFFFFFFFFFFFFFFFFFFFFFFF AND MUL OR SWAP1 SSTORE POP DUP2 PUSH20 0xFFFFFFFFFFFFFFFFFFFFFFFFFFFFFFFFFFFFFFFF AND DUP2 PUSH20 0xFFFFFFFFFFFFFFFFFFFFFFFFFFFFFFFFFFFFFFFF AND PUSH32 0x8BE0079C531659141344CD1FD0A4F28419497F9722A3DAAFE3B4186F6B6457E0 PUSH1 0x40 MLOAD PUSH1 0x40 MLOAD DUP1 SWAP2 SUB SWAP1 LOG3 POP POP JUMP JUMPDEST PUSH0 PUSH1 0x40 MLOAD SWAP1 POP SWAP1 JUMP JUMPDEST PUSH0 DUP1 REVERT JUMPDEST PUSH0 DUP1 REVERT JUMPDEST PUSH0 DUP1 REVERT JUMPDEST PUSH0 DUP1 REVERT JUMPDEST PUSH0 PUSH1 0x1F NOT PUSH1 0x1F DUP4 ADD AND SWAP1 POP SWAP2 SWAP1 POP JUMP JUMPDEST PUSH32 0x4E487B7100000000000000000000000000000000000000000000000000000000 PUSH0 MSTORE PUSH1 0x41 PUSH1 0x4 MSTORE PUSH1 0x24 PUSH0 REVERT JUMPDEST PUSH3 0x229 DUP3 PUSH3 0x1E1 JUMP JUMPDEST DUP2 ADD DUP2 DUP2 LT PUSH8 0xFFFFFFFFFFFFFFFF DUP3 GT OR ISZERO PUSH3 0x24B JUMPI PUSH3 0x24A PUSH3 0x1F1 JUMP JUMPDEST JUMPDEST DUP1 PUSH1 0x40 MSTORE POP POP POP JUMP JUMPDEST PUSH0 PUSH3 0x25F PUSH3 0x1C8 JUMP JUMPDEST SWAP1 POP PUSH3 0x26D DUP3 DUP3 PUSH3 0x21E JUMP JUMPDEST SWAP2 SWAP1 POP JUMP JUMPDEST PUSH0 PUSH8 0xFFFFFFFFFFFFFFFF DUP3 GT ISZERO PUSH3 0x28F JUMPI PUSH3 0x28E PUSH3 0x1F1 JUMP JUMPDEST JUMPDEST PUSH3 0x29A DUP3 PUSH3 0x1E1 JUMP JUMPDEST SWAP1 POP PUSH1 0x20 DUP2 ADD SWAP1 POP SWAP2 SWAP1 POP JUMP JUMPDEST PUSH0 JUMPDEST DUP4 DUP2 LT ISZERO PUSH3 0x2C6 JUMPI DUP1 DUP3 ADD MLOAD DUP2 DUP5 ADD MSTORE PUSH1 0x20 DUP2 ADD SWAP1 POP PUSH3 0x2A9 JUMP JUMPDEST PUSH0 DUP5 DUP5 ADD MSTORE POP POP POP POP JUMP JUMPDEST PUSH0 PUSH3 0x2E7 PUSH3 0x2E1 DUP5 PUSH3 0x272 JUMP JUMPDEST PUSH3 0x254 JUMP JUMPDEST SWAP1 POP DUP3 DUP2 MSTORE PUSH1 0x20 DUP2 ADD DUP5 DUP5 DUP5 ADD GT ISZERO PUSH3 0x306 JUMPI PUSH3 0x305 PUSH3 0x1DD JUMP JUMPDEST JUMPDEST PUSH3 0x313 DUP5 DUP3 DUP6 PUSH3 0x2A7 JUMP JUMPDEST POP SWAP4 SWAP3 POP POP POP JUMP JUMPDEST PUSH0 DUP3 PUSH1 0x1F DUP4 ADD SLT PUSH3 0x332 JUMPI PUSH3 0x331 PUSH3 0x1D9 JUMP JUMPDEST JUMPDEST DUP2 MLOAD PUSH3 0x344 DUP5 DUP3 PUSH1 0x20 DUP7 ADD PUSH3 0x2D1 JUMP JUMPDEST SWAP2 POP POP SWAP3 SWAP2 POP POP JUMP JUMPDEST PUSH0 DUP1 PUSH1 0x40 DUP4 DUP6 SUB SLT ISZERO PUSH3 0x366 JUMPI PUSH3 0x365 PUSH3 0x1D1 JUMP JUMPDEST JUMPDEST PUSH0 DUP4 ADD MLOAD PUSH8 0xFFFFFFFFFFFFFFFF DUP2 GT ISZERO PUSH3 0x386 JUMPI PUSH3 0x385 PUSH3 0x1D5 JUMP JUMPDEST JUMPDEST PUSH3 0x394 DUP6 DUP3 DUP7 ADD PUSH3 0x31B JUMP JUMPDEST SWAP3 POP POP PUSH1 0x20 DUP4 ADD MLOAD PUSH8 0xFFFFFFFFFFFFFFFF DUP2 GT ISZERO PUSH3 0x3B8 JUMPI PUSH3 0x3B7 PUSH3 0x1D5 JUMP JUMPDEST JUMPDEST PUSH3 0x3C6 DUP6 DUP3 DUP7 ADD PUSH3 0x31B JUMP JUMPDEST SWAP2 POP POP SWAP3 POP SWAP3 SWAP1 POP JUMP JUMPDEST PUSH0 DUP2 MLOAD SWAP1 POP SWAP2 SWAP1 POP JUMP JUMPDEST PUSH32 0x4E487B7100000000000000000000000000000000000000000000000000000000 PUSH0 MSTORE PUSH1 0x22 PUSH1 0x4 MSTORE PUSH1 0x24 PUSH0 REVERT JUMPDEST PUSH0 PUSH1 0x2 DUP3 DIV SWAP1 POP PUSH1 0x1 DUP3 AND DUP1 PUSH3 0x41F JUMPI PUSH1 0x7F DUP3 AND SWAP2 POP JUMPDEST PUSH1 0x20 DUP3 LT DUP2 SUB PUSH3 0x435 JUMPI PUSH3 0x434 PUSH3 0x3DA JUMP JUMPDEST JUMPDEST POP SWAP2 SWAP1 POP JUMP JUMPDEST PUSH0 DUP2 SWAP1 POP DUP2 PUSH0 MSTORE PUSH1 0x20 PUSH0 KECCAK256 SWAP1 POP SWAP2 SWAP1 POP JUMP JUMPDEST PUSH0 PUSH1 0x20 PUSH1 0x1F DUP4 ADD DIV SWAP1 POP SWAP2 SWAP1 POP JUMP JUMPDEST PUSH0 DUP3 DUP3 SHL SWAP1 POP SWAP3 SWAP2 POP POP JUMP JUMPDEST PUSH0 PUSH1 0x8 DUP4 MUL PUSH3 0x499 PUSH32 0xFFFFFFFFFFFFFFFFFFFFFFFFFFFFFFFFFFFFFFFFFFFFFFFFFFFFFFFFFFFFFFFF DUP3 PUSH3 0x45C JUMP JUMPDEST PUSH3 0x4A5 DUP7 DUP4 PUSH3 0x45C JUMP JUMPDEST SWAP6 POP DUP1 NOT DUP5 AND SWAP4 POP DUP1 DUP7 AND DUP5 OR SWAP3 POP POP POP SWAP4 SWAP3 POP POP POP JUMP JUMPDEST PUSH0 DUP2 SWAP1 POP SWAP2 SWAP1 POP JUMP JUMPDEST PUSH0 DUP2 SWAP1 POP SWAP2 SWAP1 POP JUMP JUMPDEST PUSH0 PUSH3 0x4EF PUSH3 0x4E9 PUSH3 0x4E3 DUP5 PUSH3 0x4BD JUMP JUMPDEST PUSH3 0x4C6 JUMP JUMPDEST PUSH3 0x4BD JUMP JUMPDEST SWAP1 POP SWAP2 SWAP1 POP JUMP JUMPDEST PUSH0 DUP2 SWAP1 POP SWAP2 SWAP1 POP JUMP JUMPDEST PUSH3 0x50A DUP4 PUSH3 0x4CF JUMP JUMPDEST PUSH3 0x522 PUSH3 0x519 DUP3 PUSH3 0x4F6 JUMP JUMPDEST DUP5 DUP5 SLOAD PUSH3 0x468 JUMP JUMPDEST DUP3 SSTORE POP POP POP POP JUMP JUMPDEST PUSH0 SWAP1 JUMP JUMPDEST PUSH3 0x538 PUSH3 0x52A JUMP JUMPDEST PUSH3 0x545 DUP2 DUP5 DUP5 PUSH3 0x4FF JUMP JUMPDEST POP POP POP JUMP JUMPDEST JUMPDEST DUP2 DUP2 LT ISZERO PUSH3 0x56C JUMPI PUSH3 0x560 PUSH0 DUP3 PUSH3 0x52E JUMP JUMPDEST PUSH1 0x1 DUP2 ADD SWAP1 POP PUSH3 0x54B JUMP JUMPDEST POP POP JUMP JUMPDEST PUSH1 0x1F DUP3 GT ISZERO PUSH3 0x5BB JUMPI PUSH3 0x585 DUP2 PUSH3 0x43B JUMP JUMPDEST PUSH3 0x590 DUP5 PUSH3 0x44D JUMP JUMPDEST DUP2 ADD PUSH1 0x20 DUP6 LT ISZERO PUSH3 0x5A0 JUMPI DUP2 SWAP1 POP JUMPDEST PUSH3 0x5B8 PUSH3 0x5AF DUP6 PUSH3 0x44D JUMP JUMPDEST DUP4 ADD DUP3 PUSH3 0x54A JUMP JUMPDEST POP POP JUMPDEST POP POP POP JUMP JUMPDEST PUSH0 DUP3 DUP3 SHR SWAP1 POP SWAP3 SWAP2 POP POP JUMP JUMPDEST PUSH0 PUSH3 0x5DD PUSH0 NOT DUP5 PUSH1 0x8 MUL PUSH3 0x5C0 JUMP JUMPDEST NOT DUP1 DUP4 AND SWAP2 POP POP SWAP3 SWAP2 POP POP JUMP JUMPDEST PUSH0 PUSH3 0x5F7 DUP4 DUP4 PUSH3 0x5CC JUMP JUMPDEST SWAP2 POP DUP3 PUSH1 0x2 MUL DUP3 OR SWAP1 POP SWAP3 SWAP2 POP POP JUMP JUMPDEST PUSH3 0x612 DUP3 PUSH3 0x3D0 JUMP JUMPDEST PUSH8 0xFFFFFFFFFFFFFFFF DUP2 GT ISZERO PUSH3 0x62E JUMPI PUSH3 0x62D PUSH3 0x1F1 JUMP JUMPDEST JUMPDEST PUSH3 0x63A DUP3 SLOAD PUSH3 0x407 JUMP JUMPDEST PUSH3 0x647 DUP3 DUP3 DUP6 PUSH3 0x570 JUMP JUMPDEST PUSH0 PUSH1 0x20 SWAP1 POP PUSH1 0x1F DUP4 GT PUSH1 0x1 DUP2 EQ PUSH3 0x67D JUMPI PUSH0 DUP5 ISZERO PUSH3 0x668 JUMPI DUP3 DUP8 ADD MLOAD SWAP1 POP JUMPDEST PUSH3 0x674 DUP6 DUP3 PUSH3 0x5EA JUMP JUMPDEST DUP7 SSTORE POP PUSH3 0x6E3 JUMP JUMPDEST PUSH1 0x1F NOT DUP5 AND PUSH3 0x68D DUP7 PUSH3 0x43B JUMP JUMPDEST PUSH0 JUMPDEST DUP3 DUP2 LT ISZERO PUSH3 0x6B6 JUMPI DUP5 DUP10 ADD MLOAD DUP3 SSTORE PUSH1 0x1 DUP3 ADD SWAP2 POP PUSH1 0x20 DUP6 ADD SWAP5 POP PUSH1 0x20 DUP2 ADD SWAP1 POP PUSH3 0x68F JUMP JUMPDEST DUP7 DUP4 LT ISZERO PUSH3 0x6D6 JUMPI DUP5 DUP10 ADD MLOAD PUSH3 0x6D2 PUSH1 0x1F DUP10 AND DUP3 PUSH3 0x5CC JUMP JUMPDEST DUP4 SSTORE POP JUMPDEST PUSH1 0x1 PUSH1 0x2 DUP9 MUL ADD DUP9 SSTORE POP POP POP JUMPDEST POP POP POP POP POP POP JUMP JUMPDEST PUSH0 PUSH20 0xFFFFFFFFFFFFFFFFFFFFFFFFFFFFFFFFFFFFFFFF DUP3 AND SWAP1 POP SWAP2 SWAP1 POP JUMP JUMPDEST PUSH0 PUSH3 0x716 DUP3 PUSH3 0x6EB JUMP JUMPDEST SWAP1 POP SWAP2 SWAP1 POP JUMP JUMPDEST PUSH3 0x728 DUP2 PUSH3 0x70A JUMP JUMPDEST DUP3 MSTORE POP POP JUMP JUMPDEST PUSH0 PUSH1 0x20 DUP3 ADD SWAP1 POP PUSH3 0x743 PUSH0 DUP4 ADD DUP5 PUSH3 0x71D JUMP JUMPDEST SWAP3 SWAP2 POP POP JUMP JUMPDEST PUSH2 0x228B DUP1 PUSH3 0x757 PUSH0 CODECOPY PUSH0 RETURN INVALID PUSH1 0x80 PUSH1 0x40 MSTORE PUSH1 0x4 CALLDATASIZE LT PUSH2 0x11E JUMPI PUSH0 CALLDATALOAD PUSH1 0xE0 SHR DUP1 PUSH4 0x70A08231 GT PUSH2 0x9F JUMPI DUP1 PUSH4 0xB88D4FDE GT PUSH2 0x63 JUMPI DUP1 PUSH4 0xB88D4FDE EQ PUSH2 0x39C JUMPI DUP1 PUSH4 0xBE9EB325 EQ PUSH2 0x3B8 JUMPI DUP1 PUSH4 0xC87B56DD EQ PUSH2 0x3E0 JUMPI DUP1 PUSH4 0xE985E9C5 EQ PUSH2 0x41C JUMPI DUP1 PUSH4 0xF2FDE38B EQ PUSH2 0x458 JUMPI PUSH2 0x11E JUMP JUMPDEST DUP1 PUSH4 0x70A08231 EQ PUSH2 0x2CE JUMPI DUP1 PUSH4 0x715018A6 EQ PUSH2 0x30A JUMPI DUP1 PUSH4 0x8DA5CB5B EQ PUSH2 0x320 JUMPI DUP1 PUSH4 0x95D89B41 EQ PUSH2 0x34A JUMPI DUP1 PUSH4 0xA22CB465 EQ PUSH2 0x374 JUMPI PUSH2 0x11E JUMP JUMPDEST DUP1 PUSH4 0x23B872DD GT PUSH2 0xE6 JUMPI DUP1 PUSH4 0x23B872DD EQ PUSH2 0x20A JUMPI DUP1 PUSH4 0x40C10F19 EQ PUSH2 0x226 JUMPI DUP1 PUSH4 0x42842E0E EQ PUSH2 0x24E JUMPI DUP1 PUSH4 0x6352211E EQ PUSH2 0x26A JUMPI DUP1 PUSH4 0x67DB3B8F EQ PUSH2 0x2A6 JUMPI PUSH2 0x11E JUMP JUMPDEST DUP1 PUSH4 0x1FFC9A7 EQ PUSH2 0x122 JUMPI DUP1 PUSH4 0x6FDDE03 EQ PUSH2 0x15E JUMPI DUP1 PUSH4 0x81812FC EQ PUSH2 0x188 JUMPI DUP1 PUSH4 0x95EA7B3 EQ PUSH2 0x1C4 JUMPI DUP1 PUSH4 0x18160DDD EQ PUSH2 0x1E0 JUMPI JUMPDEST PUSH0 DUP1 REVERT JUMPDEST CALLVALUE DUP1 ISZERO PUSH2 0x12D JUMPI PUSH0 DUP1 REVERT JUMPDEST POP PUSH2 0x148 PUSH1 0x4 DUP1 CALLDATASIZE SUB DUP2 ADD SWAP1 PUSH2 0x143 SWAP2 SWAP1 PUSH2 0x184D JUMP JUMPDEST PUSH2 0x480 JUMP JUMPDEST PUSH1 0x40 MLOAD PUSH2 0x155 SWAP2 SWAP1 PUSH2 0x1892 JUMP JUMPDEST PUSH1 0x40 MLOAD DUP1 SWAP2 SUB SWAP1 RETURN JUMPDEST CALLVALUE DUP1 ISZERO PUSH2 0x169 JUMPI PUSH0 DUP1 REVERT JUMPDEST POP PUSH2 0x172 PUSH2 0x511 JUMP JUMPDEST PUSH1 0x40 MLOAD PUSH2 0x17F SWAP2 SWAP1 PUSH2 0x1935 JUMP JUMPDEST PUSH1 0x40 MLOAD DUP1 SWAP2 SUB SWAP1 RETURN JUMPDEST CALLVALUE DUP1 ISZERO PUSH2 0x193 JUMPI PUSH0 DUP1 REVERT JUMPDEST POP PUSH2 0x1AE PUSH1 0x4 DUP1 CALLDATASIZE SUB DUP2 ADD SWAP1 PUSH2 0x1A9 SWAP2 SWAP1 PUSH2 0x1988 JUMP JUMPDEST PUSH2 0x5A1 JUMP JUMPDEST PUSH1 0x40 MLOAD PUSH2 0x1BB SWAP2 SWAP1 PUSH2 0x19F2 JUMP JUMPDEST PUSH1 0x40 MLOAD DUP1 SWAP2 SUB SWAP1 RETURN JUMPDEST PUSH2 0x1DE PUSH1 0x4 DUP1 CALLDATASIZE SUB DUP2 ADD SWAP1 PUSH2 0x1D9 SWAP2 SWAP1 PUSH2 0x1A35 JUMP JUMPDEST PUSH2 0x61B JUMP JUMPDEST STOP JUMPDEST CALLVALUE DUP1 ISZERO PUSH2 0x1EB JUMPI PUSH0 DUP1 REVERT JUMPDEST POP PUSH2 0x1F4 PUSH2 0x75A JUMP JUMPDEST PUSH1 0x40 MLOAD PUSH2 0x201 SWAP2 SWAP1 PUSH2 0x1A82 JUMP JUMPDEST PUSH1 0x40 MLOAD DUP1 SWAP2 SUB SWAP1 RETURN JUMPDEST PUSH2 0x224 PUSH1 0x4 DUP1 CALLDATASIZE SUB DUP2 ADD SWAP1 PUSH2 0x21F SWAP2 SWAP1 PUSH2 0x1A9B JUMP JUMPDEST PUSH2 0x76F JUMP JUMPDEST STOP JUMPDEST CALLVALUE DUP1 ISZERO PUSH2 0x231 JUMPI PUSH0 DUP1 REVERT JUMPDEST POP PUSH2 0x24C PUSH1 0x4 DUP1 CALLDATASIZE SUB DUP2 ADD SWAP1 PUSH2 0x247 SWAP2 SWAP1 PUSH2 0x1A35 JUMP JUMPDEST PUSH2 0xA7D JUMP JUMPDEST STOP JUMPDEST PUSH2 0x268 PUSH1 0x4 DUP1 CALLDATASIZE SUB DUP2 ADD SWAP1 PUSH2 0x263 SWAP2 SWAP1 PUSH2 0x1A9B JUMP JUMPDEST PUSH2 0xB01 JUMP JUMPDEST STOP JUMPDEST CALLVALUE DUP1 ISZERO PUSH2 0x275 JUMPI PUSH0 DUP1 REVERT JUMPDEST POP PUSH2 0x290 PUSH1 0x4 DUP1 CALLDATASIZE SUB DUP2 ADD SWAP1 PUSH2 0x28B SWAP2 SWAP1 PUSH2 0x1988 JUMP JUMPDEST PUSH2 0xB20 JUMP JUMPDEST PUSH1 0x40 MLOAD PUSH2 0x29D SWAP2 SWAP1 PUSH2 0x19F2 JUMP JUMPDEST PUSH1 0x40 MLOAD DUP1 SWAP2 SUB SWAP1 RETURN JUMPDEST CALLVALUE DUP1 ISZERO PUSH2 0x2B1 JUMPI PUSH0 DUP1 REVERT JUMPDEST POP PUSH2 0x2CC PUSH1 0x4 DUP1 CALLDATASIZE SUB DUP2 ADD SWAP1 PUSH2 0x2C7 SWAP2 SWAP1 PUSH2 0x1C17 JUMP JUMPDEST PUSH2 0xB31 JUMP JUMPDEST STOP JUMPDEST CALLVALUE DUP1 ISZERO PUSH2 0x2D9 JUMPI PUSH0 DUP1 REVERT JUMPDEST POP PUSH2 0x2F4 PUSH1 0x4 DUP1 CALLDATASIZE SUB DUP2 ADD SWAP1 PUSH2 0x2EF SWAP2 SWAP1 PUSH2 0x1C71 JUMP JUMPDEST PUSH2 0xB93 JUMP JUMPDEST PUSH1 0x40 MLOAD PUSH2 0x301 SWAP2 SWAP1 PUSH2 0x1A82 JUMP JUMPDEST PUSH1 0x40 MLOAD DUP1 SWAP2 SUB SWAP1 RETURN JUMPDEST CALLVALUE DUP1 ISZERO PUSH2 0x315 JUMPI PUSH0 DUP1 REVERT JUMPDEST POP PUSH2 0x31E PUSH2 0xC48 JUMP JUMPDEST STOP JUMPDEST CALLVALUE DUP1 ISZERO PUSH2 0x32B JUMPI PUSH0 DUP1 REVERT JUMPDEST POP PUSH2 0x334 PUSH2 0xC5B JUMP JUMPDEST PUSH1 0x40 MLOAD PUSH2 0x341 SWAP2 SWAP1 PUSH2 0x19F2 JUMP JUMPDEST PUSH1 0x40 MLOAD DUP1 SWAP2 SUB SWAP1 RETURN JUMPDEST CALLVALUE DUP1 ISZERO PUSH2 0x355 JUMPI PUSH0 DUP1 REVERT JUMPDEST POP PUSH2 0x35E PUSH2 0xC83 JUMP JUMPDEST PUSH1 0x40 MLOAD PUSH2 0x36B SWAP2 SWAP1 PUSH2 0x1935 JUMP JUMPDEST PUSH1 0x40 MLOAD DUP1 SWAP2 SUB SWAP1 RETURN JUMPDEST CALLVALUE DUP1 ISZERO PUSH2 0x37F JUMPI PUSH0 DUP1 REVERT JUMPDEST POP PUSH2 0x39A PUSH1 0x4 DUP1 CALLDATASIZE SUB DUP2 ADD SWAP1 PUSH2 0x395 SWAP2 SWAP1 PUSH2 0x1CC6 JUMP JUMPDEST PUSH2 0xD13 JUMP JUMPDEST STOP JUMPDEST PUSH2 0x3B6 PUSH1 0x4 DUP1 CALLDATASIZE SUB DUP2 ADD SWAP1 PUSH2 0x3B1 SWAP2 SWAP1 PUSH2 0x1DA2 JUMP JUMPDEST PUSH2 0xE19 JUMP JUMPDEST STOP JUMPDEST CALLVALUE DUP1 ISZERO PUSH2 0x3C3 JUMPI PUSH0 DUP1 REVERT JUMPDEST POP PUSH2 0x3DE PUSH1 0x4 DUP1 CALLDATASIZE SUB DUP2 ADD SWAP1 PUSH2 0x3D9 SWAP2 SWAP1 PUSH2 0x1C17 JUMP JUMPDEST PUSH2 0xE8B JUMP JUMPDEST STOP JUMPDEST CALLVALUE DUP1 ISZERO PUSH2 0x3EB JUMPI PUSH0 DUP1 REVERT JUMPDEST POP PUSH2 0x406 PUSH1 0x4 DUP1 CALLDATASIZE SUB DUP2 ADD SWAP1 PUSH2 0x401 SWAP2 SWAP1 PUSH2 0x1988 JUMP JUMPDEST PUSH2 0xEED JUMP JUMPDEST PUSH1 0x40 MLOAD PUSH2 0x413 SWAP2 SWAP1 PUSH2 0x1935 JUMP JUMPDEST PUSH1 0x40 MLOAD DUP1 SWAP2 SUB SWAP1 RETURN JUMPDEST CALLVALUE DUP1 ISZERO PUSH2 0x427 JUMPI PUSH0 DUP1 REVERT JUMPDEST POP PUSH2 0x442 PUSH1 0x4 DUP1 CALLDATASIZE SUB DUP2 ADD SWAP1 PUSH2 0x43D SWAP2 SWAP1 PUSH2 0x1E22 JUMP JUMPDEST PUSH2 0xFCD JUMP JUMPDEST PUSH1 0x40 MLOAD PUSH2 0x44F SWAP2 SWAP1 PUSH2 0x1892 JUMP JUMPDEST PUSH1 0x40 MLOAD DUP1 SWAP2 SUB SWAP1 RETURN JUMPDEST CALLVALUE DUP1 ISZERO PUSH2 0x463 JUMPI PUSH0 DUP1 REVERT JUMPDEST POP PUSH2 0x47E PUSH1 0x4 DUP1 CALLDATASIZE SUB DUP2 ADD SWAP1 PUSH2 0x479 SWAP2 SWAP1 PUSH2 0x1C71 JUMP JUMPDEST PUSH2 0x105B JUMP JUMPDEST STOP JUMPDEST PUSH0 PUSH4 0x1FFC9A7 PUSH1 0xE0 SHL DUP3 PUSH28 0xFFFFFFFFFFFFFFFFFFFFFFFFFFFFFFFFFFFFFFFFFFFFFFFFFFFFFFFF NOT AND EQ DUP1 PUSH2 0x4DA JUMPI POP PUSH4 0x80AC58CD PUSH1 0xE0 SHL DUP3 PUSH28 0xFFFFFFFFFFFFFFFFFFFFFFFFFFFFFFFFFFFFFFFFFFFFFFFFFFFFFFFF NOT AND EQ JUMPDEST DUP1 PUSH2 0x50A JUMPI POP PUSH4 0x5B5E139F PUSH1 0xE0 SHL DUP3 PUSH28 0xFFFFFFFFFFFFFFFFFFFFFFFFFFFFFFFFFFFFFFFFFFFFFFFFFFFFFFFF NOT AND EQ JUMPDEST SWAP1 POP SWAP2 SWAP1 POP JUMP JUMPDEST PUSH1 0x60 PUSH1 0x2 DUP1 SLOAD PUSH2 0x520 SWAP1 PUSH2 0x1E8D JUMP JUMPDEST DUP1 PUSH1 0x1F ADD PUSH1 0x20 DUP1 SWAP2 DIV MUL PUSH1 0x20 ADD PUSH1 0x40 MLOAD SWAP1 DUP2 ADD PUSH1 0x40 MSTORE DUP1 SWAP3 SWAP2 SWAP1 DUP2 DUP2 MSTORE PUSH1 0x20 ADD DUP3 DUP1 SLOAD PUSH2 0x54C SWAP1 PUSH2 0x1E8D JUMP JUMPDEST DUP1 ISZERO PUSH2 0x597 JUMPI DUP1 PUSH1 0x1F LT PUSH2 0x56E JUMPI PUSH2 0x100 DUP1 DUP4 SLOAD DIV MUL DUP4 MSTORE SWAP2 PUSH1 0x20 ADD SWAP2 PUSH2 0x597 JUMP JUMPDEST DUP3 ADD SWAP2 SWAP1 PUSH0 MSTORE PUSH1 0x20 PUSH0 KECCAK256 SWAP1 JUMPDEST DUP2 SLOAD DUP2 MSTORE SWAP1 PUSH1 0x1 ADD SWAP1 PUSH1 0x20 ADD DUP1 DUP4 GT PUSH2 0x57A JUMPI DUP3 SWAP1 SUB PUSH1 0x1F AND DUP3 ADD SWAP2 JUMPDEST POP POP POP POP POP SWAP1 POP SWAP1 JUMP JUMPDEST PUSH0 PUSH2 0x5AB DUP3 PUSH2 0x10DF JUMP JUMPDEST PUSH2 0x5E1 JUMPI PUSH1 0x40 MLOAD PUSH32 0xCF4700E400000000000000000000000000000000000000000000000000000000 DUP2 MSTORE PUSH1 0x4 ADD PUSH1 0x40 MLOAD DUP1 SWAP2 SUB SWAP1 REVERT JUMPDEST PUSH1 0x6 PUSH0 DUP4 DUP2 MSTORE PUSH1 0x20 ADD SWAP1 DUP2 MSTORE PUSH1 0x20 ADD PUSH0 KECCAK256 PUSH0 ADD PUSH0 SWAP1 SLOAD SWAP1 PUSH2 0x100 EXP SWAP1 DIV PUSH20 0xFFFFFFFFFFFFFFFFFFFFFFFFFFFFFFFFFFFFFFFF AND SWAP1 POP SWAP2 SWAP1 POP JUMP JUMPDEST PUSH0 PUSH2 0x625 DUP3 PUSH2 0xB20 JUMP JUMPDEST SWAP1 POP DUP1 PUSH20 0xFFFFFFFFFFFFFFFFFFFFFFFFFFFFFFFFFFFFFFFF AND PUSH2 0x646 PUSH2 0x1139 JUMP JUMPDEST PUSH20 0xFFFFFFFFFFFFFFFFFFFFFFFFFFFFFFFFFFFFFFFF AND EQ PUSH2 0x6A9 JUMPI PUSH2 0x672 DUP2 PUSH2 0x66D PUSH2 0x1139 JUMP JUMPDEST PUSH2 0xFCD JUMP JUMPDEST PUSH2 0x6A8 JUMPI PUSH1 0x40 MLOAD PUSH32 0xCFB3B94200000000000000000000000000000000000000000000000000000000 DUP2 MSTORE PUSH1 0x4 ADD PUSH1 0x40 MLOAD DUP1 SWAP2 SUB SWAP1 REVERT JUMPDEST JUMPDEST DUP3 PUSH1 0x6 PUSH0 DUP5 DUP2 MSTORE PUSH1 0x20 ADD SWAP1 DUP2 MSTORE PUSH1 0x20 ADD PUSH0 KECCAK256 PUSH0 ADD PUSH0 PUSH2 0x100 EXP DUP2 SLOAD DUP2 PUSH20 0xFFFFFFFFFFFFFFFFFFFFFFFFFFFFFFFFFFFFFFFF MUL NOT AND SWAP1 DUP4 PUSH20 0xFFFFFFFFFFFFFFFFFFFFFFFFFFFFFFFFFFFFFFFF AND MUL OR SWAP1 SSTORE POP DUP2 DUP4 PUSH20 0xFFFFFFFFFFFFFFFFFFFFFFFFFFFFFFFFFFFFFFFF AND DUP3 PUSH20 0xFFFFFFFFFFFFFFFFFFFFFFFFFFFFFFFFFFFFFFFF AND PUSH32 0x8C5BE1E5EBEC7D5BD14F71427D1E84F3DD0314C0F7B2291E5B200AC8C7C3B925 PUSH1 0x40 MLOAD PUSH1 0x40 MLOAD DUP1 SWAP2 SUB SWAP1 LOG4 POP POP POP JUMP JUMPDEST PUSH0 PUSH2 0x763 PUSH2 0x1140 JUMP JUMPDEST PUSH1 0x1 SLOAD PUSH0 SLOAD SUB SUB SWAP1 POP SWAP1 JUMP JUMPDEST PUSH0 PUSH2 0x779 DUP3 PUSH2 0x1144 JUMP JUMPDEST SWAP1 POP DUP4 PUSH20 0xFFFFFFFFFFFFFFFFFFFFFFFFFFFFFFFFFFFFFFFF AND DUP2 PUSH20 0xFFFFFFFFFFFFFFFFFFFFFFFFFFFFFFFFFFFFFFFF AND EQ PUSH2 0x7E0 JUMPI PUSH1 0x40 MLOAD PUSH32 0xA114810000000000000000000000000000000000000000000000000000000000 DUP2 MSTORE PUSH1 0x4 ADD PUSH1 0x40 MLOAD DUP1 SWAP2 SUB SWAP1 REVERT JUMPDEST PUSH0 DUP1 PUSH2 0x7EB DUP5 PUSH2 0x1207 JUMP JUMPDEST SWAP2 POP SWAP2 POP PUSH2 0x801 DUP2 DUP8 PUSH2 0x7FC PUSH2 0x1139 JUMP JUMPDEST PUSH2 0x122A JUMP JUMPDEST PUSH2 0x84D JUMPI PUSH2 0x816 DUP7 PUSH2 0x811 PUSH2 0x1139 JUMP JUMPDEST PUSH2 0xFCD JUMP JUMPDEST PUSH2 0x84C JUMPI PUSH1 0x40 MLOAD PUSH32 0x59C896BE00000000000000000000000000000000000000000000000000000000 DUP2 MSTORE PUSH1 0x4 ADD PUSH1 0x40 MLOAD DUP1 SWAP2 SUB SWAP1 REVERT JUMPDEST JUMPDEST PUSH0 PUSH20 0xFFFFFFFFFFFFFFFFFFFFFFFFFFFFFFFFFFFFFFFF AND DUP6 PUSH20 0xFFFFFFFFFFFFFFFFFFFFFFFFFFFFFFFFFFFFFFFF AND SUB PUSH2 0x8B2 JUMPI PUSH1 0x40 MLOAD PUSH32 0xEA553B3400000000000000000000000000000000000000000000000000000000 DUP2 MSTORE PUSH1 0x4 ADD PUSH1 0x40 MLOAD DUP1 SWAP2 SUB SWAP1 REVERT JUMPDEST PUSH2 0x8BF DUP7 DUP7 DUP7 PUSH1 0x1 PUSH2 0x126D JUMP JUMPDEST DUP1 ISZERO PUSH2 0x8C9 JUMPI PUSH0 DUP3 SSTORE JUMPDEST PUSH1 0x5 PUSH0 DUP8 PUSH20 0xFFFFFFFFFFFFFFFFFFFFFFFFFFFFFFFFFFFFFFFF AND PUSH20 0xFFFFFFFFFFFFFFFFFFFFFFFFFFFFFFFFFFFFFFFF AND DUP2 MSTORE PUSH1 0x20 ADD SWAP1 DUP2 MSTORE PUSH1 0x20 ADD PUSH0 KECCAK256 PUSH0 DUP2 SLOAD PUSH1 0x1 SWAP1 SUB SWAP2 SWAP1 POP DUP2 SWAP1 SSTORE POP PUSH1 0x5 PUSH0 DUP7 PUSH20 0xFFFFFFFFFFFFFFFFFFFFFFFFFFFFFFFFFFFFFFFF AND PUSH20 0xFFFFFFFFFFFFFFFFFFFFFFFFFFFFFFFFFFFFFFFF AND DUP2 MSTORE PUSH1 0x20 ADD SWAP1 DUP2 MSTORE PUSH1 0x20 ADD PUSH0 KECCAK256 PUSH0 DUP2 SLOAD PUSH1 0x1 ADD SWAP2 SWAP1 POP DUP2 SWAP1 SSTORE POP PUSH2 0x991 DUP6 PUSH2 0x96D DUP9 DUP9 DUP8 PUSH2 0x1273 JUMP JUMPDEST PUSH29 0x200000000000000000000000000000000000000000000000000000000 OR PUSH2 0x129A JUMP JUMPDEST PUSH1 0x4 PUSH0 DUP7 DUP2 MSTORE PUSH1 0x20 ADD SWAP1 DUP2 MSTORE PUSH1 0x20 ADD PUSH0 KECCAK256 DUP2 SWAP1 SSTORE POP PUSH0 PUSH29 0x200000000000000000000000000000000000000000000000000000000 DUP5 AND SUB PUSH2 0xA0D JUMPI PUSH0 PUSH1 0x1 DUP6 ADD SWAP1 POP PUSH0 PUSH1 0x4 PUSH0 DUP4 DUP2 MSTORE PUSH1 0x20 ADD SWAP1 DUP2 MSTORE PUSH1 0x20 ADD PUSH0 KECCAK256 SLOAD SUB PUSH2 0xA0B JUMPI PUSH0 SLOAD DUP2 EQ PUSH2 0xA0A JUMPI DUP4 PUSH1 0x4 PUSH0 DUP4 DUP2 MSTORE PUSH1 0x20 ADD SWAP1 DUP2 MSTORE PUSH1 0x20 ADD PUSH0 KECCAK256 DUP2 SWAP1 SSTORE POP JUMPDEST JUMPDEST POP JUMPDEST DUP4 DUP6 PUSH20 0xFFFFFFFFFFFFFFFFFFFFFFFFFFFFFFFFFFFFFFFF AND DUP8 PUSH20 0xFFFFFFFFFFFFFFFFFFFFFFFFFFFFFFFFFFFFFFFF AND PUSH32 0xDDF252AD1BE2C89B69C2B068FC378DAA952BA7F163C4A11628F55A4DF523B3EF PUSH1 0x40 MLOAD PUSH1 0x40 MLOAD DUP1 SWAP2 SUB SWAP1 LOG4 PUSH2 0xA75 DUP7 DUP7 DUP7 PUSH1 0x1 PUSH2 0x12C4 JUMP JUMPDEST POP POP POP POP POP POP JUMP JUMPDEST PUSH2 0xA87 DUP3 DUP3 PUSH2 0x12CA JUMP JUMPDEST PUSH2 0xAFD PUSH1 0x40 MLOAD DUP1 PUSH1 0x40 ADD PUSH1 0x40 MSTORE DUP1 PUSH1 0x14 DUP2 MSTORE PUSH1 0x20 ADD PUSH32 0x7375636365737366756C6C79206D696E74656420000000000000000000000000 DUP2 MSTORE POP DUP3 PUSH1 0x40 MLOAD DUP1 PUSH1 0x40 ADD PUSH1 0x40 MSTORE DUP1 PUSH1 0x9 DUP2 MSTORE PUSH1 0x20 ADD PUSH32 0x206E66747320746F200000000000000000000000000000000000000000000000 DUP2 MSTORE POP DUP6 PUSH2 0x1473 JUMP JUMPDEST POP POP JUMP JUMPDEST PUSH2 0xB1B DUP4 DUP4 DUP4 PUSH1 0x40 MLOAD DUP1 PUSH1 0x20 ADD PUSH1 0x40 MSTORE DUP1 PUSH0 DUP2 MSTORE POP PUSH2 0xE19 JUMP JUMPDEST POP POP POP JUMP JUMPDEST PUSH0 PUSH2 0xB2A DUP3 PUSH2 0x1144 JUMP JUMPDEST SWAP1 POP SWAP2 SWAP1 POP JUMP JUMPDEST PUSH2 0xB3A DUP2 PUSH2 0x10DF JUMP JUMPDEST PUSH2 0xB70 JUMPI PUSH1 0x40 MLOAD PUSH32 0xA14C4B5000000000000000000000000000000000000000000000000000000000 DUP2 MSTORE PUSH1 0x4 ADD PUSH1 0x40 MLOAD DUP1 SWAP2 SUB SWAP1 REVERT JUMPDEST DUP2 PUSH1 0x9 PUSH0 DUP4 DUP2 MSTORE PUSH1 0x20 ADD SWAP1 DUP2 MSTORE PUSH1 0x20 ADD PUSH0 KECCAK256 SWAP1 DUP2 PUSH2 0xB8E SWAP2 SWAP1 PUSH2 0x205A JUMP JUMPDEST POP POP POP JUMP JUMPDEST PUSH0 DUP1 PUSH20 0xFFFFFFFFFFFFFFFFFFFFFFFFFFFFFFFFFFFFFFFF AND DUP3 PUSH20 0xFFFFFFFFFFFFFFFFFFFFFFFFFFFFFFFFFFFFFFFF AND SUB PUSH2 0xBF9 JUMPI PUSH1 0x40 MLOAD PUSH32 0x8F4EB60400000000000000000000000000000000000000000000000000000000 DUP2 MSTORE PUSH1 0x4 ADD PUSH1 0x40 MLOAD DUP1 SWAP2 SUB SWAP1 REVERT JUMPDEST PUSH8 0xFFFFFFFFFFFFFFFF PUSH1 0x5 PUSH0 DUP5 PUSH20 0xFFFFFFFFFFFFFFFFFFFFFFFFFFFFFFFFFFFFFFFF AND PUSH20 0xFFFFFFFFFFFFFFFFFFFFFFFFFFFFFFFFFFFFFFFF AND DUP2 MSTORE PUSH1 0x20 ADD SWAP1 DUP2 MSTORE PUSH1 0x20 ADD PUSH0 KECCAK256 SLOAD AND SWAP1 POP SWAP2 SWAP1 POP JUMP JUMPDEST PUSH2 0xC50 PUSH2 0x1515 JUMP JUMPDEST PUSH2 0xC59 PUSH0 PUSH2 0x159C JUMP JUMPDEST JUMP JUMPDEST PUSH0 PUSH1 0x8 PUSH0 SWAP1 SLOAD SWAP1 PUSH2 0x100 EXP SWAP1 DIV PUSH20 0xFFFFFFFFFFFFFFFFFFFFFFFFFFFFFFFFFFFFFFFF AND SWAP1 POP SWAP1 JUMP JUMPDEST PUSH1 0x60 PUSH1 0x3 DUP1 SLOAD PUSH2 0xC92 SWAP1 PUSH2 0x1E8D JUMP JUMPDEST DUP1 PUSH1 0x1F ADD PUSH1 0x20 DUP1 SWAP2 DIV MUL PUSH1 0x20 ADD PUSH1 0x40 MLOAD SWAP1 DUP2 ADD PUSH1 0x40 MSTORE DUP1 SWAP3 SWAP2 SWAP1 DUP2 DUP2 MSTORE PUSH1 0x20 ADD DUP3 DUP1 SLOAD PUSH2 0xCBE SWAP1 PUSH2 0x1E8D JUMP JUMPDEST DUP1 ISZERO PUSH2 0xD09 JUMPI DUP1 PUSH1 0x1F LT PUSH2 0xCE0 JUMPI PUSH2 0x100 DUP1 DUP4 SLOAD DIV MUL DUP4 MSTORE SWAP2 PUSH1 0x20 ADD SWAP2 PUSH2 0xD09 JUMP JUMPDEST DUP3 ADD SWAP2 SWAP1 PUSH0 MSTORE PUSH1 0x20 PUSH0 KECCAK256 SWAP1 JUMPDEST DUP2 SLOAD DUP2 MSTORE SWAP1 PUSH1 0x1 ADD SWAP1 PUSH1 0x20 ADD DUP1 DUP4 GT PUSH2 0xCEC JUMPI DUP3 SWAP1 SUB PUSH1 0x1F AND DUP3 ADD SWAP2 JUMPDEST POP POP POP POP POP SWAP1 POP SWAP1 JUMP JUMPDEST DUP1 PUSH1 0x7 PUSH0 PUSH2 0xD1F PUSH2 0x1139 JUMP JUMPDEST PUSH20 0xFFFFFFFFFFFFFFFFFFFFFFFFFFFFFFFFFFFFFFFF AND PUSH20 0xFFFFFFFFFFFFFFFFFFFFFFFFFFFFFFFFFFFFFFFF AND DUP2 MSTORE PUSH1 0x20 ADD SWAP1 DUP2 MSTORE PUSH1 0x20 ADD PUSH0 KECCAK256 PUSH0 DUP5 PUSH20 0xFFFFFFFFFFFFFFFFFFFFFFFFFFFFFFFFFFFFFFFF AND PUSH20 0xFFFFFFFFFFFFFFFFFFFFFFFFFFFFFFFFFFFFFFFF AND DUP2 MSTORE PUSH1 0x20 ADD SWAP1 DUP2 MSTORE PUSH1 0x20 ADD PUSH0 KECCAK256 PUSH0 PUSH2 0x100 EXP DUP2 SLOAD DUP2 PUSH1 0xFF MUL NOT AND SWAP1 DUP4 ISZERO ISZERO MUL OR SWAP1 SSTORE POP DUP2 PUSH20 0xFFFFFFFFFFFFFFFFFFFFFFFFFFFFFFFFFFFFFFFF AND PUSH2 0xDC8 PUSH2 0x1139 JUMP JUMPDEST PUSH20 0xFFFFFFFFFFFFFFFFFFFFFFFFFFFFFFFFFFFFFFFF AND PUSH32 0x17307EAB39AB6107E8899845AD3D59BD9653F200F220920489CA2B5937696C31 DUP4 PUSH1 0x40 MLOAD PUSH2 0xE0D SWAP2 SWAP1 PUSH2 0x1892 JUMP JUMPDEST PUSH1 0x40 MLOAD DUP1 SWAP2 SUB SWAP1 LOG3 POP POP JUMP JUMPDEST PUSH2 0xE24 DUP5 DUP5 DUP5 PUSH2 0x76F JUMP JUMPDEST PUSH0 DUP4 PUSH20 0xFFFFFFFFFFFFFFFFFFFFFFFFFFFFFFFFFFFFFFFF AND EXTCODESIZE EQ PUSH2 0xE85 JUMPI PUSH2 0xE4E DUP5 DUP5 DUP5 DUP5 PUSH2 0x165F JUMP JUMPDEST PUSH2 0xE84 JUMPI PUSH1 0x40 MLOAD PUSH32 0xD1A57ED600000000000000000000000000000000000000000000000000000000 DUP2 MSTORE PUSH1 0x4 ADD PUSH1 0x40 MLOAD DUP1 SWAP2 SUB SWAP1 REVERT JUMPDEST JUMPDEST POP POP POP POP JUMP JUMPDEST PUSH2 0xE94 DUP2 PUSH2 0x10DF JUMP JUMPDEST PUSH2 0xECA JUMPI PUSH1 0x40 MLOAD PUSH32 0xA14C4B5000000000000000000000000000000000000000000000000000000000 DUP2 MSTORE PUSH1 0x4 ADD PUSH1 0x40 MLOAD DUP1 SWAP2 SUB SWAP1 REVERT JUMPDEST DUP2 PUSH1 0xA PUSH0 DUP4 DUP2 MSTORE PUSH1 0x20 ADD SWAP1 DUP2 MSTORE PUSH1 0x20 ADD PUSH0 KECCAK256 SWAP1 DUP2 PUSH2 0xEE8 SWAP2 SWAP1 PUSH2 0x205A JUMP JUMPDEST POP POP POP JUMP JUMPDEST PUSH1 0x60 PUSH2 0xEF8 DUP3 PUSH2 0x10DF JUMP JUMPDEST PUSH2 0xF2E JUMPI PUSH1 0x40 MLOAD PUSH32 0xA14C4B5000000000000000000000000000000000000000000000000000000000 DUP2 MSTORE PUSH1 0x4 ADD PUSH1 0x40 MLOAD DUP1 SWAP2 SUB SWAP1 REVERT JUMPDEST PUSH1 0x9 PUSH0 DUP4 DUP2 MSTORE PUSH1 0x20 ADD SWAP1 DUP2 MSTORE PUSH1 0x20 ADD PUSH0 KECCAK256 DUP1 SLOAD PUSH2 0xF4A SWAP1 PUSH2 0x1E8D JUMP JUMPDEST DUP1 PUSH1 0x1F ADD PUSH1 0x20 DUP1 SWAP2 DIV MUL PUSH1 0x20 ADD PUSH1 0x40 MLOAD SWAP1 DUP2 ADD PUSH1 0x40 MSTORE DUP1 SWAP3 SWAP2 SWAP1 DUP2 DUP2 MSTORE PUSH1 0x20 ADD DUP3 DUP1 SLOAD PUSH2 0xF76 SWAP1 PUSH2 0x1E8D JUMP JUMPDEST DUP1 ISZERO PUSH2 0xFC1 JUMPI DUP1 PUSH1 0x1F LT PUSH2 0xF98 JUMPI PUSH2 0x100 DUP1 DUP4 SLOAD DIV MUL DUP4 MSTORE SWAP2 PUSH1 0x20 ADD SWAP2 PUSH2 0xFC1 JUMP JUMPDEST DUP3 ADD SWAP2 SWAP1 PUSH0 MSTORE PUSH1 0x20 PUSH0 KECCAK256 SWAP1 JUMPDEST DUP2 SLOAD DUP2 MSTORE SWAP1 PUSH1 0x1 ADD SWAP1 PUSH1 0x20 ADD DUP1 DUP4 GT PUSH2 0xFA4 JUMPI DUP3 SWAP1 SUB PUSH1 0x1F AND DUP3 ADD SWAP2 JUMPDEST POP POP POP POP POP SWAP1 POP SWAP2 SWAP1 POP JUMP JUMPDEST PUSH0 PUSH1 0x7 PUSH0 DUP5 PUSH20 0xFFFFFFFFFFFFFFFFFFFFFFFFFFFFFFFFFFFFFFFF AND PUSH20 0xFFFFFFFFFFFFFFFFFFFFFFFFFFFFFFFFFFFFFFFF AND DUP2 MSTORE PUSH1 0x20 ADD SWAP1 DUP2 MSTORE PUSH1 0x20 ADD PUSH0 KECCAK256 PUSH0 DUP4 PUSH20 0xFFFFFFFFFFFFFFFFFFFFFFFFFFFFFFFFFFFFFFFF AND PUSH20 0xFFFFFFFFFFFFFFFFFFFFFFFFFFFFFFFFFFFFFFFF AND DUP2 MSTORE PUSH1 0x20 ADD SWAP1 DUP2 MSTORE PUSH1 0x20 ADD PUSH0 KECCAK256 PUSH0 SWAP1 SLOAD SWAP1 PUSH2 0x100 EXP SWAP1 DIV PUSH1 0xFF AND SWAP1 POP SWAP3 SWAP2 POP POP JUMP JUMPDEST PUSH2 0x1063 PUSH2 0x1515 JUMP JUMPDEST PUSH0 PUSH20 0xFFFFFFFFFFFFFFFFFFFFFFFFFFFFFFFFFFFFFFFF AND DUP2 PUSH20 0xFFFFFFFFFFFFFFFFFFFFFFFFFFFFFFFFFFFFFFFF AND SUB PUSH2 0x10D3 JUMPI PUSH0 PUSH1 0x40 MLOAD PUSH32 0x1E4FBDF700000000000000000000000000000000000000000000000000000000 DUP2 MSTORE PUSH1 0x4 ADD PUSH2 0x10CA SWAP2 SWAP1 PUSH2 0x19F2 JUMP JUMPDEST PUSH1 0x40 MLOAD DUP1 SWAP2 SUB SWAP1 REVERT JUMPDEST PUSH2 0x10DC DUP2 PUSH2 0x159C JUMP JUMPDEST POP JUMP JUMPDEST PUSH0 DUP2 PUSH2 0x10E9 PUSH2 0x1140 JUMP JUMPDEST GT ISZERO DUP1 ISZERO PUSH2 0x10F7 JUMPI POP PUSH0 SLOAD DUP3 LT JUMPDEST DUP1 ISZERO PUSH2 0x1132 JUMPI POP PUSH0 PUSH29 0x100000000000000000000000000000000000000000000000000000000 PUSH1 0x4 PUSH0 DUP6 DUP2 MSTORE PUSH1 0x20 ADD SWAP1 DUP2 MSTORE PUSH1 0x20 ADD PUSH0 KECCAK256 SLOAD AND EQ JUMPDEST SWAP1 POP SWAP2 SWAP1 POP JUMP JUMPDEST PUSH0 CALLER SWAP1 POP SWAP1 JUMP JUMPDEST PUSH0 SWAP1 JUMP JUMPDEST PUSH0 DUP1 DUP3 SWAP1 POP DUP1 PUSH2 0x1152 PUSH2 0x1140 JUMP JUMPDEST GT PUSH2 0x11D0 JUMPI PUSH0 SLOAD DUP2 LT ISZERO PUSH2 0x11CF JUMPI PUSH0 PUSH1 0x4 PUSH0 DUP4 DUP2 MSTORE PUSH1 0x20 ADD SWAP1 DUP2 MSTORE PUSH1 0x20 ADD PUSH0 KECCAK256 SLOAD SWAP1 POP PUSH0 PUSH29 0x100000000000000000000000000000000000000000000000000000000 DUP3 AND SUB PUSH2 0x11CD JUMPI JUMPDEST PUSH0 DUP2 SUB PUSH2 0x11C3 JUMPI PUSH1 0x4 PUSH0 DUP4 PUSH1 0x1 SWAP1 SUB SWAP4 POP DUP4 DUP2 MSTORE PUSH1 0x20 ADD SWAP1 DUP2 MSTORE PUSH1 0x20 ADD PUSH0 KECCAK256 SLOAD SWAP1 POP PUSH2 0x119C JUMP JUMPDEST DUP1 SWAP3 POP POP POP PUSH2 0x1202 JUMP JUMPDEST POP JUMPDEST JUMPDEST PUSH1 0x40 MLOAD PUSH32 0xDF2D9B4200000000000000000000000000000000000000000000000000000000 DUP2 MSTORE PUSH1 0x4 ADD PUSH1 0x40 MLOAD DUP1 SWAP2 SUB SWAP1 REVERT JUMPDEST SWAP2 SWAP1 POP JUMP JUMPDEST PUSH0 DUP1 PUSH0 PUSH1 0x6 PUSH0 DUP6 DUP2 MSTORE PUSH1 0x20 ADD SWAP1 DUP2 MSTORE PUSH1 0x20 ADD PUSH0 KECCAK256 SWAP1 POP DUP1 SWAP3 POP DUP3 SLOAD SWAP2 POP POP SWAP2 POP SWAP2 JUMP JUMPDEST PUSH0 PUSH20 0xFFFFFFFFFFFFFFFFFFFFFFFFFFFFFFFFFFFFFFFF DUP4 AND SWAP3 POP PUSH20 0xFFFFFFFFFFFFFFFFFFFFFFFFFFFFFFFFFFFFFFFF DUP3 AND SWAP2 POP DUP4 DUP3 EQ DUP4 DUP4 EQ OR SWAP1 POP SWAP4 SWAP3 POP POP POP JUMP JUMPDEST POP POP POP POP JUMP JUMPDEST PUSH0 DUP1 PUSH1 0xE8 DUP4 SWAP1 SHR SWAP1 POP PUSH1 0xE8 PUSH2 0x1289 DUP7 DUP7 DUP5 PUSH2 0x17AA JUMP JUMPDEST PUSH3 0xFFFFFF AND SWAP1 SHL SWAP2 POP POP SWAP4 SWAP3 POP POP POP JUMP JUMPDEST PUSH0 PUSH20 0xFFFFFFFFFFFFFFFFFFFFFFFFFFFFFFFFFFFFFFFF DUP4 AND SWAP3 POP DUP2 TIMESTAMP PUSH1 0xA0 SHL OR DUP4 OR SWAP1 POP SWAP3 SWAP2 POP POP JUMP JUMPDEST POP POP POP POP JUMP JUMPDEST PUSH0 DUP1 SLOAD SWAP1 POP PUSH0 DUP3 SUB PUSH2 0x1308 JUMPI PUSH1 0x40 MLOAD PUSH32 0xB562E8DD00000000000000000000000000000000000000000000000000000000 DUP2 MSTORE PUSH1 0x4 ADD PUSH1 0x40 MLOAD DUP1 SWAP2 SUB SWAP1 REVERT JUMPDEST PUSH2 0x1314 PUSH0 DUP5 DUP4 DUP6 PUSH2 0x126D JUMP JUMPDEST PUSH1 0x1 PUSH1 0x40 PUSH1 0x1 SWAP1 SHL OR DUP3 MUL PUSH1 0x5 PUSH0 DUP6 PUSH20 0xFFFFFFFFFFFFFFFFFFFFFFFFFFFFFFFFFFFFFFFF AND PUSH20 0xFFFFFFFFFFFFFFFFFFFFFFFFFFFFFFFFFFFFFFFF AND DUP2 MSTORE PUSH1 0x20 ADD SWAP1 DUP2 MSTORE PUSH1 0x20 ADD PUSH0 KECCAK256 PUSH0 DUP3 DUP3 SLOAD ADD SWAP3 POP POP DUP2 SWAP1 SSTORE POP PUSH2 0x1386 DUP4 PUSH2 0x1377 PUSH0 DUP7 PUSH0 PUSH2 0x1273 JUMP JUMPDEST PUSH2 0x1380 DUP6 PUSH2 0x17B2 JUMP JUMPDEST OR PUSH2 0x129A JUMP JUMPDEST PUSH1 0x4 PUSH0 DUP4 DUP2 MSTORE PUSH1 0x20 ADD SWAP1 DUP2 MSTORE PUSH1 0x20 ADD PUSH0 KECCAK256 DUP2 SWAP1 SSTORE POP PUSH0 DUP1 DUP4 DUP4 ADD SWAP1 POP PUSH20 0xFFFFFFFFFFFFFFFFFFFFFFFFFFFFFFFFFFFFFFFF DUP6 AND SWAP2 POP DUP3 DUP3 PUSH0 PUSH32 0xDDF252AD1BE2C89B69C2B068FC378DAA952BA7F163C4A11628F55A4DF523B3EF PUSH0 DUP1 LOG4 PUSH1 0x1 DUP4 ADD JUMPDEST DUP2 DUP2 EQ PUSH2 0x1420 JUMPI DUP1 DUP4 PUSH0 PUSH32 0xDDF252AD1BE2C89B69C2B068FC378DAA952BA7F163C4A11628F55A4DF523B3EF PUSH0 DUP1 LOG4 PUSH1 0x1 DUP2 ADD SWAP1 POP PUSH2 0x13E7 JUMP JUMPDEST POP PUSH0 DUP3 SUB PUSH2 0x145A JUMPI PUSH1 0x40 MLOAD PUSH32 0x2E07630000000000000000000000000000000000000000000000000000000000 DUP2 MSTORE PUSH1 0x4 ADD PUSH1 0x40 MLOAD DUP1 SWAP2 SUB SWAP1 REVERT JUMPDEST DUP1 PUSH0 DUP2 SWAP1 SSTORE POP POP POP PUSH2 0x146E PUSH0 DUP5 DUP4 DUP6 PUSH2 0x12C4 JUMP JUMPDEST POP POP POP JUMP JUMPDEST PUSH2 0x150F DUP5 DUP5 DUP5 DUP5 PUSH1 0x40 MLOAD PUSH1 0x24 ADD PUSH2 0x148D SWAP5 SWAP4 SWAP3 SWAP2 SWAP1 PUSH2 0x2129 JUMP JUMPDEST PUSH1 0x40 MLOAD PUSH1 0x20 DUP2 DUP4 SUB SUB DUP2 MSTORE SWAP1 PUSH1 0x40 MSTORE PUSH32 0x7C4632A400000000000000000000000000000000000000000000000000000000 PUSH28 0xFFFFFFFFFFFFFFFFFFFFFFFFFFFFFFFFFFFFFFFFFFFFFFFFFFFFFFFF NOT AND PUSH1 0x20 DUP3 ADD DUP1 MLOAD PUSH28 0xFFFFFFFFFFFFFFFFFFFFFFFFFFFFFFFFFFFFFFFFFFFFFFFFFFFFFFFF DUP4 DUP2 DUP4 AND OR DUP4 MSTORE POP POP POP POP PUSH2 0x17C1 JUMP JUMPDEST POP POP POP POP JUMP JUMPDEST PUSH2 0x151D PUSH2 0x17E0 JUMP JUMPDEST PUSH20 0xFFFFFFFFFFFFFFFFFFFFFFFFFFFFFFFFFFFFFFFF AND PUSH2 0x153B PUSH2 0xC5B JUMP JUMPDEST PUSH20 0xFFFFFFFFFFFFFFFFFFFFFFFFFFFFFFFFFFFFFFFF AND EQ PUSH2 0x159A JUMPI PUSH2 0x155E PUSH2 0x17E0 JUMP JUMPDEST PUSH1 0x40 MLOAD PUSH32 0x118CDAA700000000000000000000000000000000000000000000000000000000 DUP2 MSTORE PUSH1 0x4 ADD PUSH2 0x1591 SWAP2 SWAP1 PUSH2 0x19F2 JUMP JUMPDEST PUSH1 0x40 MLOAD DUP1 SWAP2 SUB SWAP1 REVERT JUMPDEST JUMP JUMPDEST PUSH0 PUSH1 0x8 PUSH0 SWAP1 SLOAD SWAP1 PUSH2 0x100 EXP SWAP1 DIV PUSH20 0xFFFFFFFFFFFFFFFFFFFFFFFFFFFFFFFFFFFFFFFF AND SWAP1 POP DUP2 PUSH1 0x8 PUSH0 PUSH2 0x100 EXP DUP2 SLOAD DUP2 PUSH20 0xFFFFFFFFFFFFFFFFFFFFFFFFFFFFFFFFFFFFFFFF MUL NOT AND SWAP1 DUP4 PUSH20 0xFFFFFFFFFFFFFFFFFFFFFFFFFFFFFFFFFFFFFFFF AND MUL OR SWAP1 SSTORE POP DUP2 PUSH20 0xFFFFFFFFFFFFFFFFFFFFFFFFFFFFFFFFFFFFFFFF AND DUP2 PUSH20 0xFFFFFFFFFFFFFFFFFFFFFFFFFFFFFFFFFFFFFFFF AND PUSH32 0x8BE0079C531659141344CD1FD0A4F28419497F9722A3DAAFE3B4186F6B6457E0 PUSH1 0x40 MLOAD PUSH1 0x40 MLOAD DUP1 SWAP2 SUB SWAP1 LOG3 POP POP JUMP JUMPDEST PUSH0 DUP4 PUSH20 0xFFFFFFFFFFFFFFFFFFFFFFFFFFFFFFFFFFFFFFFF AND PUSH4 0x150B7A02 PUSH2 0x1684 PUSH2 0x1139 JUMP JUMPDEST DUP8 DUP7 DUP7 PUSH1 0x40 MLOAD DUP6 PUSH4 0xFFFFFFFF AND PUSH1 0xE0 SHL DUP2 MSTORE PUSH1 0x4 ADD PUSH2 0x16A6 SWAP5 SWAP4 SWAP3 SWAP2 SWAP1 PUSH2 0x21CC JUMP JUMPDEST PUSH1 0x20 PUSH1 0x40 MLOAD DUP1 DUP4 SUB DUP2 PUSH0 DUP8 GAS CALL SWAP3 POP POP POP DUP1 ISZERO PUSH2 0x16E1 JUMPI POP PUSH1 0x40 MLOAD RETURNDATASIZE PUSH1 0x1F NOT PUSH1 0x1F DUP3 ADD AND DUP3 ADD DUP1 PUSH1 0x40 MSTORE POP DUP2 ADD SWAP1 PUSH2 0x16DE SWAP2 SWAP1 PUSH2 0x222A JUMP JUMPDEST PUSH1 0x1 JUMPDEST PUSH2 0x1757 JUMPI RETURNDATASIZE DUP1 PUSH0 DUP2 EQ PUSH2 0x170F JUMPI PUSH1 0x40 MLOAD SWAP2 POP PUSH1 0x1F NOT PUSH1 0x3F RETURNDATASIZE ADD AND DUP3 ADD PUSH1 0x40 MSTORE RETURNDATASIZE DUP3 MSTORE RETURNDATASIZE PUSH0 PUSH1 0x20 DUP5 ADD RETURNDATACOPY PUSH2 0x1714 JUMP JUMPDEST PUSH1 0x60 SWAP2 POP JUMPDEST POP PUSH0 DUP2 MLOAD SUB PUSH2 0x174F JUMPI PUSH1 0x40 MLOAD PUSH32 0xD1A57ED600000000000000000000000000000000000000000000000000000000 DUP2 MSTORE PUSH1 0x4 ADD PUSH1 0x40 MLOAD DUP1 SWAP2 SUB SWAP1 REVERT JUMPDEST DUP1 MLOAD DUP2 PUSH1 0x20 ADD REVERT JUMPDEST PUSH4 0x150B7A02 PUSH1 0xE0 SHL PUSH28 0xFFFFFFFFFFFFFFFFFFFFFFFFFFFFFFFFFFFFFFFFFFFFFFFFFFFFFFFF NOT AND DUP2 PUSH28 0xFFFFFFFFFFFFFFFFFFFFFFFFFFFFFFFFFFFFFFFFFFFFFFFFFFFFFFFF NOT AND EQ SWAP2 POP POP SWAP5 SWAP4 POP POP POP POP JUMP JUMPDEST PUSH0 SWAP4 SWAP3 POP POP POP JUMP JUMPDEST PUSH0 PUSH1 0x1 DUP3 EQ PUSH1 0xE1 SHL SWAP1 POP SWAP2 SWAP1 POP JUMP JUMPDEST PUSH0 PUSH11 0x636F6E736F6C652E6C6F67 SWAP1 POP PUSH0 DUP1 DUP4 MLOAD PUSH1 0x20 DUP6 ADD DUP5 GAS STATICCALL POP POP POP JUMP JUMPDEST PUSH0 CALLER SWAP1 POP SWAP1 JUMP JUMPDEST PUSH0 PUSH1 0x40 MLOAD SWAP1 POP SWAP1 JUMP JUMPDEST PUSH0 DUP1 REVERT JUMPDEST PUSH0 DUP1 REVERT JUMPDEST PUSH0 PUSH32 0xFFFFFFFF00000000000000000000000000000000000000000000000000000000 DUP3 AND SWAP1 POP SWAP2 SWAP1 POP JUMP JUMPDEST PUSH2 0x182C DUP2 PUSH2 0x17F8 JUMP JUMPDEST DUP2 EQ PUSH2 0x1836 JUMPI PUSH0 DUP1 REVERT JUMPDEST POP JUMP JUMPDEST PUSH0 DUP2 CALLDATALOAD SWAP1 POP PUSH2 0x1847 DUP2 PUSH2 0x1823 JUMP JUMPDEST SWAP3 SWAP2 POP POP JUMP JUMPDEST PUSH0 PUSH1 0x20 DUP3 DUP5 SUB SLT ISZERO PUSH2 0x1862 JUMPI PUSH2 0x1861 PUSH2 0x17F0 JUMP JUMPDEST JUMPDEST PUSH0 PUSH2 0x186F DUP5 DUP3 DUP6 ADD PUSH2 0x1839 JUMP JUMPDEST SWAP2 POP POP SWAP3 SWAP2 POP POP JUMP JUMPDEST PUSH0 DUP2 ISZERO ISZERO SWAP1 POP SWAP2 SWAP1 POP JUMP JUMPDEST PUSH2 0x188C DUP2 PUSH2 0x1878 JUMP JUMPDEST DUP3 MSTORE POP POP JUMP JUMPDEST PUSH0 PUSH1 0x20 DUP3 ADD SWAP1 POP PUSH2 0x18A5 PUSH0 DUP4 ADD DUP5 PUSH2 0x1883 JUMP JUMPDEST SWAP3 SWAP2 POP POP JUMP JUMPDEST PUSH0 DUP2 MLOAD SWAP1 POP SWAP2 SWAP1 POP JUMP JUMPDEST PUSH0 DUP3 DUP3 MSTORE PUSH1 0x20 DUP3 ADD SWAP1 POP SWAP3 SWAP2 POP POP JUMP JUMPDEST PUSH0 JUMPDEST DUP4 DUP2 LT ISZERO PUSH2 0x18E2 JUMPI DUP1 DUP3 ADD MLOAD DUP2 DUP5 ADD MSTORE PUSH1 0x20 DUP2 ADD SWAP1 POP PUSH2 0x18C7 JUMP JUMPDEST PUSH0 DUP5 DUP5 ADD MSTORE POP POP POP POP JUMP JUMPDEST PUSH0 PUSH1 0x1F NOT PUSH1 0x1F DUP4 ADD AND SWAP1 POP SWAP2 SWAP1 POP JUMP JUMPDEST PUSH0 PUSH2 0x1907 DUP3 PUSH2 0x18AB JUMP JUMPDEST PUSH2 0x1911 DUP2 DUP6 PUSH2 0x18B5 JUMP JUMPDEST SWAP4 POP PUSH2 0x1921 DUP2 DUP6 PUSH1 0x20 DUP7 ADD PUSH2 0x18C5 JUMP JUMPDEST PUSH2 0x192A DUP2 PUSH2 0x18ED JUMP JUMPDEST DUP5 ADD SWAP2 POP POP SWAP3 SWAP2 POP POP JUMP JUMPDEST PUSH0 PUSH1 0x20 DUP3 ADD SWAP1 POP DUP2 DUP2 SUB PUSH0 DUP4 ADD MSTORE PUSH2 0x194D DUP2 DUP5 PUSH2 0x18FD JUMP JUMPDEST SWAP1 POP SWAP3 SWAP2 POP POP JUMP JUMPDEST PUSH0 DUP2 SWAP1 POP SWAP2 SWAP1 POP JUMP JUMPDEST PUSH2 0x1967 DUP2 PUSH2 0x1955 JUMP JUMPDEST DUP2 EQ PUSH2 0x1971 JUMPI PUSH0 DUP1 REVERT JUMPDEST POP JUMP JUMPDEST PUSH0 DUP2 CALLDATALOAD SWAP1 POP PUSH2 0x1982 DUP2 PUSH2 0x195E JUMP JUMPDEST SWAP3 SWAP2 POP POP JUMP JUMPDEST PUSH0 PUSH1 0x20 DUP3 DUP5 SUB SLT ISZERO PUSH2 0x199D JUMPI PUSH2 0x199C PUSH2 0x17F0 JUMP JUMPDEST JUMPDEST PUSH0 PUSH2 0x19AA DUP5 DUP3 DUP6 ADD PUSH2 0x1974 JUMP JUMPDEST SWAP2 POP POP SWAP3 SWAP2 POP POP JUMP JUMPDEST PUSH0 PUSH20 0xFFFFFFFFFFFFFFFFFFFFFFFFFFFFFFFFFFFFFFFF DUP3 AND SWAP1 POP SWAP2 SWAP1 POP JUMP JUMPDEST PUSH0 PUSH2 0x19DC DUP3 PUSH2 0x19B3 JUMP JUMPDEST SWAP1 POP SWAP2 SWAP1 POP JUMP JUMPDEST PUSH2 0x19EC DUP2 PUSH2 0x19D2 JUMP JUMPDEST DUP3 MSTORE POP POP JUMP JUMPDEST PUSH0 PUSH1 0x20 DUP3 ADD SWAP1 POP PUSH2 0x1A05 PUSH0 DUP4 ADD DUP5 PUSH2 0x19E3 JUMP JUMPDEST SWAP3 SWAP2 POP POP JUMP JUMPDEST PUSH2 0x1A14 DUP2 PUSH2 0x19D2 JUMP JUMPDEST DUP2 EQ PUSH2 0x1A1E JUMPI PUSH0 DUP1 REVERT JUMPDEST POP JUMP JUMPDEST PUSH0 DUP2 CALLDATALOAD SWAP1 POP PUSH2 0x1A2F DUP2 PUSH2 0x1A0B JUMP JUMPDEST SWAP3 SWAP2 POP POP JUMP JUMPDEST PUSH0 DUP1 PUSH1 0x40 DUP4 DUP6 SUB SLT ISZERO PUSH2 0x1A4B JUMPI PUSH2 0x1A4A PUSH2 0x17F0 JUMP JUMPDEST JUMPDEST PUSH0 PUSH2 0x1A58 DUP6 DUP3 DUP7 ADD PUSH2 0x1A21 JUMP JUMPDEST SWAP3 POP POP PUSH1 0x20 PUSH2 0x1A69 DUP6 DUP3 DUP7 ADD PUSH2 0x1974 JUMP JUMPDEST SWAP2 POP POP SWAP3 POP SWAP3 SWAP1 POP JUMP JUMPDEST PUSH2 0x1A7C DUP2 PUSH2 0x1955 JUMP JUMPDEST DUP3 MSTORE POP POP JUMP JUMPDEST PUSH0 PUSH1 0x20 DUP3 ADD SWAP1 POP PUSH2 0x1A95 PUSH0 DUP4 ADD DUP5 PUSH2 0x1A73 JUMP JUMPDEST SWAP3 SWAP2 POP POP JUMP JUMPDEST PUSH0 DUP1 PUSH0 PUSH1 0x60 DUP5 DUP7 SUB SLT ISZERO PUSH2 0x1AB2 JUMPI PUSH2 0x1AB1 PUSH2 0x17F0 JUMP JUMPDEST JUMPDEST PUSH0 PUSH2 0x1ABF DUP7 DUP3 DUP8 ADD PUSH2 0x1A21 JUMP JUMPDEST SWAP4 POP POP PUSH1 0x20 PUSH2 0x1AD0 DUP7 DUP3 DUP8 ADD PUSH2 0x1A21 JUMP JUMPDEST SWAP3 POP POP PUSH1 0x40 PUSH2 0x1AE1 DUP7 DUP3 DUP8 ADD PUSH2 0x1974 JUMP JUMPDEST SWAP2 POP POP SWAP3 POP SWAP3 POP SWAP3 JUMP JUMPDEST PUSH0 DUP1 REVERT JUMPDEST PUSH0 DUP1 REVERT JUMPDEST PUSH32 0x4E487B7100000000000000000000000000000000000000000000000000000000 PUSH0 MSTORE PUSH1 0x41 PUSH1 0x4 MSTORE PUSH1 0x24 PUSH0 REVERT JUMPDEST PUSH2 0x1B29 DUP3 PUSH2 0x18ED JUMP JUMPDEST DUP2 ADD DUP2 DUP2 LT PUSH8 0xFFFFFFFFFFFFFFFF DUP3 GT OR ISZERO PUSH2 0x1B48 JUMPI PUSH2 0x1B47 PUSH2 0x1AF3 JUMP JUMPDEST JUMPDEST DUP1 PUSH1 0x40 MSTORE POP POP POP JUMP JUMPDEST PUSH0 PUSH2 0x1B5A PUSH2 0x17E7 JUMP JUMPDEST SWAP1 POP PUSH2 0x1B66 DUP3 DUP3 PUSH2 0x1B20 JUMP JUMPDEST SWAP2 SWAP1 POP JUMP JUMPDEST PUSH0 PUSH8 0xFFFFFFFFFFFFFFFF DUP3 GT ISZERO PUSH2 0x1B85 JUMPI PUSH2 0x1B84 PUSH2 0x1AF3 JUMP JUMPDEST JUMPDEST PUSH2 0x1B8E DUP3 PUSH2 0x18ED JUMP JUMPDEST SWAP1 POP PUSH1 0x20 DUP2 ADD SWAP1 POP SWAP2 SWAP1 POP JUMP JUMPDEST DUP3 DUP2 DUP4 CALLDATACOPY PUSH0 DUP4 DUP4 ADD MSTORE POP POP POP JUMP JUMPDEST PUSH0 PUSH2 0x1BBB PUSH2 0x1BB6 DUP5 PUSH2 0x1B6B JUMP JUMPDEST PUSH2 0x1B51 JUMP JUMPDEST SWAP1 POP DUP3 DUP2 MSTORE PUSH1 0x20 DUP2 ADD DUP5 DUP5 DUP5 ADD GT ISZERO PUSH2 0x1BD7 JUMPI PUSH2 0x1BD6 PUSH2 0x1AEF JUMP JUMPDEST JUMPDEST PUSH2 0x1BE2 DUP5 DUP3 DUP6 PUSH2 0x1B9B JUMP JUMPDEST POP SWAP4 SWAP3 POP POP POP JUMP JUMPDEST PUSH0 DUP3 PUSH1 0x1F DUP4 ADD SLT PUSH2 0x1BFE JUMPI PUSH2 0x1BFD PUSH2 0x1AEB JUMP JUMPDEST JUMPDEST DUP2 CALLDATALOAD PUSH2 0x1C0E DUP5 DUP3 PUSH1 0x20 DUP7 ADD PUSH2 0x1BA9 JUMP JUMPDEST SWAP2 POP POP SWAP3 SWAP2 POP POP JUMP JUMPDEST PUSH0 DUP1 PUSH1 0x40 DUP4 DUP6 SUB SLT ISZERO PUSH2 0x1C2D JUMPI PUSH2 0x1C2C PUSH2 0x17F0 JUMP JUMPDEST JUMPDEST PUSH0 DUP4 ADD CALLDATALOAD PUSH8 0xFFFFFFFFFFFFFFFF DUP2 GT ISZERO PUSH2 0x1C4A JUMPI PUSH2 0x1C49 PUSH2 0x17F4 JUMP JUMPDEST JUMPDEST PUSH2 0x1C56 DUP6 DUP3 DUP7 ADD PUSH2 0x1BEA JUMP JUMPDEST SWAP3 POP POP PUSH1 0x20 PUSH2 0x1C67 DUP6 DUP3 DUP7 ADD PUSH2 0x1974 JUMP JUMPDEST SWAP2 POP POP SWAP3 POP SWAP3 SWAP1 POP JUMP JUMPDEST PUSH0 PUSH1 0x20 DUP3 DUP5 SUB SLT ISZERO PUSH2 0x1C86 JUMPI PUSH2 0x1C85 PUSH2 0x17F0 JUMP JUMPDEST JUMPDEST PUSH0 PUSH2 0x1C93 DUP5 DUP3 DUP6 ADD PUSH2 0x1A21 JUMP JUMPDEST SWAP2 POP POP SWAP3 SWAP2 POP POP JUMP JUMPDEST PUSH2 0x1CA5 DUP2 PUSH2 0x1878 JUMP JUMPDEST DUP2 EQ PUSH2 0x1CAF JUMPI PUSH0 DUP1 REVERT JUMPDEST POP JUMP JUMPDEST PUSH0 DUP2 CALLDATALOAD SWAP1 POP PUSH2 0x1CC0 DUP2 PUSH2 0x1C9C JUMP JUMPDEST SWAP3 SWAP2 POP POP JUMP JUMPDEST PUSH0 DUP1 PUSH1 0x40 DUP4 DUP6 SUB SLT ISZERO PUSH2 0x1CDC JUMPI PUSH2 0x1CDB PUSH2 0x17F0 JUMP JUMPDEST JUMPDEST PUSH0 PUSH2 0x1CE9 DUP6 DUP3 DUP7 ADD PUSH2 0x1A21 JUMP JUMPDEST SWAP3 POP POP PUSH1 0x20 PUSH2 0x1CFA DUP6 DUP3 DUP7 ADD PUSH2 0x1CB2 JUMP JUMPDEST SWAP2 POP POP SWAP3 POP SWAP3 SWAP1 POP JUMP JUMPDEST PUSH0 PUSH8 0xFFFFFFFFFFFFFFFF DUP3 GT ISZERO PUSH2 0x1D1E JUMPI PUSH2 0x1D1D PUSH2 0x1AF3 JUMP JUMPDEST JUMPDEST PUSH2 0x1D27 DUP3 PUSH2 0x18ED JUMP JUMPDEST SWAP1 POP PUSH1 0x20 DUP2 ADD SWAP1 POP SWAP2 SWAP1 POP JUMP JUMPDEST PUSH0 PUSH2 0x1D46 PUSH2 0x1D41 DUP5 PUSH2 0x1D04 JUMP JUMPDEST PUSH2 0x1B51 JUMP JUMPDEST SWAP1 POP DUP3 DUP2 MSTORE PUSH1 0x20 DUP2 ADD DUP5 DUP5 DUP5 ADD GT ISZERO PUSH2 0x1D62 JUMPI PUSH2 0x1D61 PUSH2 0x1AEF JUMP JUMPDEST JUMPDEST PUSH2 0x1D6D DUP5 DUP3 DUP6 PUSH2 0x1B9B JUMP JUMPDEST POP SWAP4 SWAP3 POP POP POP JUMP JUMPDEST PUSH0 DUP3 PUSH1 0x1F DUP4 ADD SLT PUSH2 0x1D89 JUMPI PUSH2 0x1D88 PUSH2 0x1AEB JUMP JUMPDEST JUMPDEST DUP2 CALLDATALOAD PUSH2 0x1D99 DUP5 DUP3 PUSH1 0x20 DUP7 ADD PUSH2 0x1D34 JUMP JUMPDEST SWAP2 POP POP SWAP3 SWAP2 POP POP JUMP JUMPDEST PUSH0 DUP1 PUSH0 DUP1 PUSH1 0x80 DUP6 DUP8 SUB SLT ISZERO PUSH2 0x1DBA JUMPI PUSH2 0x1DB9 PUSH2 0x17F0 JUMP JUMPDEST JUMPDEST PUSH0 PUSH2 0x1DC7 DUP8 DUP3 DUP9 ADD PUSH2 0x1A21 JUMP JUMPDEST SWAP5 POP POP PUSH1 0x20 PUSH2 0x1DD8 DUP8 DUP3 DUP9 ADD PUSH2 0x1A21 JUMP JUMPDEST SWAP4 POP POP PUSH1 0x40 PUSH2 0x1DE9 DUP8 DUP3 DUP9 ADD PUSH2 0x1974 JUMP JUMPDEST SWAP3 POP POP PUSH1 0x60 DUP6 ADD CALLDATALOAD PUSH8 0xFFFFFFFFFFFFFFFF DUP2 GT ISZERO PUSH2 0x1E0A JUMPI PUSH2 0x1E09 PUSH2 0x17F4 JUMP JUMPDEST JUMPDEST PUSH2 0x1E16 DUP8 DUP3 DUP9 ADD PUSH2 0x1D75 JUMP JUMPDEST SWAP2 POP POP SWAP3 SWAP6 SWAP2 SWAP5 POP SWAP3 POP JUMP JUMPDEST PUSH0 DUP1 PUSH1 0x40 DUP4 DUP6 SUB SLT ISZERO PUSH2 0x1E38 JUMPI PUSH2 0x1E37 PUSH2 0x17F0 JUMP JUMPDEST JUMPDEST PUSH0 PUSH2 0x1E45 DUP6 DUP3 DUP7 ADD PUSH2 0x1A21 JUMP JUMPDEST SWAP3 POP POP PUSH1 0x20 PUSH2 0x1E56 DUP6 DUP3 DUP7 ADD PUSH2 0x1A21 JUMP JUMPDEST SWAP2 POP POP SWAP3 POP SWAP3 SWAP1 POP JUMP JUMPDEST PUSH32 0x4E487B7100000000000000000000000000000000000000000000000000000000 PUSH0 MSTORE PUSH1 0x22 PUSH1 0x4 MSTORE PUSH1 0x24 PUSH0 REVERT JUMPDEST PUSH0 PUSH1 0x2 DUP3 DIV SWAP1 POP PUSH1 0x1 DUP3 AND DUP1 PUSH2 0x1EA4 JUMPI PUSH1 0x7F DUP3 AND SWAP2 POP JUMPDEST PUSH1 0x20 DUP3 LT DUP2 SUB PUSH2 0x1EB7 JUMPI PUSH2 0x1EB6 PUSH2 0x1E60 JUMP JUMPDEST JUMPDEST POP SWAP2 SWAP1 POP JUMP JUMPDEST PUSH0 DUP2 SWAP1 POP DUP2 PUSH0 MSTORE PUSH1 0x20 PUSH0 KECCAK256 SWAP1 POP SWAP2 SWAP1 POP JUMP JUMPDEST PUSH0 PUSH1 0x20 PUSH1 0x1F DUP4 ADD DIV SWAP1 POP SWAP2 SWAP1 POP JUMP JUMPDEST PUSH0 DUP3 DUP3 SHL SWAP1 POP SWAP3 SWAP2 POP POP JUMP JUMPDEST PUSH0 PUSH1 0x8 DUP4 MUL PUSH2 0x1F19 PUSH32 0xFFFFFFFFFFFFFFFFFFFFFFFFFFFFFFFFFFFFFFFFFFFFFFFFFFFFFFFFFFFFFFFF DUP3 PUSH2 0x1EDE JUMP JUMPDEST PUSH2 0x1F23 DUP7 DUP4 PUSH2 0x1EDE JUMP JUMPDEST SWAP6 POP DUP1 NOT DUP5 AND SWAP4 POP DUP1 DUP7 AND DUP5 OR SWAP3 POP POP POP SWAP4 SWAP3 POP POP POP JUMP JUMPDEST PUSH0 DUP2 SWAP1 POP SWAP2 SWAP1 POP JUMP JUMPDEST PUSH0 PUSH2 0x1F5E PUSH2 0x1F59 PUSH2 0x1F54 DUP5 PUSH2 0x1955 JUMP JUMPDEST PUSH2 0x1F3B JUMP JUMPDEST PUSH2 0x1955 JUMP JUMPDEST SWAP1 POP SWAP2 SWAP1 POP JUMP JUMPDEST PUSH0 DUP2 SWAP1 POP SWAP2 SWAP1 POP JUMP JUMPDEST PUSH2 0x1F77 DUP4 PUSH2 0x1F44 JUMP JUMPDEST PUSH2 0x1F8B PUSH2 0x1F83 DUP3 PUSH2 0x1F65 JUMP JUMPDEST DUP5 DUP5 SLOAD PUSH2 0x1EEA JUMP JUMPDEST DUP3 SSTORE POP POP POP POP JUMP JUMPDEST PUSH0 SWAP1 JUMP JUMPDEST PUSH2 0x1F9F PUSH2 0x1F93 JUMP JUMPDEST PUSH2 0x1FAA DUP2 DUP5 DUP5 PUSH2 0x1F6E JUMP JUMPDEST POP POP POP JUMP JUMPDEST JUMPDEST DUP2 DUP2 LT ISZERO PUSH2 0x1FCD JUMPI PUSH2 0x1FC2 PUSH0 DUP3 PUSH2 0x1F97 JUMP JUMPDEST PUSH1 0x1 DUP2 ADD SWAP1 POP PUSH2 0x1FB0 JUMP JUMPDEST POP POP JUMP JUMPDEST PUSH1 0x1F DUP3 GT ISZERO PUSH2 0x2012 JUMPI PUSH2 0x1FE3 DUP2 PUSH2 0x1EBD JUMP JUMPDEST PUSH2 0x1FEC DUP5 PUSH2 0x1ECF JUMP JUMPDEST DUP2 ADD PUSH1 0x20 DUP6 LT ISZERO PUSH2 0x1FFB JUMPI DUP2 SWAP1 POP JUMPDEST PUSH2 0x200F PUSH2 0x2007 DUP6 PUSH2 0x1ECF JUMP JUMPDEST DUP4 ADD DUP3 PUSH2 0x1FAF JUMP JUMPDEST POP POP JUMPDEST POP POP POP JUMP JUMPDEST PUSH0 DUP3 DUP3 SHR SWAP1 POP SWAP3 SWAP2 POP POP JUMP JUMPDEST PUSH0 PUSH2 0x2032 PUSH0 NOT DUP5 PUSH1 0x8 MUL PUSH2 0x2017 JUMP JUMPDEST NOT DUP1 DUP4 AND SWAP2 POP POP SWAP3 SWAP2 POP POP JUMP JUMPDEST PUSH0 PUSH2 0x204A DUP4 DUP4 PUSH2 0x2023 JUMP JUMPDEST SWAP2 POP DUP3 PUSH1 0x2 MUL DUP3 OR SWAP1 POP SWAP3 SWAP2 POP POP JUMP JUMPDEST PUSH2 0x2063 DUP3 PUSH2 0x18AB JUMP JUMPDEST PUSH8 0xFFFFFFFFFFFFFFFF DUP2 GT ISZERO PUSH2 0x207C JUMPI PUSH2 0x207B PUSH2 0x1AF3 JUMP JUMPDEST JUMPDEST PUSH2 0x2086 DUP3 SLOAD PUSH2 0x1E8D JUMP JUMPDEST PUSH2 0x2091 DUP3 DUP3 DUP6 PUSH2 0x1FD1 JUMP JUMPDEST PUSH0 PUSH1 0x20 SWAP1 POP PUSH1 0x1F DUP4 GT PUSH1 0x1 DUP2 EQ PUSH2 0x20C2 JUMPI PUSH0 DUP5 ISZERO PUSH2 0x20B0 JUMPI DUP3 DUP8 ADD MLOAD SWAP1 POP JUMPDEST PUSH2 0x20BA DUP6 DUP3 PUSH2 0x203F JUMP JUMPDEST DUP7 SSTORE POP PUSH2 0x2121 JUMP JUMPDEST PUSH1 0x1F NOT DUP5 AND PUSH2 0x20D0 DUP7 PUSH2 0x1EBD JUMP JUMPDEST PUSH0 JUMPDEST DUP3 DUP2 LT ISZERO PUSH2 0x20F7 JUMPI DUP5 DUP10 ADD MLOAD DUP3 SSTORE PUSH1 0x1 DUP3 ADD SWAP2 POP PUSH1 0x20 DUP6 ADD SWAP5 POP PUSH1 0x20 DUP2 ADD SWAP1 POP PUSH2 0x20D2 JUMP JUMPDEST DUP7 DUP4 LT ISZERO PUSH2 0x2114 JUMPI DUP5 DUP10 ADD MLOAD PUSH2 0x2110 PUSH1 0x1F DUP10 AND DUP3 PUSH2 0x2023 JUMP JUMPDEST DUP4 SSTORE POP JUMPDEST PUSH1 0x1 PUSH1 0x2 DUP9 MUL ADD DUP9 SSTORE POP POP POP JUMPDEST POP POP POP POP POP POP JUMP JUMPDEST PUSH0 PUSH1 0x80 DUP3 ADD SWAP1 POP DUP2 DUP2 SUB PUSH0 DUP4 ADD MSTORE PUSH2 0x2141 DUP2 DUP8 PUSH2 0x18FD JUMP JUMPDEST SWAP1 POP PUSH2 0x2150 PUSH1 0x20 DUP4 ADD DUP7 PUSH2 0x1A73 JUMP JUMPDEST DUP2 DUP2 SUB PUSH1 0x40 DUP4 ADD MSTORE PUSH2 0x2162 DUP2 DUP6 PUSH2 0x18FD JUMP JUMPDEST SWAP1 POP PUSH2 0x2171 PUSH1 0x60 DUP4 ADD DUP5 PUSH2 0x19E3 JUMP JUMPDEST SWAP6 SWAP5 POP POP POP POP POP JUMP JUMPDEST PUSH0 DUP2 MLOAD SWAP1 POP SWAP2 SWAP1 POP JUMP JUMPDEST PUSH0 DUP3 DUP3 MSTORE PUSH1 0x20 DUP3 ADD SWAP1 POP SWAP3 SWAP2 POP POP JUMP JUMPDEST PUSH0 PUSH2 0x219E DUP3 PUSH2 0x217A JUMP JUMPDEST PUSH2 0x21A8 DUP2 DUP6 PUSH2 0x2184 JUMP JUMPDEST SWAP4 POP PUSH2 0x21B8 DUP2 DUP6 PUSH1 0x20 DUP7 ADD PUSH2 0x18C5 JUMP JUMPDEST PUSH2 0x21C1 DUP2 PUSH2 0x18ED JUMP JUMPDEST DUP5 ADD SWAP2 POP POP SWAP3 SWAP2 POP POP JUMP JUMPDEST PUSH0 PUSH1 0x80 DUP3 ADD SWAP1 POP PUSH2 0x21DF PUSH0 DUP4 ADD DUP8 PUSH2 0x19E3 JUMP JUMPDEST PUSH2 0x21EC PUSH1 0x20 DUP4 ADD DUP7 PUSH2 0x19E3 JUMP JUMPDEST PUSH2 0x21F9 PUSH1 0x40 DUP4 ADD DUP6 PUSH2 0x1A73 JUMP JUMPDEST DUP2 DUP2 SUB PUSH1 0x60 DUP4 ADD MSTORE PUSH2 0x220B DUP2 DUP5 PUSH2 0x2194 JUMP JUMPDEST SWAP1 POP SWAP6 SWAP5 POP POP POP POP POP JUMP JUMPDEST PUSH0 DUP2 MLOAD SWAP1 POP PUSH2 0x2224 DUP2 PUSH2 0x1823 JUMP JUMPDEST SWAP3 SWAP2 POP POP JUMP JUMPDEST PUSH0 PUSH1 0x20 DUP3 DUP5 SUB SLT ISZERO PUSH2 0x223F JUMPI PUSH2 0x223E PUSH2 0x17F0 JUMP JUMPDEST JUMPDEST PUSH0 PUSH2 0x224C DUP5 DUP3 DUP6 ADD PUSH2 0x2216 JUMP JUMPDEST SWAP2 POP POP SWAP3 SWAP2 POP POP JUMP INVALID LOG2 PUSH5 0x6970667358 0x22 SLT KECCAK256 PUSH25 0xAC96FA69684AA38DBE9D763D71469CB905CE3FD8CACB2942FE PUSH20 0xE8164444AF64736F6C6343000815003300000000 "},"methodIdentifiers":{"approve(address,uint256)":"095ea7b3","balanceOf(address)":"70a08231","getApproved(uint256)":"081812fc","isApprovedForAll(address,address)":"e985e9c5","mint(address,uint256)":"40c10f19","name()":"06fdde03","owner()":"8da5cb5b","ownerOf(uint256)":"6352211e","renounceOwnership()":"715018a6","safeTransferFrom(address,address,uint256)":"42842e0e","safeTransferFrom(address,address,uint256,bytes)":"b88d4fde","setApprovalForAll(address,bool)":"a22cb465","setURI(string,uint256)":"67db3b8f","supportsInterface(bytes4)":"01ffc9a7","symbol()":"95d89b41","tokenURI(uint256)":"c87b56dd","totalSupply()":"18160ddd","transferFrom(address,address,uint256)":"23b872dd","transferOwnership(address)":"f2fde38b","updatePrompt(string,uint256)":"be9eb325"}}}}}