{"contracts/CoderNFT.sol":{"CoderNFT":{"abi":[{"inputs":[{"internalType":"string","name":"name","type":"string"},{"internalType":"string","name":"symbol","type":"string"}],"stateMutability":"nonpayable","type":"constructor"},{"inputs":[],"name":"ApprovalCallerNotOwnerNorApproved","type":"error"},{"inputs":[],"name":"ApprovalQueryForNonexistentToken","type":"error"},{"inputs":[],"name":"BalanceQueryForZeroAddress","type":"error"},{"inputs":[],"name":"MintERC2309QuantityExceedsLimit","type":"error"},{"inputs":[],"name":"MintToZeroAddress","type":"error"},{"inputs":[],"name":"MintZeroQuantity","type":"error"},{"inputs":[{"internalType":"address","name":"owner","type":"address"}],"name":"OwnableInvalidOwner","type":"error"},{"inputs":[{"internalType":"address","name":"account","type":"address"}],"name":"OwnableUnauthorizedAccount","type":"error"},{"inputs":[],"name":"OwnerQueryForNonexistentToken","type":"error"},{"inputs":[],"name":"OwnershipNotInitializedForExtraData","type":"error"},{"inputs":[],"name":"TransferCallerNotOwnerNorApproved","type":"error"},{"inputs":[],"name":"TransferFromIncorrectOwner","type":"error"},{"inputs":[],"name":"TransferToNonERC721ReceiverImplementer","type":"error"},{"inputs":[],"name":"TransferToZeroAddress","type":"error"},{"inputs":[],"name":"URIQueryForNonexistentToken","type":"error"},{"anonymous":false,"inputs":[{"indexed":true,"internalType":"address","name":"owner","type":"address"},{"indexed":true,"internalType":"address","name":"approved","type":"address"},{"indexed":true,"internalType":"uint256","name":"tokenId","type":"uint256"}],"name":"Approval","type":"event"},{"anonymous":false,"inputs":[{"indexed":true,"internalType":"address","name":"owner","type":"address"},{"indexed":true,"internalType":"address","name":"operator","type":"address"},{"indexed":false,"internalType":"bool","name":"approved","type":"bool"}],"name":"ApprovalForAll","type":"event"},{"anonymous":false,"inputs":[{"indexed":true,"internalType":"uint256","name":"fromTokenId","type":"uint256"},{"indexed":false,"internalType":"uint256","name":"toTokenId","type":"uint256"},{"indexed":true,"internalType":"address","name":"from","type":"address"},{"indexed":true,"internalType":"address","name":"to","type":"address"}],"name":"ConsecutiveTransfer","type":"event"},{"anonymous":false,"inputs":[{"indexed":true,"internalType":"address","name":"previousOwner","type":"address"},{"indexed":true,"internalType":"address","name":"newOwner","type":"address"}],"name":"OwnershipTransferred","type":"event"},{"anonymous":false,"inputs":[{"indexed":true,"internalType":"address","name":"from","type":"address"},{"indexed":true,"internalType":"address","name":"to","type":"address"},{"indexed":true,"internalType":"uint256","name":"tokenId","type":"uint256"}],"name":"Transfer","type":"event"},{"inputs":[{"internalType":"address","name":"to","type":"address"},{"internalType":"uint256","name":"tokenId","type":"uint256"}],"name":"approve","outputs":[],"stateMutability":"payable","type":"function"},{"inputs":[{"internalType":"address","name":"owner","type":"address"}],"name":"balanceOf","outputs":[{"internalType":"uint256","name":"","type":"uint256"}],"stateMutability":"view","type":"function"},{"inputs":[{"internalType":"uint256","name":"tokenId","type":"uint256"}],"name":"getApproved","outputs":[{"internalType":"address","name":"","type":"address"}],"stateMutability":"view","type":"function"},{"inputs":[{"internalType":"address","name":"owner","type":"address"},{"internalType":"address","name":"operator","type":"address"}],"name":"isApprovedForAll","outputs":[{"internalType":"bool","name":"","type":"bool"}],"stateMutability":"view","type":"function"},{"inputs":[{"internalType":"address","name":"to","type":"address"},{"internalType":"uint256","name":"quantity","type":"uint256"}],"name":"mint","outputs":[],"stateMutability":"nonpayable","type":"function"},{"inputs":[],"name":"name","outputs":[{"internalType":"string","name":"","type":"string"}],"stateMutability":"view","type":"function"},{"inputs":[],"name":"owner","outputs":[{"internalType":"address","name":"","type":"address"}],"stateMutability":"view","type":"function"},{"inputs":[{"internalType":"uint256","name":"tokenId","type":"uint256"}],"name":"ownerOf","outputs":[{"internalType":"address","name":"","type":"address"}],"stateMutability":"view","type":"function"},{"inputs":[],"name":"renounceOwnership","outputs":[],"stateMutability":"nonpayable","type":"function"},{"inputs":[{"internalType":"address","name":"from","type":"address"},{"internalType":"address","name":"to","type":"address"},{"internalType":"uint256","name":"tokenId","type":"uint256"}],"name":"safeTransferFrom","outputs":[],"stateMutability":"payable","type":"function"},{"inputs":[{"internalType":"address","name":"from","type":"address"},{"internalType":"address","name":"to","type":"address"},{"internalType":"uint256","name":"tokenId","type":"uint256"},{"internalType":"bytes","name":"_data","type":"bytes"}],"name":"safeTransferFrom","outputs":[],"stateMutability":"payable","type":"function"},{"inputs":[{"internalType":"address","name":"operator","type":"address"},{"internalType":"bool","name":"approved","type":"bool"}],"name":"setApprovalForAll","outputs":[],"stateMutability":"nonpayable","type":"function"},{"inputs":[{"internalType":"string","name":"uri","type":"string"},{"internalType":"uint256","name":"tokenId","type":"uint256"}],"name":"setURI","outputs":[],"stateMutability":"nonpayable","type":"function"},{"inputs":[{"internalType":"bytes4","name":"interfaceId","type":"bytes4"}],"name":"supportsInterface","outputs":[{"internalType":"bool","name":"","type":"bool"}],"stateMutability":"view","type":"function"},{"inputs":[],"name":"symbol","outputs":[{"internalType":"string","name":"","type":"string"}],"stateMutability":"view","type":"function"},{"inputs":[{"internalType":"uint256","name":"tokenId","type":"uint256"}],"name":"tokenURI","outputs":[{"internalType":"string","name":"","type":"string"}],"stateMutability":"view","type":"function"},{"inputs":[],"name":"totalSupply","outputs":[{"internalType":"uint256","name":"","type":"uint256"}],"stateMutability":"view","type":"function"},{"inputs":[{"internalType":"address","name":"from","type":"address"},{"internalType":"address","name":"to","type":"address"},{"internalType":"uint256","name":"tokenId","type":"uint256"}],"name":"transferFrom","outputs":[],"stateMutability":"payable","type":"function"},{"inputs":[{"internalType":"address","name":"newOwner","type":"address"}],"name":"transferOwnership","outputs":[],"stateMutability":"nonpayable","type":"function"},{"inputs":[{"internalType":"string","name":"prmpt","type":"string"},{"internalType":"uint256","name":"tokenId","type":"uint256"}],"name":"updatePrompt","outputs":[],"stateMutability":"nonpayable","type":"function"}],"evm":{"bytecode":{"linkReferences":{},"object":"608060405234801562000010575f80fd5b5060405162002a5f38038062002a5f83398181016040528101906200003691906200034d565b33828281600290816200004a919062000607565b5080600390816200005c919062000607565b506200006d6200010160201b60201c565b5f8190555050505f73ffffffffffffffffffffffffffffffffffffffff168173ffffffffffffffffffffffffffffffffffffffff1603620000e7575f6040517f1e4fbdf7000000000000000000000000000000000000000000000000000000008152600401620000de91906200072e565b60405180910390fd5b620000f8816200010560201b60201c565b50505062000749565b5f90565b5f60085f9054906101000a900473ffffffffffffffffffffffffffffffffffffffff1690508160085f6101000a81548173ffffffffffffffffffffffffffffffffffffffff021916908373ffffffffffffffffffffffffffffffffffffffff1602179055508173ffffffffffffffffffffffffffffffffffffffff168173ffffffffffffffffffffffffffffffffffffffff167f8be0079c531659141344cd1fd0a4f28419497f9722a3daafe3b4186f6b6457e060405160405180910390a35050565b5f604051905090565b5f80fd5b5f80fd5b5f80fd5b5f80fd5b5f601f19601f8301169050919050565b7f4e487b71000000000000000000000000000000000000000000000000000000005f52604160045260245ffd5b6200022982620001e1565b810181811067ffffffffffffffff821117156200024b576200024a620001f1565b5b80604052505050565b5f6200025f620001c8565b90506200026d82826200021e565b919050565b5f67ffffffffffffffff8211156200028f576200028e620001f1565b5b6200029a82620001e1565b9050602081019050919050565b5f5b83811015620002c6578082015181840152602081019050620002a9565b5f8484015250505050565b5f620002e7620002e18462000272565b62000254565b905082815260208101848484011115620003065762000305620001dd565b5b62000313848285620002a7565b509392505050565b5f82601f830112620003325762000331620001d9565b5b815162000344848260208601620002d1565b91505092915050565b5f8060408385031215620003665762000365620001d1565b5b5f83015167ffffffffffffffff811115620003865762000385620001d5565b5b62000394858286016200031b565b925050602083015167ffffffffffffffff811115620003b857620003b7620001d5565b5b620003c6858286016200031b565b9150509250929050565b5f81519050919050565b7f4e487b71000000000000000000000000000000000000000000000000000000005f52602260045260245ffd5b5f60028204905060018216806200041f57607f821691505b602082108103620004355762000434620003da565b5b50919050565b5f819050815f5260205f209050919050565b5f6020601f8301049050919050565b5f82821b905092915050565b5f60088302620004997fffffffffffffffffffffffffffffffffffffffffffffffffffffffffffffffff826200045c565b620004a586836200045c565b95508019841693508086168417925050509392505050565b5f819050919050565b5f819050919050565b5f620004ef620004e9620004e384620004bd565b620004c6565b620004bd565b9050919050565b5f819050919050565b6200050a83620004cf565b620005226200051982620004f6565b84845462000468565b825550505050565b5f90565b620005386200052a565b62000545818484620004ff565b505050565b5b818110156200056c57620005605f826200052e565b6001810190506200054b565b5050565b601f821115620005bb5762000585816200043b565b62000590846200044d565b81016020851015620005a0578190505b620005b8620005af856200044d565b8301826200054a565b50505b505050565b5f82821c905092915050565b5f620005dd5f1984600802620005c0565b1980831691505092915050565b5f620005f78383620005cc565b9150826002028217905092915050565b6200061282620003d0565b67ffffffffffffffff8111156200062e576200062d620001f1565b5b6200063a825462000407565b6200064782828562000570565b5f60209050601f8311600181146200067d575f841562000668578287015190505b620006748582620005ea565b865550620006e3565b601f1984166200068d866200043b565b5f5b82811015620006b6578489015182556001820191506020850194506020810190506200068f565b86831015620006d65784890151620006d2601f891682620005cc565b8355505b6001600288020188555050505b505050505050565b5f73ffffffffffffffffffffffffffffffffffffffff82169050919050565b5f6200071682620006eb565b9050919050565b62000728816200070a565b82525050565b5f602082019050620007435f8301846200071d565b92915050565b61230880620007575f395ff3fe60806040526004361061011e575f3560e01c806370a082311161009f578063b88d4fde11610063578063b88d4fde1461039c578063be9eb325146103b8578063c87b56dd146103e0578063e985e9c51461041c578063f2fde38b146104585761011e565b806370a08231146102ce578063715018a61461030a5780638da5cb5b1461032057806395d89b411461034a578063a22cb465146103745761011e565b806323b872dd116100e657806323b872dd1461020a57806340c10f191461022657806342842e0e1461024e5780636352211e1461026a57806367db3b8f146102a65761011e565b806301ffc9a71461012257806306fdde031461015e578063081812fc14610188578063095ea7b3146101c457806318160ddd146101e0575b5f80fd5b34801561012d575f80fd5b506101486004803603810190610143919061186d565b610480565b60405161015591906118b2565b60405180910390f35b348015610169575f80fd5b50610172610511565b60405161017f9190611955565b60405180910390f35b348015610193575f80fd5b506101ae60048036038101906101a991906119a8565b6105a1565b6040516101bb9190611a12565b60405180910390f35b6101de60048036038101906101d99190611a55565b61061b565b005b3480156101eb575f80fd5b506101f461075a565b6040516102019190611aa2565b60405180910390f35b610224600480360381019061021f9190611abb565b61076f565b005b348015610231575f80fd5b5061024c60048036038101906102479190611a55565b610a7d565b005b61026860048036038101906102639190611abb565b610b01565b005b348015610275575f80fd5b50610290600480360381019061028b91906119a8565b610b20565b60405161029d9190611a12565b60405180910390f35b3480156102b1575f80fd5b506102cc60048036038101906102c79190611c37565b610b31565b005b3480156102d9575f80fd5b506102f460048036038101906102ef9190611c91565b610b93565b6040516103019190611aa2565b60405180910390f35b348015610315575f80fd5b5061031e610c48565b005b34801561032b575f80fd5b50610334610c5b565b6040516103419190611a12565b60405180910390f35b348015610355575f80fd5b5061035e610c83565b60405161036b9190611955565b60405180910390f35b34801561037f575f80fd5b5061039a60048036038101906103959190611ce6565b610d13565b005b6103b660048036038101906103b19190611dc2565b610e19565b005b3480156103c3575f80fd5b506103de60048036038101906103d99190611c37565b610e8b565b005b3480156103eb575f80fd5b50610406600480360381019061040191906119a8565b610eed565b6040516104139190611955565b60405180910390f35b348015610427575f80fd5b50610442600480360381019061043d9190611e42565b610f88565b60405161044f91906118b2565b60405180910390f35b348015610463575f80fd5b5061047e60048036038101906104799190611c91565b611016565b005b5f6301ffc9a760e01b827bffffffffffffffffffffffffffffffffffffffffffffffffffffffff191614806104da57506380ac58cd60e01b827bffffffffffffffffffffffffffffffffffffffffffffffffffffffff1916145b8061050a5750635b5e139f60e01b827bffffffffffffffffffffffffffffffffffffffffffffffffffffffff1916145b9050919050565b60606002805461052090611ead565b80601f016020809104026020016040519081016040528092919081815260200182805461054c90611ead565b80156105975780601f1061056e57610100808354040283529160200191610597565b820191905f5260205f20905b81548152906001019060200180831161057a57829003601f168201915b5050505050905090565b5f6105ab8261109a565b6105e1576040517fcf4700e400000000000000000000000000000000000000000000000000000000815260040160405180910390fd5b60065f8381526020019081526020015f205f015f9054906101000a900473ffffffffffffffffffffffffffffffffffffffff169050919050565b5f61062582610b20565b90508073ffffffffffffffffffffffffffffffffffffffff166106466110f4565b73ffffffffffffffffffffffffffffffffffffffff16146106a9576106728161066d6110f4565b610f88565b6106a8576040517fcfb3b94200000000000000000000000000000000000000000000000000000000815260040160405180910390fd5b5b8260065f8481526020019081526020015f205f015f6101000a81548173ffffffffffffffffffffffffffffffffffffffff021916908373ffffffffffffffffffffffffffffffffffffffff160217905550818373ffffffffffffffffffffffffffffffffffffffff168273ffffffffffffffffffffffffffffffffffffffff167f8c5be1e5ebec7d5bd14f71427d1e84f3dd0314c0f7b2291e5b200ac8c7c3b92560405160405180910390a4505050565b5f6107636110fb565b6001545f540303905090565b5f610779826110ff565b90508373ffffffffffffffffffffffffffffffffffffffff168173ffffffffffffffffffffffffffffffffffffffff16146107e0576040517fa114810000000000000000000000000000000000000000000000000000000000815260040160405180910390fd5b5f806107eb846111c2565b9150915061080181876107fc6110f4565b6111e5565b61084d57610816866108116110f4565b610f88565b61084c576040517f59c896be00000000000000000000000000000000000000000000000000000000815260040160405180910390fd5b5b5f73ffffffffffffffffffffffffffffffffffffffff168573ffffffffffffffffffffffffffffffffffffffff16036108b2576040517fea553b3400000000000000000000000000000000000000000000000000000000815260040160405180910390fd5b6108bf8686866001611228565b80156108c9575f82555b60055f8773ffffffffffffffffffffffffffffffffffffffff1673ffffffffffffffffffffffffffffffffffffffff1681526020019081526020015f205f8154600190039190508190555060055f8673ffffffffffffffffffffffffffffffffffffffff1673ffffffffffffffffffffffffffffffffffffffff1681526020019081526020015f205f8154600101919050819055506109918561096d88888761122e565b7c020000000000000000000000000000000000000000000000000000000017611255565b60045f8681526020019081526020015f20819055505f7c0200000000000000000000000000000000000000000000000000000000841603610a0d575f6001850190505f60045f8381526020019081526020015f205403610a0b575f548114610a0a578360045f8381526020019081526020015f20819055505b5b505b838573ffffffffffffffffffffffffffffffffffffffff168773ffffffffffffffffffffffffffffffffffffffff167fddf252ad1be2c89b69c2b068fc378daa952ba7f163c4a11628f55a4df523b3ef60405160405180910390a4610a75868686600161127f565b505050505050565b610a878282611285565b610afd6040518060400160405280601481526020017f7375636365737366756c6c79206d696e74656420000000000000000000000000815250826040518060400160405280600981526020017f206e66747320746f2000000000000000000000000000000000000000000000008152508561142e565b5050565b610b1b83838360405180602001604052805f815250610e19565b505050565b5f610b2a826110ff565b9050919050565b610b3a8161109a565b610b70576040517fa14c4b5000000000000000000000000000000000000000000000000000000000815260040160405180910390fd5b8160095f8381526020019081526020015f209081610b8e919061207a565b505050565b5f8073ffffffffffffffffffffffffffffffffffffffff168273ffffffffffffffffffffffffffffffffffffffff1603610bf9576040517f8f4eb60400000000000000000000000000000000000000000000000000000000815260040160405180910390fd5b67ffffffffffffffff60055f8473ffffffffffffffffffffffffffffffffffffffff1673ffffffffffffffffffffffffffffffffffffffff1681526020019081526020015f2054169050919050565b610c506114d0565b610c595f611557565b565b5f60085f9054906101000a900473ffffffffffffffffffffffffffffffffffffffff16905090565b606060038054610c9290611ead565b80601f0160208091040260200160405190810160405280929190818152602001828054610cbe90611ead565b8015610d095780601f10610ce057610100808354040283529160200191610d09565b820191905f5260205f20905b815481529060010190602001808311610cec57829003601f168201915b5050505050905090565b8060075f610d1f6110f4565b73ffffffffffffffffffffffffffffffffffffffff1673ffffffffffffffffffffffffffffffffffffffff1681526020019081526020015f205f8473ffffffffffffffffffffffffffffffffffffffff1673ffffffffffffffffffffffffffffffffffffffff1681526020019081526020015f205f6101000a81548160ff0219169083151502179055508173ffffffffffffffffffffffffffffffffffffffff16610dc86110f4565b73ffffffffffffffffffffffffffffffffffffffff167f17307eab39ab6107e8899845ad3d59bd9653f200f220920489ca2b5937696c3183604051610e0d91906118b2565b60405180910390a35050565b610e2484848461076f565b5f8373ffffffffffffffffffffffffffffffffffffffff163b14610e8557610e4e8484848461161a565b610e84576040517fd1a57ed600000000000000000000000000000000000000000000000000000000815260040160405180910390fd5b5b50505050565b610e948161109a565b610eca576040517fa14c4b5000000000000000000000000000000000000000000000000000000000815260040160405180910390fd5b81600a5f8381526020019081526020015f209081610ee8919061207a565b505050565b6060610ef88261109a565b610f2e576040517fa14c4b5000000000000000000000000000000000000000000000000000000000815260040160405180910390fd5b5f610f37611765565b90505f815103610f555760405180602001604052805f815250610f80565b80610f5f8461177b565b604051602001610f70929190612183565b6040516020818303038152906040525b915050919050565b5f60075f8473ffffffffffffffffffffffffffffffffffffffff1673ffffffffffffffffffffffffffffffffffffffff1681526020019081526020015f205f8373ffffffffffffffffffffffffffffffffffffffff1673ffffffffffffffffffffffffffffffffffffffff1681526020019081526020015f205f9054906101000a900460ff16905092915050565b61101e6114d0565b5f73ffffffffffffffffffffffffffffffffffffffff168173ffffffffffffffffffffffffffffffffffffffff160361108e575f6040517f1e4fbdf70000000000000000000000000000000000000000000000000000000081526004016110859190611a12565b60405180910390fd5b61109781611557565b50565b5f816110a46110fb565b111580156110b257505f5482105b80156110ed57505f7c010000000000000000000000000000000000000000000000000000000060045f8581526020019081526020015f205416145b9050919050565b5f33905090565b5f90565b5f808290508061110d6110fb565b1161118b575f5481101561118a575f60045f8381526020019081526020015f205490505f7c0100000000000000000000000000000000000000000000000000000000821603611188575b5f810361117e5760045f836001900393508381526020019081526020015f20549050611157565b80925050506111bd565b505b5b6040517fdf2d9b4200000000000000000000000000000000000000000000000000000000815260040160405180910390fd5b919050565b5f805f60065f8581526020019081526020015f2090508092508254915050915091565b5f73ffffffffffffffffffffffffffffffffffffffff8316925073ffffffffffffffffffffffffffffffffffffffff821691508382148383141790509392505050565b50505050565b5f8060e883901c905060e86112448686846117ca565b62ffffff16901b9150509392505050565b5f73ffffffffffffffffffffffffffffffffffffffff83169250814260a01b178317905092915050565b50505050565b5f805490505f82036112c3576040517fb562e8dd00000000000000000000000000000000000000000000000000000000815260040160405180910390fd5b6112cf5f848385611228565b600160406001901b17820260055f8573ffffffffffffffffffffffffffffffffffffffff1673ffffffffffffffffffffffffffffffffffffffff1681526020019081526020015f205f8282540192505081905550611341836113325f865f61122e565b61133b856117d2565b17611255565b60045f8381526020019081526020015f20819055505f80838301905073ffffffffffffffffffffffffffffffffffffffff8516915082825f7fddf252ad1be2c89b69c2b068fc378daa952ba7f163c4a11628f55a4df523b3ef5f80a4600183015b8181146113db5780835f7fddf252ad1be2c89b69c2b068fc378daa952ba7f163c4a11628f55a4df523b3ef5f80a46001810190506113a2565b505f8203611415576040517f2e07630000000000000000000000000000000000000000000000000000000000815260040160405180910390fd5b805f8190555050506114295f84838561127f565b505050565b6114ca8484848460405160240161144894939291906121a6565b6040516020818303038152906040527f7c4632a4000000000000000000000000000000000000000000000000000000007bffffffffffffffffffffffffffffffffffffffffffffffffffffffff19166020820180517bffffffffffffffffffffffffffffffffffffffffffffffffffffffff83818316178352505050506117e1565b50505050565b6114d8611800565b73ffffffffffffffffffffffffffffffffffffffff166114f6610c5b565b73ffffffffffffffffffffffffffffffffffffffff161461155557611519611800565b6040517f118cdaa700000000000000000000000000000000000000000000000000000000815260040161154c9190611a12565b60405180910390fd5b565b5f60085f9054906101000a900473ffffffffffffffffffffffffffffffffffffffff1690508160085f6101000a81548173ffffffffffffffffffffffffffffffffffffffff021916908373ffffffffffffffffffffffffffffffffffffffff1602179055508173ffffffffffffffffffffffffffffffffffffffff168173ffffffffffffffffffffffffffffffffffffffff167f8be0079c531659141344cd1fd0a4f28419497f9722a3daafe3b4186f6b6457e060405160405180910390a35050565b5f8373ffffffffffffffffffffffffffffffffffffffff1663150b7a0261163f6110f4565b8786866040518563ffffffff1660e01b81526004016116619493929190612249565b6020604051808303815f875af192505050801561169c57506040513d601f19601f8201168201806040525081019061169991906122a7565b60015b611712573d805f81146116ca576040519150601f19603f3d011682016040523d82523d5f602084013e6116cf565b606091505b505f81510361170a576040517fd1a57ed600000000000000000000000000000000000000000000000000000000815260040160405180910390fd5b805181602001fd5b63150b7a0260e01b7bffffffffffffffffffffffffffffffffffffffffffffffffffffffff1916817bffffffffffffffffffffffffffffffffffffffffffffffffffffffff191614915050949350505050565b606060405180602001604052805f815250905090565b606060a060405101806040526020810391505f825281835b6001156117b557600184039350600a81066030018453600a8104905080611793575b50828103602084039350808452505050919050565b5f9392505050565b5f6001821460e11b9050919050565b5f6a636f6e736f6c652e6c6f6790505f80835160208501845afa505050565b5f33905090565b5f604051905090565b5f80fd5b5f80fd5b5f7fffffffff0000000000000000000000000000000000000000000000000000000082169050919050565b61184c81611818565b8114611856575f80fd5b50565b5f8135905061186781611843565b92915050565b5f6020828403121561188257611881611810565b5b5f61188f84828501611859565b91505092915050565b5f8115159050919050565b6118ac81611898565b82525050565b5f6020820190506118c55f8301846118a3565b92915050565b5f81519050919050565b5f82825260208201905092915050565b5f5b838110156119025780820151818401526020810190506118e7565b5f8484015250505050565b5f601f19601f8301169050919050565b5f611927826118cb565b61193181856118d5565b93506119418185602086016118e5565b61194a8161190d565b840191505092915050565b5f6020820190508181035f83015261196d818461191d565b905092915050565b5f819050919050565b61198781611975565b8114611991575f80fd5b50565b5f813590506119a28161197e565b92915050565b5f602082840312156119bd576119bc611810565b5b5f6119ca84828501611994565b91505092915050565b5f73ffffffffffffffffffffffffffffffffffffffff82169050919050565b5f6119fc826119d3565b9050919050565b611a0c816119f2565b82525050565b5f602082019050611a255f830184611a03565b92915050565b611a34816119f2565b8114611a3e575f80fd5b50565b5f81359050611a4f81611a2b565b92915050565b5f8060408385031215611a6b57611a6a611810565b5b5f611a7885828601611a41565b9250506020611a8985828601611994565b9150509250929050565b611a9c81611975565b82525050565b5f602082019050611ab55f830184611a93565b92915050565b5f805f60608486031215611ad257611ad1611810565b5b5f611adf86828701611a41565b9350506020611af086828701611a41565b9250506040611b0186828701611994565b9150509250925092565b5f80fd5b5f80fd5b7f4e487b71000000000000000000000000000000000000000000000000000000005f52604160045260245ffd5b611b498261190d565b810181811067ffffffffffffffff82111715611b6857611b67611b13565b5b80604052505050565b5f611b7a611807565b9050611b868282611b40565b919050565b5f67ffffffffffffffff821115611ba557611ba4611b13565b5b611bae8261190d565b9050602081019050919050565b828183375f83830152505050565b5f611bdb611bd684611b8b565b611b71565b905082815260208101848484011115611bf757611bf6611b0f565b5b611c02848285611bbb565b509392505050565b5f82601f830112611c1e57611c1d611b0b565b5b8135611c2e848260208601611bc9565b91505092915050565b5f8060408385031215611c4d57611c4c611810565b5b5f83013567ffffffffffffffff811115611c6a57611c69611814565b5b611c7685828601611c0a565b9250506020611c8785828601611994565b9150509250929050565b5f60208284031215611ca657611ca5611810565b5b5f611cb384828501611a41565b91505092915050565b611cc581611898565b8114611ccf575f80fd5b50565b5f81359050611ce081611cbc565b92915050565b5f8060408385031215611cfc57611cfb611810565b5b5f611d0985828601611a41565b9250506020611d1a85828601611cd2565b9150509250929050565b5f67ffffffffffffffff821115611d3e57611d3d611b13565b5b611d478261190d565b9050602081019050919050565b5f611d66611d6184611d24565b611b71565b905082815260208101848484011115611d8257611d81611b0f565b5b611d8d848285611bbb565b509392505050565b5f82601f830112611da957611da8611b0b565b5b8135611db9848260208601611d54565b91505092915050565b5f805f8060808587031215611dda57611dd9611810565b5b5f611de787828801611a41565b9450506020611df887828801611a41565b9350506040611e0987828801611994565b925050606085013567ffffffffffffffff811115611e2a57611e29611814565b5b611e3687828801611d95565b91505092959194509250565b5f8060408385031215611e5857611e57611810565b5b5f611e6585828601611a41565b9250506020611e7685828601611a41565b9150509250929050565b7f4e487b71000000000000000000000000000000000000000000000000000000005f52602260045260245ffd5b5f6002820490506001821680611ec457607f821691505b602082108103611ed757611ed6611e80565b5b50919050565b5f819050815f5260205f209050919050565b5f6020601f8301049050919050565b5f82821b905092915050565b5f60088302611f397fffffffffffffffffffffffffffffffffffffffffffffffffffffffffffffffff82611efe565b611f438683611efe565b95508019841693508086168417925050509392505050565b5f819050919050565b5f611f7e611f79611f7484611975565b611f5b565b611975565b9050919050565b5f819050919050565b611f9783611f64565b611fab611fa382611f85565b848454611f0a565b825550505050565b5f90565b611fbf611fb3565b611fca818484611f8e565b505050565b5b81811015611fed57611fe25f82611fb7565b600181019050611fd0565b5050565b601f8211156120325761200381611edd565b61200c84611eef565b8101602085101561201b578190505b61202f61202785611eef565b830182611fcf565b50505b505050565b5f82821c905092915050565b5f6120525f1984600802612037565b1980831691505092915050565b5f61206a8383612043565b9150826002028217905092915050565b612083826118cb565b67ffffffffffffffff81111561209c5761209b611b13565b5b6120a68254611ead565b6120b1828285611ff1565b5f60209050601f8311600181146120e2575f84156120d0578287015190505b6120da858261205f565b865550612141565b601f1984166120f086611edd565b5f5b82811015612117578489015182556001820191506020850194506020810190506120f2565b868310156121345784890151612130601f891682612043565b8355505b6001600288020188555050505b505050505050565b5f81905092915050565b5f61215d826118cb565b6121678185612149565b93506121778185602086016118e5565b80840191505092915050565b5f61218e8285612153565b915061219a8284612153565b91508190509392505050565b5f6080820190508181035f8301526121be818761191d565b90506121cd6020830186611a93565b81810360408301526121df818561191d565b90506121ee6060830184611a03565b95945050505050565b5f81519050919050565b5f82825260208201905092915050565b5f61221b826121f7565b6122258185612201565b93506122358185602086016118e5565b61223e8161190d565b840191505092915050565b5f60808201905061225c5f830187611a03565b6122696020830186611a03565b6122766040830185611a93565b81810360608301526122888184612211565b905095945050505050565b5f815190506122a181611843565b92915050565b5f602082840312156122bc576122bb611810565b5b5f6122c984828501612293565b9150509291505056fea264697066735822122010440aa875ddbfd3df0fdeff97415a40b6a162d93b4accdd66631cc56f3d2dce64736f6c63430008150033","opcodes":"PUSH1 0x80 PUSH1 0x40 MSTORE CALLVALUE DUP1 ISZERO PUSH3 0x10 JUMPI PUSH0 DUP1 REVERT JUMPDEST POP PUSH1 0x40 MLOAD PUSH3 0x2A5F CODESIZE SUB DUP1 PUSH3 0x2A5F DUP4 CODECOPY DUP2 DUP2 ADD PUSH1 0x40 MSTORE DUP2 ADD SWAP1 PUSH3 0x36 SWAP2 SWAP1 PUSH3 0x34D JUMP JUMPDEST CALLER DUP3 DUP3 DUP2 PUSH1 0x2 SWAP1 DUP2 PUSH3 0x4A SWAP2 SWAP1 PUSH3 0x607 JUMP JUMPDEST POP DUP1 PUSH1 0x3 SWAP1 DUP2 PUSH3 0x5C SWAP2 SWAP1 PUSH3 0x607 JUMP JUMPDEST POP PUSH3 0x6D PUSH3 0x101 PUSH1 0x20 SHL PUSH1 0x20 SHR JUMP JUMPDEST PUSH0 DUP2 SWAP1 SSTORE POP POP POP PUSH0 PUSH20 0xFFFFFFFFFFFFFFFFFFFFFFFFFFFFFFFFFFFFFFFF AND DUP2 PUSH20 0xFFFFFFFFFFFFFFFFFFFFFFFFFFFFFFFFFFFFFFFF AND SUB PUSH3 0xE7 JUMPI PUSH0 PUSH1 0x40 MLOAD PUSH32 0x1E4FBDF700000000000000000000000000000000000000000000000000000000 DUP2 MSTORE PUSH1 0x4 ADD PUSH3 0xDE SWAP2 SWAP1 PUSH3 0x72E JUMP JUMPDEST PUSH1 0x40 MLOAD DUP1 SWAP2 SUB SWAP1 REVERT JUMPDEST PUSH3 0xF8 DUP2 PUSH3 0x105 PUSH1 0x20 SHL PUSH1 0x20 SHR JUMP JUMPDEST POP POP POP PUSH3 0x749 JUMP JUMPDEST PUSH0 SWAP1 JUMP JUMPDEST PUSH0 PUSH1 0x8 PUSH0 SWAP1 SLOAD SWAP1 PUSH2 0x100 EXP SWAP1 DIV PUSH20 0xFFFFFFFFFFFFFFFFFFFFFFFFFFFFFFFFFFFFFFFF AND SWAP1 POP DUP2 PUSH1 0x8 PUSH0 PUSH2 0x100 EXP DUP2 SLOAD DUP2 PUSH20 0xFFFFFFFFFFFFFFFFFFFFFFFFFFFFFFFFFFFFFFFF MUL NOT AND SWAP1 DUP4 PUSH20 0xFFFFFFFFFFFFFFFFFFFFFFFFFFFFFFFFFFFFFFFF AND MUL OR SWAP1 SSTORE POP DUP2 PUSH20 0xFFFFFFFFFFFFFFFFFFFFFFFFFFFFFFFFFFFFFFFF AND DUP2 PUSH20 0xFFFFFFFFFFFFFFFFFFFFFFFFFFFFFFFFFFFFFFFF AND PUSH32 0x8BE0079C531659141344CD1FD0A4F28419497F9722A3DAAFE3B4186F6B6457E0 PUSH1 0x40 MLOAD PUSH1 0x40 MLOAD DUP1 SWAP2 SUB SWAP1 LOG3 POP POP JUMP JUMPDEST PUSH0 PUSH1 0x40 MLOAD SWAP1 POP SWAP1 JUMP JUMPDEST PUSH0 DUP1 REVERT JUMPDEST PUSH0 DUP1 REVERT JUMPDEST PUSH0 DUP1 REVERT JUMPDEST PUSH0 DUP1 REVERT JUMPDEST PUSH0 PUSH1 0x1F NOT PUSH1 0x1F DUP4 ADD AND SWAP1 POP SWAP2 SWAP1 POP JUMP JUMPDEST PUSH32 0x4E487B7100000000000000000000000000000000000000000000000000000000 PUSH0 MSTORE PUSH1 0x41 PUSH1 0x4 MSTORE PUSH1 0x24 PUSH0 REVERT JUMPDEST PUSH3 0x229 DUP3 PUSH3 0x1E1 JUMP JUMPDEST DUP2 ADD DUP2 DUP2 LT PUSH8 0xFFFFFFFFFFFFFFFF DUP3 GT OR ISZERO PUSH3 0x24B JUMPI PUSH3 0x24A PUSH3 0x1F1 JUMP JUMPDEST JUMPDEST DUP1 PUSH1 0x40 MSTORE POP POP POP JUMP JUMPDEST PUSH0 PUSH3 0x25F PUSH3 0x1C8 JUMP JUMPDEST SWAP1 POP PUSH3 0x26D DUP3 DUP3 PUSH3 0x21E JUMP JUMPDEST SWAP2 SWAP1 POP JUMP JUMPDEST PUSH0 PUSH8 0xFFFFFFFFFFFFFFFF DUP3 GT ISZERO PUSH3 0x28F JUMPI PUSH3 0x28E PUSH3 0x1F1 JUMP JUMPDEST JUMPDEST PUSH3 0x29A DUP3 PUSH3 0x1E1 JUMP JUMPDEST SWAP1 POP PUSH1 0x20 DUP2 ADD SWAP1 POP SWAP2 SWAP1 POP JUMP JUMPDEST PUSH0 JUMPDEST DUP4 DUP2 LT ISZERO PUSH3 0x2C6 JUMPI DUP1 DUP3 ADD MLOAD DUP2 DUP5 ADD MSTORE PUSH1 0x20 DUP2 ADD SWAP1 POP PUSH3 0x2A9 JUMP JUMPDEST PUSH0 DUP5 DUP5 ADD MSTORE POP POP POP POP JUMP JUMPDEST PUSH0 PUSH3 0x2E7 PUSH3 0x2E1 DUP5 PUSH3 0x272 JUMP JUMPDEST PUSH3 0x254 JUMP JUMPDEST SWAP1 POP DUP3 DUP2 MSTORE PUSH1 0x20 DUP2 ADD DUP5 DUP5 DUP5 ADD GT ISZERO PUSH3 0x306 JUMPI PUSH3 0x305 PUSH3 0x1DD JUMP JUMPDEST JUMPDEST PUSH3 0x313 DUP5 DUP3 DUP6 PUSH3 0x2A7 JUMP JUMPDEST POP SWAP4 SWAP3 POP POP POP JUMP JUMPDEST PUSH0 DUP3 PUSH1 0x1F DUP4 ADD SLT PUSH3 0x332 JUMPI PUSH3 0x331 PUSH3 0x1D9 JUMP JUMPDEST JUMPDEST DUP2 MLOAD PUSH3 0x344 DUP5 DUP3 PUSH1 0x20 DUP7 ADD PUSH3 0x2D1 JUMP JUMPDEST SWAP2 POP POP SWAP3 SWAP2 POP POP JUMP JUMPDEST PUSH0 DUP1 PUSH1 0x40 DUP4 DUP6 SUB SLT ISZERO PUSH3 0x366 JUMPI PUSH3 0x365 PUSH3 0x1D1 JUMP JUMPDEST JUMPDEST PUSH0 DUP4 ADD MLOAD PUSH8 0xFFFFFFFFFFFFFFFF DUP2 GT ISZERO PUSH3 0x386 JUMPI PUSH3 0x385 PUSH3 0x1D5 JUMP JUMPDEST JUMPDEST PUSH3 0x394 DUP6 DUP3 DUP7 ADD PUSH3 0x31B JUMP JUMPDEST SWAP3 POP POP PUSH1 0x20 DUP4 ADD MLOAD PUSH8 0xFFFFFFFFFFFFFFFF DUP2 GT ISZERO PUSH3 0x3B8 JUMPI PUSH3 0x3B7 PUSH3 0x1D5 JUMP JUMPDEST JUMPDEST PUSH3 0x3C6 DUP6 DUP3 DUP7 ADD PUSH3 0x31B JUMP JUMPDEST SWAP2 POP POP SWAP3 POP SWAP3 SWAP1 POP JUMP JUMPDEST PUSH0 DUP2 MLOAD SWAP1 POP SWAP2 SWAP1 POP JUMP JUMPDEST PUSH32 0x4E487B7100000000000000000000000000000000000000000000000000000000 PUSH0 MSTORE PUSH1 0x22 PUSH1 0x4 MSTORE PUSH1 0x24 PUSH0 REVERT JUMPDEST PUSH0 PUSH1 0x2 DUP3 DIV SWAP1 POP PUSH1 0x1 DUP3 AND DUP1 PUSH3 0x41F JUMPI PUSH1 0x7F DUP3 AND SWAP2 POP JUMPDEST PUSH1 0x20 DUP3 LT DUP2 SUB PUSH3 0x435 JUMPI PUSH3 0x434 PUSH3 0x3DA JUMP JUMPDEST JUMPDEST POP SWAP2 SWAP1 POP JUMP JUMPDEST PUSH0 DUP2 SWAP1 POP DUP2 PUSH0 MSTORE PUSH1 0x20 PUSH0 KECCAK256 SWAP1 POP SWAP2 SWAP1 POP JUMP JUMPDEST PUSH0 PUSH1 0x20 PUSH1 0x1F DUP4 ADD DIV SWAP1 POP SWAP2 SWAP1 POP JUMP JUMPDEST PUSH0 DUP3 DUP3 SHL SWAP1 POP SWAP3 SWAP2 POP POP JUMP JUMPDEST PUSH0 PUSH1 0x8 DUP4 MUL PUSH3 0x499 PUSH32 0xFFFFFFFFFFFFFFFFFFFFFFFFFFFFFFFFFFFFFFFFFFFFFFFFFFFFFFFFFFFFFFFF DUP3 PUSH3 0x45C JUMP JUMPDEST PUSH3 0x4A5 DUP7 DUP4 PUSH3 0x45C JUMP JUMPDEST SWAP6 POP DUP1 NOT DUP5 AND SWAP4 POP DUP1 DUP7 AND DUP5 OR SWAP3 POP POP POP SWAP4 SWAP3 POP POP POP JUMP JUMPDEST PUSH0 DUP2 SWAP1 POP SWAP2 SWAP1 POP JUMP JUMPDEST PUSH0 DUP2 SWAP1 POP SWAP2 SWAP1 POP JUMP JUMPDEST PUSH0 PUSH3 0x4EF PUSH3 0x4E9 PUSH3 0x4E3 DUP5 PUSH3 0x4BD JUMP JUMPDEST PUSH3 0x4C6 JUMP JUMPDEST PUSH3 0x4BD JUMP JUMPDEST SWAP1 POP SWAP2 SWAP1 POP JUMP JUMPDEST PUSH0 DUP2 SWAP1 POP SWAP2 SWAP1 POP JUMP JUMPDEST PUSH3 0x50A DUP4 PUSH3 0x4CF JUMP JUMPDEST PUSH3 0x522 PUSH3 0x519 DUP3 PUSH3 0x4F6 JUMP JUMPDEST DUP5 DUP5 SLOAD PUSH3 0x468 JUMP JUMPDEST DUP3 SSTORE POP POP POP POP JUMP JUMPDEST PUSH0 SWAP1 JUMP JUMPDEST PUSH3 0x538 PUSH3 0x52A JUMP JUMPDEST PUSH3 0x545 DUP2 DUP5 DUP5 PUSH3 0x4FF JUMP JUMPDEST POP POP POP JUMP JUMPDEST JUMPDEST DUP2 DUP2 LT ISZERO PUSH3 0x56C JUMPI PUSH3 0x560 PUSH0 DUP3 PUSH3 0x52E JUMP JUMPDEST PUSH1 0x1 DUP2 ADD SWAP1 POP PUSH3 0x54B JUMP JUMPDEST POP POP JUMP JUMPDEST PUSH1 0x1F DUP3 GT ISZERO PUSH3 0x5BB JUMPI PUSH3 0x585 DUP2 PUSH3 0x43B JUMP JUMPDEST PUSH3 0x590 DUP5 PUSH3 0x44D JUMP JUMPDEST DUP2 ADD PUSH1 0x20 DUP6 LT ISZERO PUSH3 0x5A0 JUMPI DUP2 SWAP1 POP JUMPDEST PUSH3 0x5B8 PUSH3 0x5AF DUP6 PUSH3 0x44D JUMP JUMPDEST DUP4 ADD DUP3 PUSH3 0x54A JUMP JUMPDEST POP POP JUMPDEST POP POP POP JUMP JUMPDEST PUSH0 DUP3 DUP3 SHR SWAP1 POP SWAP3 SWAP2 POP POP JUMP JUMPDEST PUSH0 PUSH3 0x5DD PUSH0 NOT DUP5 PUSH1 0x8 MUL PUSH3 0x5C0 JUMP JUMPDEST NOT DUP1 DUP4 AND SWAP2 POP POP SWAP3 SWAP2 POP POP JUMP JUMPDEST PUSH0 PUSH3 0x5F7 DUP4 DUP4 PUSH3 0x5CC JUMP JUMPDEST SWAP2 POP DUP3 PUSH1 0x2 MUL DUP3 OR SWAP1 POP SWAP3 SWAP2 POP POP JUMP JUMPDEST PUSH3 0x612 DUP3 PUSH3 0x3D0 JUMP JUMPDEST PUSH8 0xFFFFFFFFFFFFFFFF DUP2 GT ISZERO PUSH3 0x62E JUMPI PUSH3 0x62D PUSH3 0x1F1 JUMP JUMPDEST JUMPDEST PUSH3 0x63A DUP3 SLOAD PUSH3 0x407 JUMP JUMPDEST PUSH3 0x647 DUP3 DUP3 DUP6 PUSH3 0x570 JUMP JUMPDEST PUSH0 PUSH1 0x20 SWAP1 POP PUSH1 0x1F DUP4 GT PUSH1 0x1 DUP2 EQ PUSH3 0x67D JUMPI PUSH0 DUP5 ISZERO PUSH3 0x668 JUMPI DUP3 DUP8 ADD MLOAD SWAP1 POP JUMPDEST PUSH3 0x674 DUP6 DUP3 PUSH3 0x5EA JUMP JUMPDEST DUP7 SSTORE POP PUSH3 0x6E3 JUMP JUMPDEST PUSH1 0x1F NOT DUP5 AND PUSH3 0x68D DUP7 PUSH3 0x43B JUMP JUMPDEST PUSH0 JUMPDEST DUP3 DUP2 LT ISZERO PUSH3 0x6B6 JUMPI DUP5 DUP10 ADD MLOAD DUP3 SSTORE PUSH1 0x1 DUP3 ADD SWAP2 POP PUSH1 0x20 DUP6 ADD SWAP5 POP PUSH1 0x20 DUP2 ADD SWAP1 POP PUSH3 0x68F JUMP JUMPDEST DUP7 DUP4 LT ISZERO PUSH3 0x6D6 JUMPI DUP5 DUP10 ADD MLOAD PUSH3 0x6D2 PUSH1 0x1F DUP10 AND DUP3 PUSH3 0x5CC JUMP JUMPDEST DUP4 SSTORE POP JUMPDEST PUSH1 0x1 PUSH1 0x2 DUP9 MUL ADD DUP9 SSTORE POP POP POP JUMPDEST POP POP POP POP POP POP JUMP JUMPDEST PUSH0 PUSH20 0xFFFFFFFFFFFFFFFFFFFFFFFFFFFFFFFFFFFFFFFF DUP3 AND SWAP1 POP SWAP2 SWAP1 POP JUMP JUMPDEST PUSH0 PUSH3 0x716 DUP3 PUSH3 0x6EB JUMP JUMPDEST SWAP1 POP SWAP2 SWAP1 POP JUMP JUMPDEST PUSH3 0x728 DUP2 PUSH3 0x70A JUMP JUMPDEST DUP3 MSTORE POP POP JUMP JUMPDEST PUSH0 PUSH1 0x20 DUP3 ADD SWAP1 POP PUSH3 0x743 PUSH0 DUP4 ADD DUP5 PUSH3 0x71D JUMP JUMPDEST SWAP3 SWAP2 POP POP JUMP JUMPDEST PUSH2 0x2308 DUP1 PUSH3 0x757 PUSH0 CODECOPY PUSH0 RETURN INVALID PUSH1 0x80 PUSH1 0x40 MSTORE PUSH1 0x4 CALLDATASIZE LT PUSH2 0x11E JUMPI PUSH0 CALLDATALOAD PUSH1 0xE0 SHR DUP1 PUSH4 0x70A08231 GT PUSH2 0x9F JUMPI DUP1 PUSH4 0xB88D4FDE GT PUSH2 0x63 JUMPI DUP1 PUSH4 0xB88D4FDE EQ PUSH2 0x39C JUMPI DUP1 PUSH4 0xBE9EB325 EQ PUSH2 0x3B8 JUMPI DUP1 PUSH4 0xC87B56DD EQ PUSH2 0x3E0 JUMPI DUP1 PUSH4 0xE985E9C5 EQ PUSH2 0x41C JUMPI DUP1 PUSH4 0xF2FDE38B EQ PUSH2 0x458 JUMPI PUSH2 0x11E JUMP JUMPDEST DUP1 PUSH4 0x70A08231 EQ PUSH2 0x2CE JUMPI DUP1 PUSH4 0x715018A6 EQ PUSH2 0x30A JUMPI DUP1 PUSH4 0x8DA5CB5B EQ PUSH2 0x320 JUMPI DUP1 PUSH4 0x95D89B41 EQ PUSH2 0x34A JUMPI DUP1 PUSH4 0xA22CB465 EQ PUSH2 0x374 JUMPI PUSH2 0x11E JUMP JUMPDEST DUP1 PUSH4 0x23B872DD GT PUSH2 0xE6 JUMPI DUP1 PUSH4 0x23B872DD EQ PUSH2 0x20A JUMPI DUP1 PUSH4 0x40C10F19 EQ PUSH2 0x226 JUMPI DUP1 PUSH4 0x42842E0E EQ PUSH2 0x24E JUMPI DUP1 PUSH4 0x6352211E EQ PUSH2 0x26A JUMPI DUP1 PUSH4 0x67DB3B8F EQ PUSH2 0x2A6 JUMPI PUSH2 0x11E JUMP JUMPDEST DUP1 PUSH4 0x1FFC9A7 EQ PUSH2 0x122 JUMPI DUP1 PUSH4 0x6FDDE03 EQ PUSH2 0x15E JUMPI DUP1 PUSH4 0x81812FC EQ PUSH2 0x188 JUMPI DUP1 PUSH4 0x95EA7B3 EQ PUSH2 0x1C4 JUMPI DUP1 PUSH4 0x18160DDD EQ PUSH2 0x1E0 JUMPI JUMPDEST PUSH0 DUP1 REVERT JUMPDEST CALLVALUE DUP1 ISZERO PUSH2 0x12D JUMPI PUSH0 DUP1 REVERT JUMPDEST POP PUSH2 0x148 PUSH1 0x4 DUP1 CALLDATASIZE SUB DUP2 ADD SWAP1 PUSH2 0x143 SWAP2 SWAP1 PUSH2 0x186D JUMP JUMPDEST PUSH2 0x480 JUMP JUMPDEST PUSH1 0x40 MLOAD PUSH2 0x155 SWAP2 SWAP1 PUSH2 0x18B2 JUMP JUMPDEST PUSH1 0x40 MLOAD DUP1 SWAP2 SUB SWAP1 RETURN JUMPDEST CALLVALUE DUP1 ISZERO PUSH2 0x169 JUMPI PUSH0 DUP1 REVERT JUMPDEST POP PUSH2 0x172 PUSH2 0x511 JUMP JUMPDEST PUSH1 0x40 MLOAD PUSH2 0x17F SWAP2 SWAP1 PUSH2 0x1955 JUMP JUMPDEST PUSH1 0x40 MLOAD DUP1 SWAP2 SUB SWAP1 RETURN JUMPDEST CALLVALUE DUP1 ISZERO PUSH2 0x193 JUMPI PUSH0 DUP1 REVERT JUMPDEST POP PUSH2 0x1AE PUSH1 0x4 DUP1 CALLDATASIZE SUB DUP2 ADD SWAP1 PUSH2 0x1A9 SWAP2 SWAP1 PUSH2 0x19A8 JUMP JUMPDEST PUSH2 0x5A1 JUMP JUMPDEST PUSH1 0x40 MLOAD PUSH2 0x1BB SWAP2 SWAP1 PUSH2 0x1A12 JUMP JUMPDEST PUSH1 0x40 MLOAD DUP1 SWAP2 SUB SWAP1 RETURN JUMPDEST PUSH2 0x1DE PUSH1 0x4 DUP1 CALLDATASIZE SUB DUP2 ADD SWAP1 PUSH2 0x1D9 SWAP2 SWAP1 PUSH2 0x1A55 JUMP JUMPDEST PUSH2 0x61B JUMP JUMPDEST STOP JUMPDEST CALLVALUE DUP1 ISZERO PUSH2 0x1EB JUMPI PUSH0 DUP1 REVERT JUMPDEST POP PUSH2 0x1F4 PUSH2 0x75A JUMP JUMPDEST PUSH1 0x40 MLOAD PUSH2 0x201 SWAP2 SWAP1 PUSH2 0x1AA2 JUMP JUMPDEST PUSH1 0x40 MLOAD DUP1 SWAP2 SUB SWAP1 RETURN JUMPDEST PUSH2 0x224 PUSH1 0x4 DUP1 CALLDATASIZE SUB DUP2 ADD SWAP1 PUSH2 0x21F SWAP2 SWAP1 PUSH2 0x1ABB JUMP JUMPDEST PUSH2 0x76F JUMP JUMPDEST STOP JUMPDEST CALLVALUE DUP1 ISZERO PUSH2 0x231 JUMPI PUSH0 DUP1 REVERT JUMPDEST POP PUSH2 0x24C PUSH1 0x4 DUP1 CALLDATASIZE SUB DUP2 ADD SWAP1 PUSH2 0x247 SWAP2 SWAP1 PUSH2 0x1A55 JUMP JUMPDEST PUSH2 0xA7D JUMP JUMPDEST STOP JUMPDEST PUSH2 0x268 PUSH1 0x4 DUP1 CALLDATASIZE SUB DUP2 ADD SWAP1 PUSH2 0x263 SWAP2 SWAP1 PUSH2 0x1ABB JUMP JUMPDEST PUSH2 0xB01 JUMP JUMPDEST STOP JUMPDEST CALLVALUE DUP1 ISZERO PUSH2 0x275 JUMPI PUSH0 DUP1 REVERT JUMPDEST POP PUSH2 0x290 PUSH1 0x4 DUP1 CALLDATASIZE SUB DUP2 ADD SWAP1 PUSH2 0x28B SWAP2 SWAP1 PUSH2 0x19A8 JUMP JUMPDEST PUSH2 0xB20 JUMP JUMPDEST PUSH1 0x40 MLOAD PUSH2 0x29D SWAP2 SWAP1 PUSH2 0x1A12 JUMP JUMPDEST PUSH1 0x40 MLOAD DUP1 SWAP2 SUB SWAP1 RETURN JUMPDEST CALLVALUE DUP1 ISZERO PUSH2 0x2B1 JUMPI PUSH0 DUP1 REVERT JUMPDEST POP PUSH2 0x2CC PUSH1 0x4 DUP1 CALLDATASIZE SUB DUP2 ADD SWAP1 PUSH2 0x2C7 SWAP2 SWAP1 PUSH2 0x1C37 JUMP JUMPDEST PUSH2 0xB31 JUMP JUMPDEST STOP JUMPDEST CALLVALUE DUP1 ISZERO PUSH2 0x2D9 JUMPI PUSH0 DUP1 REVERT JUMPDEST POP PUSH2 0x2F4 PUSH1 0x4 DUP1 CALLDATASIZE SUB DUP2 ADD SWAP1 PUSH2 0x2EF SWAP2 SWAP1 PUSH2 0x1C91 JUMP JUMPDEST PUSH2 0xB93 JUMP JUMPDEST PUSH1 0x40 MLOAD PUSH2 0x301 SWAP2 SWAP1 PUSH2 0x1AA2 JUMP JUMPDEST PUSH1 0x40 MLOAD DUP1 SWAP2 SUB SWAP1 RETURN JUMPDEST CALLVALUE DUP1 ISZERO PUSH2 0x315 JUMPI PUSH0 DUP1 REVERT JUMPDEST POP PUSH2 0x31E PUSH2 0xC48 JUMP JUMPDEST STOP JUMPDEST CALLVALUE DUP1 ISZERO PUSH2 0x32B JUMPI PUSH0 DUP1 REVERT JUMPDEST POP PUSH2 0x334 PUSH2 0xC5B JUMP JUMPDEST PUSH1 0x40 MLOAD PUSH2 0x341 SWAP2 SWAP1 PUSH2 0x1A12 JUMP JUMPDEST PUSH1 0x40 MLOAD DUP1 SWAP2 SUB SWAP1 RETURN JUMPDEST CALLVALUE DUP1 ISZERO PUSH2 0x355 JUMPI PUSH0 DUP1 REVERT JUMPDEST POP PUSH2 0x35E PUSH2 0xC83 JUMP JUMPDEST PUSH1 0x40 MLOAD PUSH2 0x36B SWAP2 SWAP1 PUSH2 0x1955 JUMP JUMPDEST PUSH1 0x40 MLOAD DUP1 SWAP2 SUB SWAP1 RETURN JUMPDEST CALLVALUE DUP1 ISZERO PUSH2 0x37F JUMPI PUSH0 DUP1 REVERT JUMPDEST POP PUSH2 0x39A PUSH1 0x4 DUP1 CALLDATASIZE SUB DUP2 ADD SWAP1 PUSH2 0x395 SWAP2 SWAP1 PUSH2 0x1CE6 JUMP JUMPDEST PUSH2 0xD13 JUMP JUMPDEST STOP JUMPDEST PUSH2 0x3B6 PUSH1 0x4 DUP1 CALLDATASIZE SUB DUP2 ADD SWAP1 PUSH2 0x3B1 SWAP2 SWAP1 PUSH2 0x1DC2 JUMP JUMPDEST PUSH2 0xE19 JUMP JUMPDEST STOP JUMPDEST CALLVALUE DUP1 ISZERO PUSH2 0x3C3 JUMPI PUSH0 DUP1 REVERT JUMPDEST POP PUSH2 0x3DE PUSH1 0x4 DUP1 CALLDATASIZE SUB DUP2 ADD SWAP1 PUSH2 0x3D9 SWAP2 SWAP1 PUSH2 0x1C37 JUMP JUMPDEST PUSH2 0xE8B JUMP JUMPDEST STOP JUMPDEST CALLVALUE DUP1 ISZERO PUSH2 0x3EB JUMPI PUSH0 DUP1 REVERT JUMPDEST POP PUSH2 0x406 PUSH1 0x4 DUP1 CALLDATASIZE SUB DUP2 ADD SWAP1 PUSH2 0x401 SWAP2 SWAP1 PUSH2 0x19A8 JUMP JUMPDEST PUSH2 0xEED JUMP JUMPDEST PUSH1 0x40 MLOAD PUSH2 0x413 SWAP2 SWAP1 PUSH2 0x1955 JUMP JUMPDEST PUSH1 0x40 MLOAD DUP1 SWAP2 SUB SWAP1 RETURN JUMPDEST CALLVALUE DUP1 ISZERO PUSH2 0x427 JUMPI PUSH0 DUP1 REVERT JUMPDEST POP PUSH2 0x442 PUSH1 0x4 DUP1 CALLDATASIZE SUB DUP2 ADD SWAP1 PUSH2 0x43D SWAP2 SWAP1 PUSH2 0x1E42 JUMP JUMPDEST PUSH2 0xF88 JUMP JUMPDEST PUSH1 0x40 MLOAD PUSH2 0x44F SWAP2 SWAP1 PUSH2 0x18B2 JUMP JUMPDEST PUSH1 0x40 MLOAD DUP1 SWAP2 SUB SWAP1 RETURN JUMPDEST CALLVALUE DUP1 ISZERO PUSH2 0x463 JUMPI PUSH0 DUP1 REVERT JUMPDEST POP PUSH2 0x47E PUSH1 0x4 DUP1 CALLDATASIZE SUB DUP2 ADD SWAP1 PUSH2 0x479 SWAP2 SWAP1 PUSH2 0x1C91 JUMP JUMPDEST PUSH2 0x1016 JUMP JUMPDEST STOP JUMPDEST PUSH0 PUSH4 0x1FFC9A7 PUSH1 0xE0 SHL DUP3 PUSH28 0xFFFFFFFFFFFFFFFFFFFFFFFFFFFFFFFFFFFFFFFFFFFFFFFFFFFFFFFF NOT AND EQ DUP1 PUSH2 0x4DA JUMPI POP PUSH4 0x80AC58CD PUSH1 0xE0 SHL DUP3 PUSH28 0xFFFFFFFFFFFFFFFFFFFFFFFFFFFFFFFFFFFFFFFFFFFFFFFFFFFFFFFF NOT AND EQ JUMPDEST DUP1 PUSH2 0x50A JUMPI POP PUSH4 0x5B5E139F PUSH1 0xE0 SHL DUP3 PUSH28 0xFFFFFFFFFFFFFFFFFFFFFFFFFFFFFFFFFFFFFFFFFFFFFFFFFFFFFFFF NOT AND EQ JUMPDEST SWAP1 POP SWAP2 SWAP1 POP JUMP JUMPDEST PUSH1 0x60 PUSH1 0x2 DUP1 SLOAD PUSH2 0x520 SWAP1 PUSH2 0x1EAD JUMP JUMPDEST DUP1 PUSH1 0x1F ADD PUSH1 0x20 DUP1 SWAP2 DIV MUL PUSH1 0x20 ADD PUSH1 0x40 MLOAD SWAP1 DUP2 ADD PUSH1 0x40 MSTORE DUP1 SWAP3 SWAP2 SWAP1 DUP2 DUP2 MSTORE PUSH1 0x20 ADD DUP3 DUP1 SLOAD PUSH2 0x54C SWAP1 PUSH2 0x1EAD JUMP JUMPDEST DUP1 ISZERO PUSH2 0x597 JUMPI DUP1 PUSH1 0x1F LT PUSH2 0x56E JUMPI PUSH2 0x100 DUP1 DUP4 SLOAD DIV MUL DUP4 MSTORE SWAP2 PUSH1 0x20 ADD SWAP2 PUSH2 0x597 JUMP JUMPDEST DUP3 ADD SWAP2 SWAP1 PUSH0 MSTORE PUSH1 0x20 PUSH0 KECCAK256 SWAP1 JUMPDEST DUP2 SLOAD DUP2 MSTORE SWAP1 PUSH1 0x1 ADD SWAP1 PUSH1 0x20 ADD DUP1 DUP4 GT PUSH2 0x57A JUMPI DUP3 SWAP1 SUB PUSH1 0x1F AND DUP3 ADD SWAP2 JUMPDEST POP POP POP POP POP SWAP1 POP SWAP1 JUMP JUMPDEST PUSH0 PUSH2 0x5AB DUP3 PUSH2 0x109A JUMP JUMPDEST PUSH2 0x5E1 JUMPI PUSH1 0x40 MLOAD PUSH32 0xCF4700E400000000000000000000000000000000000000000000000000000000 DUP2 MSTORE PUSH1 0x4 ADD PUSH1 0x40 MLOAD DUP1 SWAP2 SUB SWAP1 REVERT JUMPDEST PUSH1 0x6 PUSH0 DUP4 DUP2 MSTORE PUSH1 0x20 ADD SWAP1 DUP2 MSTORE PUSH1 0x20 ADD PUSH0 KECCAK256 PUSH0 ADD PUSH0 SWAP1 SLOAD SWAP1 PUSH2 0x100 EXP SWAP1 DIV PUSH20 0xFFFFFFFFFFFFFFFFFFFFFFFFFFFFFFFFFFFFFFFF AND SWAP1 POP SWAP2 SWAP1 POP JUMP JUMPDEST PUSH0 PUSH2 0x625 DUP3 PUSH2 0xB20 JUMP JUMPDEST SWAP1 POP DUP1 PUSH20 0xFFFFFFFFFFFFFFFFFFFFFFFFFFFFFFFFFFFFFFFF AND PUSH2 0x646 PUSH2 0x10F4 JUMP JUMPDEST PUSH20 0xFFFFFFFFFFFFFFFFFFFFFFFFFFFFFFFFFFFFFFFF AND EQ PUSH2 0x6A9 JUMPI PUSH2 0x672 DUP2 PUSH2 0x66D PUSH2 0x10F4 JUMP JUMPDEST PUSH2 0xF88 JUMP JUMPDEST PUSH2 0x6A8 JUMPI PUSH1 0x40 MLOAD PUSH32 0xCFB3B94200000000000000000000000000000000000000000000000000000000 DUP2 MSTORE PUSH1 0x4 ADD PUSH1 0x40 MLOAD DUP1 SWAP2 SUB SWAP1 REVERT JUMPDEST JUMPDEST DUP3 PUSH1 0x6 PUSH0 DUP5 DUP2 MSTORE PUSH1 0x20 ADD SWAP1 DUP2 MSTORE PUSH1 0x20 ADD PUSH0 KECCAK256 PUSH0 ADD PUSH0 PUSH2 0x100 EXP DUP2 SLOAD DUP2 PUSH20 0xFFFFFFFFFFFFFFFFFFFFFFFFFFFFFFFFFFFFFFFF MUL NOT AND SWAP1 DUP4 PUSH20 0xFFFFFFFFFFFFFFFFFFFFFFFFFFFFFFFFFFFFFFFF AND MUL OR SWAP1 SSTORE POP DUP2 DUP4 PUSH20 0xFFFFFFFFFFFFFFFFFFFFFFFFFFFFFFFFFFFFFFFF AND DUP3 PUSH20 0xFFFFFFFFFFFFFFFFFFFFFFFFFFFFFFFFFFFFFFFF AND PUSH32 0x8C5BE1E5EBEC7D5BD14F71427D1E84F3DD0314C0F7B2291E5B200AC8C7C3B925 PUSH1 0x40 MLOAD PUSH1 0x40 MLOAD DUP1 SWAP2 SUB SWAP1 LOG4 POP POP POP JUMP JUMPDEST PUSH0 PUSH2 0x763 PUSH2 0x10FB JUMP JUMPDEST PUSH1 0x1 SLOAD PUSH0 SLOAD SUB SUB SWAP1 POP SWAP1 JUMP JUMPDEST PUSH0 PUSH2 0x779 DUP3 PUSH2 0x10FF JUMP JUMPDEST SWAP1 POP DUP4 PUSH20 0xFFFFFFFFFFFFFFFFFFFFFFFFFFFFFFFFFFFFFFFF AND DUP2 PUSH20 0xFFFFFFFFFFFFFFFFFFFFFFFFFFFFFFFFFFFFFFFF AND EQ PUSH2 0x7E0 JUMPI PUSH1 0x40 MLOAD PUSH32 0xA114810000000000000000000000000000000000000000000000000000000000 DUP2 MSTORE PUSH1 0x4 ADD PUSH1 0x40 MLOAD DUP1 SWAP2 SUB SWAP1 REVERT JUMPDEST PUSH0 DUP1 PUSH2 0x7EB DUP5 PUSH2 0x11C2 JUMP JUMPDEST SWAP2 POP SWAP2 POP PUSH2 0x801 DUP2 DUP8 PUSH2 0x7FC PUSH2 0x10F4 JUMP JUMPDEST PUSH2 0x11E5 JUMP JUMPDEST PUSH2 0x84D JUMPI PUSH2 0x816 DUP7 PUSH2 0x811 PUSH2 0x10F4 JUMP JUMPDEST PUSH2 0xF88 JUMP JUMPDEST PUSH2 0x84C JUMPI PUSH1 0x40 MLOAD PUSH32 0x59C896BE00000000000000000000000000000000000000000000000000000000 DUP2 MSTORE PUSH1 0x4 ADD PUSH1 0x40 MLOAD DUP1 SWAP2 SUB SWAP1 REVERT JUMPDEST JUMPDEST PUSH0 PUSH20 0xFFFFFFFFFFFFFFFFFFFFFFFFFFFFFFFFFFFFFFFF AND DUP6 PUSH20 0xFFFFFFFFFFFFFFFFFFFFFFFFFFFFFFFFFFFFFFFF AND SUB PUSH2 0x8B2 JUMPI PUSH1 0x40 MLOAD PUSH32 0xEA553B3400000000000000000000000000000000000000000000000000000000 DUP2 MSTORE PUSH1 0x4 ADD PUSH1 0x40 MLOAD DUP1 SWAP2 SUB SWAP1 REVERT JUMPDEST PUSH2 0x8BF DUP7 DUP7 DUP7 PUSH1 0x1 PUSH2 0x1228 JUMP JUMPDEST DUP1 ISZERO PUSH2 0x8C9 JUMPI PUSH0 DUP3 SSTORE JUMPDEST PUSH1 0x5 PUSH0 DUP8 PUSH20 0xFFFFFFFFFFFFFFFFFFFFFFFFFFFFFFFFFFFFFFFF AND PUSH20 0xFFFFFFFFFFFFFFFFFFFFFFFFFFFFFFFFFFFFFFFF AND DUP2 MSTORE PUSH1 0x20 ADD SWAP1 DUP2 MSTORE PUSH1 0x20 ADD PUSH0 KECCAK256 PUSH0 DUP2 SLOAD PUSH1 0x1 SWAP1 SUB SWAP2 SWAP1 POP DUP2 SWAP1 SSTORE POP PUSH1 0x5 PUSH0 DUP7 PUSH20 0xFFFFFFFFFFFFFFFFFFFFFFFFFFFFFFFFFFFFFFFF AND PUSH20 0xFFFFFFFFFFFFFFFFFFFFFFFFFFFFFFFFFFFFFFFF AND DUP2 MSTORE PUSH1 0x20 ADD SWAP1 DUP2 MSTORE PUSH1 0x20 ADD PUSH0 KECCAK256 PUSH0 DUP2 SLOAD PUSH1 0x1 ADD SWAP2 SWAP1 POP DUP2 SWAP1 SSTORE POP PUSH2 0x991 DUP6 PUSH2 0x96D DUP9 DUP9 DUP8 PUSH2 0x122E JUMP JUMPDEST PUSH29 0x200000000000000000000000000000000000000000000000000000000 OR PUSH2 0x1255 JUMP JUMPDEST PUSH1 0x4 PUSH0 DUP7 DUP2 MSTORE PUSH1 0x20 ADD SWAP1 DUP2 MSTORE PUSH1 0x20 ADD PUSH0 KECCAK256 DUP2 SWAP1 SSTORE POP PUSH0 PUSH29 0x200000000000000000000000000000000000000000000000000000000 DUP5 AND SUB PUSH2 0xA0D JUMPI PUSH0 PUSH1 0x1 DUP6 ADD SWAP1 POP PUSH0 PUSH1 0x4 PUSH0 DUP4 DUP2 MSTORE PUSH1 0x20 ADD SWAP1 DUP2 MSTORE PUSH1 0x20 ADD PUSH0 KECCAK256 SLOAD SUB PUSH2 0xA0B JUMPI PUSH0 SLOAD DUP2 EQ PUSH2 0xA0A JUMPI DUP4 PUSH1 0x4 PUSH0 DUP4 DUP2 MSTORE PUSH1 0x20 ADD SWAP1 DUP2 MSTORE PUSH1 0x20 ADD PUSH0 KECCAK256 DUP2 SWAP1 SSTORE POP JUMPDEST JUMPDEST POP JUMPDEST DUP4 DUP6 PUSH20 0xFFFFFFFFFFFFFFFFFFFFFFFFFFFFFFFFFFFFFFFF AND DUP8 PUSH20 0xFFFFFFFFFFFFFFFFFFFFFFFFFFFFFFFFFFFFFFFF AND PUSH32 0xDDF252AD1BE2C89B69C2B068FC378DAA952BA7F163C4A11628F55A4DF523B3EF PUSH1 0x40 MLOAD PUSH1 0x40 MLOAD DUP1 SWAP2 SUB SWAP1 LOG4 PUSH2 0xA75 DUP7 DUP7 DUP7 PUSH1 0x1 PUSH2 0x127F JUMP JUMPDEST POP POP POP POP POP POP JUMP JUMPDEST PUSH2 0xA87 DUP3 DUP3 PUSH2 0x1285 JUMP JUMPDEST PUSH2 0xAFD PUSH1 0x40 MLOAD DUP1 PUSH1 0x40 ADD PUSH1 0x40 MSTORE DUP1 PUSH1 0x14 DUP2 MSTORE PUSH1 0x20 ADD PUSH32 0x7375636365737366756C6C79206D696E74656420000000000000000000000000 DUP2 MSTORE POP DUP3 PUSH1 0x40 MLOAD DUP1 PUSH1 0x40 ADD PUSH1 0x40 MSTORE DUP1 PUSH1 0x9 DUP2 MSTORE PUSH1 0x20 ADD PUSH32 0x206E66747320746F200000000000000000000000000000000000000000000000 DUP2 MSTORE POP DUP6 PUSH2 0x142E JUMP JUMPDEST POP POP JUMP JUMPDEST PUSH2 0xB1B DUP4 DUP4 DUP4 PUSH1 0x40 MLOAD DUP1 PUSH1 0x20 ADD PUSH1 0x40 MSTORE DUP1 PUSH0 DUP2 MSTORE POP PUSH2 0xE19 JUMP JUMPDEST POP POP POP JUMP JUMPDEST PUSH0 PUSH2 0xB2A DUP3 PUSH2 0x10FF JUMP JUMPDEST SWAP1 POP SWAP2 SWAP1 POP JUMP JUMPDEST PUSH2 0xB3A DUP2 PUSH2 0x109A JUMP JUMPDEST PUSH2 0xB70 JUMPI PUSH1 0x40 MLOAD PUSH32 0xA14C4B5000000000000000000000000000000000000000000000000000000000 DUP2 MSTORE PUSH1 0x4 ADD PUSH1 0x40 MLOAD DUP1 SWAP2 SUB SWAP1 REVERT JUMPDEST DUP2 PUSH1 0x9 PUSH0 DUP4 DUP2 MSTORE PUSH1 0x20 ADD SWAP1 DUP2 MSTORE PUSH1 0x20 ADD PUSH0 KECCAK256 SWAP1 DUP2 PUSH2 0xB8E SWAP2 SWAP1 PUSH2 0x207A JUMP JUMPDEST POP POP POP JUMP JUMPDEST PUSH0 DUP1 PUSH20 0xFFFFFFFFFFFFFFFFFFFFFFFFFFFFFFFFFFFFFFFF AND DUP3 PUSH20 0xFFFFFFFFFFFFFFFFFFFFFFFFFFFFFFFFFFFFFFFF AND SUB PUSH2 0xBF9 JUMPI PUSH1 0x40 MLOAD PUSH32 0x8F4EB60400000000000000000000000000000000000000000000000000000000 DUP2 MSTORE PUSH1 0x4 ADD PUSH1 0x40 MLOAD DUP1 SWAP2 SUB SWAP1 REVERT JUMPDEST PUSH8 0xFFFFFFFFFFFFFFFF PUSH1 0x5 PUSH0 DUP5 PUSH20 0xFFFFFFFFFFFFFFFFFFFFFFFFFFFFFFFFFFFFFFFF AND PUSH20 0xFFFFFFFFFFFFFFFFFFFFFFFFFFFFFFFFFFFFFFFF AND DUP2 MSTORE PUSH1 0x20 ADD SWAP1 DUP2 MSTORE PUSH1 0x20 ADD PUSH0 KECCAK256 SLOAD AND SWAP1 POP SWAP2 SWAP1 POP JUMP JUMPDEST PUSH2 0xC50 PUSH2 0x14D0 JUMP JUMPDEST PUSH2 0xC59 PUSH0 PUSH2 0x1557 JUMP JUMPDEST JUMP JUMPDEST PUSH0 PUSH1 0x8 PUSH0 SWAP1 SLOAD SWAP1 PUSH2 0x100 EXP SWAP1 DIV PUSH20 0xFFFFFFFFFFFFFFFFFFFFFFFFFFFFFFFFFFFFFFFF AND SWAP1 POP SWAP1 JUMP JUMPDEST PUSH1 0x60 PUSH1 0x3 DUP1 SLOAD PUSH2 0xC92 SWAP1 PUSH2 0x1EAD JUMP JUMPDEST DUP1 PUSH1 0x1F ADD PUSH1 0x20 DUP1 SWAP2 DIV MUL PUSH1 0x20 ADD PUSH1 0x40 MLOAD SWAP1 DUP2 ADD PUSH1 0x40 MSTORE DUP1 SWAP3 SWAP2 SWAP1 DUP2 DUP2 MSTORE PUSH1 0x20 ADD DUP3 DUP1 SLOAD PUSH2 0xCBE SWAP1 PUSH2 0x1EAD JUMP JUMPDEST DUP1 ISZERO PUSH2 0xD09 JUMPI DUP1 PUSH1 0x1F LT PUSH2 0xCE0 JUMPI PUSH2 0x100 DUP1 DUP4 SLOAD DIV MUL DUP4 MSTORE SWAP2 PUSH1 0x20 ADD SWAP2 PUSH2 0xD09 JUMP JUMPDEST DUP3 ADD SWAP2 SWAP1 PUSH0 MSTORE PUSH1 0x20 PUSH0 KECCAK256 SWAP1 JUMPDEST DUP2 SLOAD DUP2 MSTORE SWAP1 PUSH1 0x1 ADD SWAP1 PUSH1 0x20 ADD DUP1 DUP4 GT PUSH2 0xCEC JUMPI DUP3 SWAP1 SUB PUSH1 0x1F AND DUP3 ADD SWAP2 JUMPDEST POP POP POP POP POP SWAP1 POP SWAP1 JUMP JUMPDEST DUP1 PUSH1 0x7 PUSH0 PUSH2 0xD1F PUSH2 0x10F4 JUMP JUMPDEST PUSH20 0xFFFFFFFFFFFFFFFFFFFFFFFFFFFFFFFFFFFFFFFF AND PUSH20 0xFFFFFFFFFFFFFFFFFFFFFFFFFFFFFFFFFFFFFFFF AND DUP2 MSTORE PUSH1 0x20 ADD SWAP1 DUP2 MSTORE PUSH1 0x20 ADD PUSH0 KECCAK256 PUSH0 DUP5 PUSH20 0xFFFFFFFFFFFFFFFFFFFFFFFFFFFFFFFFFFFFFFFF AND PUSH20 0xFFFFFFFFFFFFFFFFFFFFFFFFFFFFFFFFFFFFFFFF AND DUP2 MSTORE PUSH1 0x20 ADD SWAP1 DUP2 MSTORE PUSH1 0x20 ADD PUSH0 KECCAK256 PUSH0 PUSH2 0x100 EXP DUP2 SLOAD DUP2 PUSH1 0xFF MUL NOT AND SWAP1 DUP4 ISZERO ISZERO MUL OR SWAP1 SSTORE POP DUP2 PUSH20 0xFFFFFFFFFFFFFFFFFFFFFFFFFFFFFFFFFFFFFFFF AND PUSH2 0xDC8 PUSH2 0x10F4 JUMP JUMPDEST PUSH20 0xFFFFFFFFFFFFFFFFFFFFFFFFFFFFFFFFFFFFFFFF AND PUSH32 0x17307EAB39AB6107E8899845AD3D59BD9653F200F220920489CA2B5937696C31 DUP4 PUSH1 0x40 MLOAD PUSH2 0xE0D SWAP2 SWAP1 PUSH2 0x18B2 JUMP JUMPDEST PUSH1 0x40 MLOAD DUP1 SWAP2 SUB SWAP1 LOG3 POP POP JUMP JUMPDEST PUSH2 0xE24 DUP5 DUP5 DUP5 PUSH2 0x76F JUMP JUMPDEST PUSH0 DUP4 PUSH20 0xFFFFFFFFFFFFFFFFFFFFFFFFFFFFFFFFFFFFFFFF AND EXTCODESIZE EQ PUSH2 0xE85 JUMPI PUSH2 0xE4E DUP5 DUP5 DUP5 DUP5 PUSH2 0x161A JUMP JUMPDEST PUSH2 0xE84 JUMPI PUSH1 0x40 MLOAD PUSH32 0xD1A57ED600000000000000000000000000000000000000000000000000000000 DUP2 MSTORE PUSH1 0x4 ADD PUSH1 0x40 MLOAD DUP1 SWAP2 SUB SWAP1 REVERT JUMPDEST JUMPDEST POP POP POP POP JUMP JUMPDEST PUSH2 0xE94 DUP2 PUSH2 0x109A JUMP JUMPDEST PUSH2 0xECA JUMPI PUSH1 0x40 MLOAD PUSH32 0xA14C4B5000000000000000000000000000000000000000000000000000000000 DUP2 MSTORE PUSH1 0x4 ADD PUSH1 0x40 MLOAD DUP1 SWAP2 SUB SWAP1 REVERT JUMPDEST DUP2 PUSH1 0xA PUSH0 DUP4 DUP2 MSTORE PUSH1 0x20 ADD SWAP1 DUP2 MSTORE PUSH1 0x20 ADD PUSH0 KECCAK256 SWAP1 DUP2 PUSH2 0xEE8 SWAP2 SWAP1 PUSH2 0x207A JUMP JUMPDEST POP POP POP JUMP JUMPDEST PUSH1 0x60 PUSH2 0xEF8 DUP3 PUSH2 0x109A JUMP JUMPDEST PUSH2 0xF2E JUMPI PUSH1 0x40 MLOAD PUSH32 0xA14C4B5000000000000000000000000000000000000000000000000000000000 DUP2 MSTORE PUSH1 0x4 ADD PUSH1 0x40 MLOAD DUP1 SWAP2 SUB SWAP1 REVERT JUMPDEST PUSH0 PUSH2 0xF37 PUSH2 0x1765 JUMP JUMPDEST SWAP1 POP PUSH0 DUP2 MLOAD SUB PUSH2 0xF55 JUMPI PUSH1 0x40 MLOAD DUP1 PUSH1 0x20 ADD PUSH1 0x40 MSTORE DUP1 PUSH0 DUP2 MSTORE POP PUSH2 0xF80 JUMP JUMPDEST DUP1 PUSH2 0xF5F DUP5 PUSH2 0x177B JUMP JUMPDEST PUSH1 0x40 MLOAD PUSH1 0x20 ADD PUSH2 0xF70 SWAP3 SWAP2 SWAP1 PUSH2 0x2183 JUMP JUMPDEST PUSH1 0x40 MLOAD PUSH1 0x20 DUP2 DUP4 SUB SUB DUP2 MSTORE SWAP1 PUSH1 0x40 MSTORE JUMPDEST SWAP2 POP POP SWAP2 SWAP1 POP JUMP JUMPDEST PUSH0 PUSH1 0x7 PUSH0 DUP5 PUSH20 0xFFFFFFFFFFFFFFFFFFFFFFFFFFFFFFFFFFFFFFFF AND PUSH20 0xFFFFFFFFFFFFFFFFFFFFFFFFFFFFFFFFFFFFFFFF AND DUP2 MSTORE PUSH1 0x20 ADD SWAP1 DUP2 MSTORE PUSH1 0x20 ADD PUSH0 KECCAK256 PUSH0 DUP4 PUSH20 0xFFFFFFFFFFFFFFFFFFFFFFFFFFFFFFFFFFFFFFFF AND PUSH20 0xFFFFFFFFFFFFFFFFFFFFFFFFFFFFFFFFFFFFFFFF AND DUP2 MSTORE PUSH1 0x20 ADD SWAP1 DUP2 MSTORE PUSH1 0x20 ADD PUSH0 KECCAK256 PUSH0 SWAP1 SLOAD SWAP1 PUSH2 0x100 EXP SWAP1 DIV PUSH1 0xFF AND SWAP1 POP SWAP3 SWAP2 POP POP JUMP JUMPDEST PUSH2 0x101E PUSH2 0x14D0 JUMP JUMPDEST PUSH0 PUSH20 0xFFFFFFFFFFFFFFFFFFFFFFFFFFFFFFFFFFFFFFFF AND DUP2 PUSH20 0xFFFFFFFFFFFFFFFFFFFFFFFFFFFFFFFFFFFFFFFF AND SUB PUSH2 0x108E JUMPI PUSH0 PUSH1 0x40 MLOAD PUSH32 0x1E4FBDF700000000000000000000000000000000000000000000000000000000 DUP2 MSTORE PUSH1 0x4 ADD PUSH2 0x1085 SWAP2 SWAP1 PUSH2 0x1A12 JUMP JUMPDEST PUSH1 0x40 MLOAD DUP1 SWAP2 SUB SWAP1 REVERT JUMPDEST PUSH2 0x1097 DUP2 PUSH2 0x1557 JUMP JUMPDEST POP JUMP JUMPDEST PUSH0 DUP2 PUSH2 0x10A4 PUSH2 0x10FB JUMP JUMPDEST GT ISZERO DUP1 ISZERO PUSH2 0x10B2 JUMPI POP PUSH0 SLOAD DUP3 LT JUMPDEST DUP1 ISZERO PUSH2 0x10ED JUMPI POP PUSH0 PUSH29 0x100000000000000000000000000000000000000000000000000000000 PUSH1 0x4 PUSH0 DUP6 DUP2 MSTORE PUSH1 0x20 ADD SWAP1 DUP2 MSTORE PUSH1 0x20 ADD PUSH0 KECCAK256 SLOAD AND EQ JUMPDEST SWAP1 POP SWAP2 SWAP1 POP JUMP JUMPDEST PUSH0 CALLER SWAP1 POP SWAP1 JUMP JUMPDEST PUSH0 SWAP1 JUMP JUMPDEST PUSH0 DUP1 DUP3 SWAP1 POP DUP1 PUSH2 0x110D PUSH2 0x10FB JUMP JUMPDEST GT PUSH2 0x118B JUMPI PUSH0 SLOAD DUP2 LT ISZERO PUSH2 0x118A JUMPI PUSH0 PUSH1 0x4 PUSH0 DUP4 DUP2 MSTORE PUSH1 0x20 ADD SWAP1 DUP2 MSTORE PUSH1 0x20 ADD PUSH0 KECCAK256 SLOAD SWAP1 POP PUSH0 PUSH29 0x100000000000000000000000000000000000000000000000000000000 DUP3 AND SUB PUSH2 0x1188 JUMPI JUMPDEST PUSH0 DUP2 SUB PUSH2 0x117E JUMPI PUSH1 0x4 PUSH0 DUP4 PUSH1 0x1 SWAP1 SUB SWAP4 POP DUP4 DUP2 MSTORE PUSH1 0x20 ADD SWAP1 DUP2 MSTORE PUSH1 0x20 ADD PUSH0 KECCAK256 SLOAD SWAP1 POP PUSH2 0x1157 JUMP JUMPDEST DUP1 SWAP3 POP POP POP PUSH2 0x11BD JUMP JUMPDEST POP JUMPDEST JUMPDEST PUSH1 0x40 MLOAD PUSH32 0xDF2D9B4200000000000000000000000000000000000000000000000000000000 DUP2 MSTORE PUSH1 0x4 ADD PUSH1 0x40 MLOAD DUP1 SWAP2 SUB SWAP1 REVERT JUMPDEST SWAP2 SWAP1 POP JUMP JUMPDEST PUSH0 DUP1 PUSH0 PUSH1 0x6 PUSH0 DUP6 DUP2 MSTORE PUSH1 0x20 ADD SWAP1 DUP2 MSTORE PUSH1 0x20 ADD PUSH0 KECCAK256 SWAP1 POP DUP1 SWAP3 POP DUP3 SLOAD SWAP2 POP POP SWAP2 POP SWAP2 JUMP JUMPDEST PUSH0 PUSH20 0xFFFFFFFFFFFFFFFFFFFFFFFFFFFFFFFFFFFFFFFF DUP4 AND SWAP3 POP PUSH20 0xFFFFFFFFFFFFFFFFFFFFFFFFFFFFFFFFFFFFFFFF DUP3 AND SWAP2 POP DUP4 DUP3 EQ DUP4 DUP4 EQ OR SWAP1 POP SWAP4 SWAP3 POP POP POP JUMP JUMPDEST POP POP POP POP JUMP JUMPDEST PUSH0 DUP1 PUSH1 0xE8 DUP4 SWAP1 SHR SWAP1 POP PUSH1 0xE8 PUSH2 0x1244 DUP7 DUP7 DUP5 PUSH2 0x17CA JUMP JUMPDEST PUSH3 0xFFFFFF AND SWAP1 SHL SWAP2 POP POP SWAP4 SWAP3 POP POP POP JUMP JUMPDEST PUSH0 PUSH20 0xFFFFFFFFFFFFFFFFFFFFFFFFFFFFFFFFFFFFFFFF DUP4 AND SWAP3 POP DUP2 TIMESTAMP PUSH1 0xA0 SHL OR DUP4 OR SWAP1 POP SWAP3 SWAP2 POP POP JUMP JUMPDEST POP POP POP POP JUMP JUMPDEST PUSH0 DUP1 SLOAD SWAP1 POP PUSH0 DUP3 SUB PUSH2 0x12C3 JUMPI PUSH1 0x40 MLOAD PUSH32 0xB562E8DD00000000000000000000000000000000000000000000000000000000 DUP2 MSTORE PUSH1 0x4 ADD PUSH1 0x40 MLOAD DUP1 SWAP2 SUB SWAP1 REVERT JUMPDEST PUSH2 0x12CF PUSH0 DUP5 DUP4 DUP6 PUSH2 0x1228 JUMP JUMPDEST PUSH1 0x1 PUSH1 0x40 PUSH1 0x1 SWAP1 SHL OR DUP3 MUL PUSH1 0x5 PUSH0 DUP6 PUSH20 0xFFFFFFFFFFFFFFFFFFFFFFFFFFFFFFFFFFFFFFFF AND PUSH20 0xFFFFFFFFFFFFFFFFFFFFFFFFFFFFFFFFFFFFFFFF AND DUP2 MSTORE PUSH1 0x20 ADD SWAP1 DUP2 MSTORE PUSH1 0x20 ADD PUSH0 KECCAK256 PUSH0 DUP3 DUP3 SLOAD ADD SWAP3 POP POP DUP2 SWAP1 SSTORE POP PUSH2 0x1341 DUP4 PUSH2 0x1332 PUSH0 DUP7 PUSH0 PUSH2 0x122E JUMP JUMPDEST PUSH2 0x133B DUP6 PUSH2 0x17D2 JUMP JUMPDEST OR PUSH2 0x1255 JUMP JUMPDEST PUSH1 0x4 PUSH0 DUP4 DUP2 MSTORE PUSH1 0x20 ADD SWAP1 DUP2 MSTORE PUSH1 0x20 ADD PUSH0 KECCAK256 DUP2 SWAP1 SSTORE POP PUSH0 DUP1 DUP4 DUP4 ADD SWAP1 POP PUSH20 0xFFFFFFFFFFFFFFFFFFFFFFFFFFFFFFFFFFFFFFFF DUP6 AND SWAP2 POP DUP3 DUP3 PUSH0 PUSH32 0xDDF252AD1BE2C89B69C2B068FC378DAA952BA7F163C4A11628F55A4DF523B3EF PUSH0 DUP1 LOG4 PUSH1 0x1 DUP4 ADD JUMPDEST DUP2 DUP2 EQ PUSH2 0x13DB JUMPI DUP1 DUP4 PUSH0 PUSH32 0xDDF252AD1BE2C89B69C2B068FC378DAA952BA7F163C4A11628F55A4DF523B3EF PUSH0 DUP1 LOG4 PUSH1 0x1 DUP2 ADD SWAP1 POP PUSH2 0x13A2 JUMP JUMPDEST POP PUSH0 DUP3 SUB PUSH2 0x1415 JUMPI PUSH1 0x40 MLOAD PUSH32 0x2E07630000000000000000000000000000000000000000000000000000000000 DUP2 MSTORE PUSH1 0x4 ADD PUSH1 0x40 MLOAD DUP1 SWAP2 SUB SWAP1 REVERT JUMPDEST DUP1 PUSH0 DUP2 SWAP1 SSTORE POP POP POP PUSH2 0x1429 PUSH0 DUP5 DUP4 DUP6 PUSH2 0x127F JUMP JUMPDEST POP POP POP JUMP JUMPDEST PUSH2 0x14CA DUP5 DUP5 DUP5 DUP5 PUSH1 0x40 MLOAD PUSH1 0x24 ADD PUSH2 0x1448 SWAP5 SWAP4 SWAP3 SWAP2 SWAP1 PUSH2 0x21A6 JUMP JUMPDEST PUSH1 0x40 MLOAD PUSH1 0x20 DUP2 DUP4 SUB SUB DUP2 MSTORE SWAP1 PUSH1 0x40 MSTORE PUSH32 0x7C4632A400000000000000000000000000000000000000000000000000000000 PUSH28 0xFFFFFFFFFFFFFFFFFFFFFFFFFFFFFFFFFFFFFFFFFFFFFFFFFFFFFFFF NOT AND PUSH1 0x20 DUP3 ADD DUP1 MLOAD PUSH28 0xFFFFFFFFFFFFFFFFFFFFFFFFFFFFFFFFFFFFFFFFFFFFFFFFFFFFFFFF DUP4 DUP2 DUP4 AND OR DUP4 MSTORE POP POP POP POP PUSH2 0x17E1 JUMP JUMPDEST POP POP POP POP JUMP JUMPDEST PUSH2 0x14D8 PUSH2 0x1800 JUMP JUMPDEST PUSH20 0xFFFFFFFFFFFFFFFFFFFFFFFFFFFFFFFFFFFFFFFF AND PUSH2 0x14F6 PUSH2 0xC5B JUMP JUMPDEST PUSH20 0xFFFFFFFFFFFFFFFFFFFFFFFFFFFFFFFFFFFFFFFF AND EQ PUSH2 0x1555 JUMPI PUSH2 0x1519 PUSH2 0x1800 JUMP JUMPDEST PUSH1 0x40 MLOAD PUSH32 0x118CDAA700000000000000000000000000000000000000000000000000000000 DUP2 MSTORE PUSH1 0x4 ADD PUSH2 0x154C SWAP2 SWAP1 PUSH2 0x1A12 JUMP JUMPDEST PUSH1 0x40 MLOAD DUP1 SWAP2 SUB SWAP1 REVERT JUMPDEST JUMP JUMPDEST PUSH0 PUSH1 0x8 PUSH0 SWAP1 SLOAD SWAP1 PUSH2 0x100 EXP SWAP1 DIV PUSH20 0xFFFFFFFFFFFFFFFFFFFFFFFFFFFFFFFFFFFFFFFF AND SWAP1 POP DUP2 PUSH1 0x8 PUSH0 PUSH2 0x100 EXP DUP2 SLOAD DUP2 PUSH20 0xFFFFFFFFFFFFFFFFFFFFFFFFFFFFFFFFFFFFFFFF MUL NOT AND SWAP1 DUP4 PUSH20 0xFFFFFFFFFFFFFFFFFFFFFFFFFFFFFFFFFFFFFFFF AND MUL OR SWAP1 SSTORE POP DUP2 PUSH20 0xFFFFFFFFFFFFFFFFFFFFFFFFFFFFFFFFFFFFFFFF AND DUP2 PUSH20 0xFFFFFFFFFFFFFFFFFFFFFFFFFFFFFFFFFFFFFFFF AND PUSH32 0x8BE0079C531659141344CD1FD0A4F28419497F9722A3DAAFE3B4186F6B6457E0 PUSH1 0x40 MLOAD PUSH1 0x40 MLOAD DUP1 SWAP2 SUB SWAP1 LOG3 POP POP JUMP JUMPDEST PUSH0 DUP4 PUSH20 0xFFFFFFFFFFFFFFFFFFFFFFFFFFFFFFFFFFFFFFFF AND PUSH4 0x150B7A02 PUSH2 0x163F PUSH2 0x10F4 JUMP JUMPDEST DUP8 DUP7 DUP7 PUSH1 0x40 MLOAD DUP6 PUSH4 0xFFFFFFFF AND PUSH1 0xE0 SHL DUP2 MSTORE PUSH1 0x4 ADD PUSH2 0x1661 SWAP5 SWAP4 SWAP3 SWAP2 SWAP1 PUSH2 0x2249 JUMP JUMPDEST PUSH1 0x20 PUSH1 0x40 MLOAD DUP1 DUP4 SUB DUP2 PUSH0 DUP8 GAS CALL SWAP3 POP POP POP DUP1 ISZERO PUSH2 0x169C JUMPI POP PUSH1 0x40 MLOAD RETURNDATASIZE PUSH1 0x1F NOT PUSH1 0x1F DUP3 ADD AND DUP3 ADD DUP1 PUSH1 0x40 MSTORE POP DUP2 ADD SWAP1 PUSH2 0x1699 SWAP2 SWAP1 PUSH2 0x22A7 JUMP JUMPDEST PUSH1 0x1 JUMPDEST PUSH2 0x1712 JUMPI RETURNDATASIZE DUP1 PUSH0 DUP2 EQ PUSH2 0x16CA JUMPI PUSH1 0x40 MLOAD SWAP2 POP PUSH1 0x1F NOT PUSH1 0x3F RETURNDATASIZE ADD AND DUP3 ADD PUSH1 0x40 MSTORE RETURNDATASIZE DUP3 MSTORE RETURNDATASIZE PUSH0 PUSH1 0x20 DUP5 ADD RETURNDATACOPY PUSH2 0x16CF JUMP JUMPDEST PUSH1 0x60 SWAP2 POP JUMPDEST POP PUSH0 DUP2 MLOAD SUB PUSH2 0x170A JUMPI PUSH1 0x40 MLOAD PUSH32 0xD1A57ED600000000000000000000000000000000000000000000000000000000 DUP2 MSTORE PUSH1 0x4 ADD PUSH1 0x40 MLOAD DUP1 SWAP2 SUB SWAP1 REVERT JUMPDEST DUP1 MLOAD DUP2 PUSH1 0x20 ADD REVERT JUMPDEST PUSH4 0x150B7A02 PUSH1 0xE0 SHL PUSH28 0xFFFFFFFFFFFFFFFFFFFFFFFFFFFFFFFFFFFFFFFFFFFFFFFFFFFFFFFF NOT AND DUP2 PUSH28 0xFFFFFFFFFFFFFFFFFFFFFFFFFFFFFFFFFFFFFFFFFFFFFFFFFFFFFFFF NOT AND EQ SWAP2 POP POP SWAP5 SWAP4 POP POP POP POP JUMP JUMPDEST PUSH1 0x60 PUSH1 0x40 MLOAD DUP1 PUSH1 0x20 ADD PUSH1 0x40 MSTORE DUP1 PUSH0 DUP2 MSTORE POP SWAP1 POP SWAP1 JUMP JUMPDEST PUSH1 0x60 PUSH1 0xA0 PUSH1 0x40 MLOAD ADD DUP1 PUSH1 0x40 MSTORE PUSH1 0x20 DUP2 SUB SWAP2 POP PUSH0 DUP3 MSTORE DUP2 DUP4 JUMPDEST PUSH1 0x1 ISZERO PUSH2 0x17B5 JUMPI PUSH1 0x1 DUP5 SUB SWAP4 POP PUSH1 0xA DUP2 MOD PUSH1 0x30 ADD DUP5 MSTORE8 PUSH1 0xA DUP2 DIV SWAP1 POP DUP1 PUSH2 0x1793 JUMPI JUMPDEST POP DUP3 DUP2 SUB PUSH1 0x20 DUP5 SUB SWAP4 POP DUP1 DUP5 MSTORE POP POP POP SWAP2 SWAP1 POP JUMP JUMPDEST PUSH0 SWAP4 SWAP3 POP POP POP JUMP JUMPDEST PUSH0 PUSH1 0x1 DUP3 EQ PUSH1 0xE1 SHL SWAP1 POP SWAP2 SWAP1 POP JUMP JUMPDEST PUSH0 PUSH11 0x636F6E736F6C652E6C6F67 SWAP1 POP PUSH0 DUP1 DUP4 MLOAD PUSH1 0x20 DUP6 ADD DUP5 GAS STATICCALL POP POP POP JUMP JUMPDEST PUSH0 CALLER SWAP1 POP SWAP1 JUMP JUMPDEST PUSH0 PUSH1 0x40 MLOAD SWAP1 POP SWAP1 JUMP JUMPDEST PUSH0 DUP1 REVERT JUMPDEST PUSH0 DUP1 REVERT JUMPDEST PUSH0 PUSH32 0xFFFFFFFF00000000000000000000000000000000000000000000000000000000 DUP3 AND SWAP1 POP SWAP2 SWAP1 POP JUMP JUMPDEST PUSH2 0x184C DUP2 PUSH2 0x1818 JUMP JUMPDEST DUP2 EQ PUSH2 0x1856 JUMPI PUSH0 DUP1 REVERT JUMPDEST POP JUMP JUMPDEST PUSH0 DUP2 CALLDATALOAD SWAP1 POP PUSH2 0x1867 DUP2 PUSH2 0x1843 JUMP JUMPDEST SWAP3 SWAP2 POP POP JUMP JUMPDEST PUSH0 PUSH1 0x20 DUP3 DUP5 SUB SLT ISZERO PUSH2 0x1882 JUMPI PUSH2 0x1881 PUSH2 0x1810 JUMP JUMPDEST JUMPDEST PUSH0 PUSH2 0x188F DUP5 DUP3 DUP6 ADD PUSH2 0x1859 JUMP JUMPDEST SWAP2 POP POP SWAP3 SWAP2 POP POP JUMP JUMPDEST PUSH0 DUP2 ISZERO ISZERO SWAP1 POP SWAP2 SWAP1 POP JUMP JUMPDEST PUSH2 0x18AC DUP2 PUSH2 0x1898 JUMP JUMPDEST DUP3 MSTORE POP POP JUMP JUMPDEST PUSH0 PUSH1 0x20 DUP3 ADD SWAP1 POP PUSH2 0x18C5 PUSH0 DUP4 ADD DUP5 PUSH2 0x18A3 JUMP JUMPDEST SWAP3 SWAP2 POP POP JUMP JUMPDEST PUSH0 DUP2 MLOAD SWAP1 POP SWAP2 SWAP1 POP JUMP JUMPDEST PUSH0 DUP3 DUP3 MSTORE PUSH1 0x20 DUP3 ADD SWAP1 POP SWAP3 SWAP2 POP POP JUMP JUMPDEST PUSH0 JUMPDEST DUP4 DUP2 LT ISZERO PUSH2 0x1902 JUMPI DUP1 DUP3 ADD MLOAD DUP2 DUP5 ADD MSTORE PUSH1 0x20 DUP2 ADD SWAP1 POP PUSH2 0x18E7 JUMP JUMPDEST PUSH0 DUP5 DUP5 ADD MSTORE POP POP POP POP JUMP JUMPDEST PUSH0 PUSH1 0x1F NOT PUSH1 0x1F DUP4 ADD AND SWAP1 POP SWAP2 SWAP1 POP JUMP JUMPDEST PUSH0 PUSH2 0x1927 DUP3 PUSH2 0x18CB JUMP JUMPDEST PUSH2 0x1931 DUP2 DUP6 PUSH2 0x18D5 JUMP JUMPDEST SWAP4 POP PUSH2 0x1941 DUP2 DUP6 PUSH1 0x20 DUP7 ADD PUSH2 0x18E5 JUMP JUMPDEST PUSH2 0x194A DUP2 PUSH2 0x190D JUMP JUMPDEST DUP5 ADD SWAP2 POP POP SWAP3 SWAP2 POP POP JUMP JUMPDEST PUSH0 PUSH1 0x20 DUP3 ADD SWAP1 POP DUP2 DUP2 SUB PUSH0 DUP4 ADD MSTORE PUSH2 0x196D DUP2 DUP5 PUSH2 0x191D JUMP JUMPDEST SWAP1 POP SWAP3 SWAP2 POP POP JUMP JUMPDEST PUSH0 DUP2 SWAP1 POP SWAP2 SWAP1 POP JUMP JUMPDEST PUSH2 0x1987 DUP2 PUSH2 0x1975 JUMP JUMPDEST DUP2 EQ PUSH2 0x1991 JUMPI PUSH0 DUP1 REVERT JUMPDEST POP JUMP JUMPDEST PUSH0 DUP2 CALLDATALOAD SWAP1 POP PUSH2 0x19A2 DUP2 PUSH2 0x197E JUMP JUMPDEST SWAP3 SWAP2 POP POP JUMP JUMPDEST PUSH0 PUSH1 0x20 DUP3 DUP5 SUB SLT ISZERO PUSH2 0x19BD JUMPI PUSH2 0x19BC PUSH2 0x1810 JUMP JUMPDEST JUMPDEST PUSH0 PUSH2 0x19CA DUP5 DUP3 DUP6 ADD PUSH2 0x1994 JUMP JUMPDEST SWAP2 POP POP SWAP3 SWAP2 POP POP JUMP JUMPDEST PUSH0 PUSH20 0xFFFFFFFFFFFFFFFFFFFFFFFFFFFFFFFFFFFFFFFF DUP3 AND SWAP1 POP SWAP2 SWAP1 POP JUMP JUMPDEST PUSH0 PUSH2 0x19FC DUP3 PUSH2 0x19D3 JUMP JUMPDEST SWAP1 POP SWAP2 SWAP1 POP JUMP JUMPDEST PUSH2 0x1A0C DUP2 PUSH2 0x19F2 JUMP JUMPDEST DUP3 MSTORE POP POP JUMP JUMPDEST PUSH0 PUSH1 0x20 DUP3 ADD SWAP1 POP PUSH2 0x1A25 PUSH0 DUP4 ADD DUP5 PUSH2 0x1A03 JUMP JUMPDEST SWAP3 SWAP2 POP POP JUMP JUMPDEST PUSH2 0x1A34 DUP2 PUSH2 0x19F2 JUMP JUMPDEST DUP2 EQ PUSH2 0x1A3E JUMPI PUSH0 DUP1 REVERT JUMPDEST POP JUMP JUMPDEST PUSH0 DUP2 CALLDATALOAD SWAP1 POP PUSH2 0x1A4F DUP2 PUSH2 0x1A2B JUMP JUMPDEST SWAP3 SWAP2 POP POP JUMP JUMPDEST PUSH0 DUP1 PUSH1 0x40 DUP4 DUP6 SUB SLT ISZERO PUSH2 0x1A6B JUMPI PUSH2 0x1A6A PUSH2 0x1810 JUMP JUMPDEST JUMPDEST PUSH0 PUSH2 0x1A78 DUP6 DUP3 DUP7 ADD PUSH2 0x1A41 JUMP JUMPDEST SWAP3 POP POP PUSH1 0x20 PUSH2 0x1A89 DUP6 DUP3 DUP7 ADD PUSH2 0x1994 JUMP JUMPDEST SWAP2 POP POP SWAP3 POP SWAP3 SWAP1 POP JUMP JUMPDEST PUSH2 0x1A9C DUP2 PUSH2 0x1975 JUMP JUMPDEST DUP3 MSTORE POP POP JUMP JUMPDEST PUSH0 PUSH1 0x20 DUP3 ADD SWAP1 POP PUSH2 0x1AB5 PUSH0 DUP4 ADD DUP5 PUSH2 0x1A93 JUMP JUMPDEST SWAP3 SWAP2 POP POP JUMP JUMPDEST PUSH0 DUP1 PUSH0 PUSH1 0x60 DUP5 DUP7 SUB SLT ISZERO PUSH2 0x1AD2 JUMPI PUSH2 0x1AD1 PUSH2 0x1810 JUMP JUMPDEST JUMPDEST PUSH0 PUSH2 0x1ADF DUP7 DUP3 DUP8 ADD PUSH2 0x1A41 JUMP JUMPDEST SWAP4 POP POP PUSH1 0x20 PUSH2 0x1AF0 DUP7 DUP3 DUP8 ADD PUSH2 0x1A41 JUMP JUMPDEST SWAP3 POP POP PUSH1 0x40 PUSH2 0x1B01 DUP7 DUP3 DUP8 ADD PUSH2 0x1994 JUMP JUMPDEST SWAP2 POP POP SWAP3 POP SWAP3 POP SWAP3 JUMP JUMPDEST PUSH0 DUP1 REVERT JUMPDEST PUSH0 DUP1 REVERT JUMPDEST PUSH32 0x4E487B7100000000000000000000000000000000000000000000000000000000 PUSH0 MSTORE PUSH1 0x41 PUSH1 0x4 MSTORE PUSH1 0x24 PUSH0 REVERT JUMPDEST PUSH2 0x1B49 DUP3 PUSH2 0x190D JUMP JUMPDEST DUP2 ADD DUP2 DUP2 LT PUSH8 0xFFFFFFFFFFFFFFFF DUP3 GT OR ISZERO PUSH2 0x1B68 JUMPI PUSH2 0x1B67 PUSH2 0x1B13 JUMP JUMPDEST JUMPDEST DUP1 PUSH1 0x40 MSTORE POP POP POP JUMP JUMPDEST PUSH0 PUSH2 0x1B7A PUSH2 0x1807 JUMP JUMPDEST SWAP1 POP PUSH2 0x1B86 DUP3 DUP3 PUSH2 0x1B40 JUMP JUMPDEST SWAP2 SWAP1 POP JUMP JUMPDEST PUSH0 PUSH8 0xFFFFFFFFFFFFFFFF DUP3 GT ISZERO PUSH2 0x1BA5 JUMPI PUSH2 0x1BA4 PUSH2 0x1B13 JUMP JUMPDEST JUMPDEST PUSH2 0x1BAE DUP3 PUSH2 0x190D JUMP JUMPDEST SWAP1 POP PUSH1 0x20 DUP2 ADD SWAP1 POP SWAP2 SWAP1 POP JUMP JUMPDEST DUP3 DUP2 DUP4 CALLDATACOPY PUSH0 DUP4 DUP4 ADD MSTORE POP POP POP JUMP JUMPDEST PUSH0 PUSH2 0x1BDB PUSH2 0x1BD6 DUP5 PUSH2 0x1B8B JUMP JUMPDEST PUSH2 0x1B71 JUMP JUMPDEST SWAP1 POP DUP3 DUP2 MSTORE PUSH1 0x20 DUP2 ADD DUP5 DUP5 DUP5 ADD GT ISZERO PUSH2 0x1BF7 JUMPI PUSH2 0x1BF6 PUSH2 0x1B0F JUMP JUMPDEST JUMPDEST PUSH2 0x1C02 DUP5 DUP3 DUP6 PUSH2 0x1BBB JUMP JUMPDEST POP SWAP4 SWAP3 POP POP POP JUMP JUMPDEST PUSH0 DUP3 PUSH1 0x1F DUP4 ADD SLT PUSH2 0x1C1E JUMPI PUSH2 0x1C1D PUSH2 0x1B0B JUMP JUMPDEST JUMPDEST DUP2 CALLDATALOAD PUSH2 0x1C2E DUP5 DUP3 PUSH1 0x20 DUP7 ADD PUSH2 0x1BC9 JUMP JUMPDEST SWAP2 POP POP SWAP3 SWAP2 POP POP JUMP JUMPDEST PUSH0 DUP1 PUSH1 0x40 DUP4 DUP6 SUB SLT ISZERO PUSH2 0x1C4D JUMPI PUSH2 0x1C4C PUSH2 0x1810 JUMP JUMPDEST JUMPDEST PUSH0 DUP4 ADD CALLDATALOAD PUSH8 0xFFFFFFFFFFFFFFFF DUP2 GT ISZERO PUSH2 0x1C6A JUMPI PUSH2 0x1C69 PUSH2 0x1814 JUMP JUMPDEST JUMPDEST PUSH2 0x1C76 DUP6 DUP3 DUP7 ADD PUSH2 0x1C0A JUMP JUMPDEST SWAP3 POP POP PUSH1 0x20 PUSH2 0x1C87 DUP6 DUP3 DUP7 ADD PUSH2 0x1994 JUMP JUMPDEST SWAP2 POP POP SWAP3 POP SWAP3 SWAP1 POP JUMP JUMPDEST PUSH0 PUSH1 0x20 DUP3 DUP5 SUB SLT ISZERO PUSH2 0x1CA6 JUMPI PUSH2 0x1CA5 PUSH2 0x1810 JUMP JUMPDEST JUMPDEST PUSH0 PUSH2 0x1CB3 DUP5 DUP3 DUP6 ADD PUSH2 0x1A41 JUMP JUMPDEST SWAP2 POP POP SWAP3 SWAP2 POP POP JUMP JUMPDEST PUSH2 0x1CC5 DUP2 PUSH2 0x1898 JUMP JUMPDEST DUP2 EQ PUSH2 0x1CCF JUMPI PUSH0 DUP1 REVERT JUMPDEST POP JUMP JUMPDEST PUSH0 DUP2 CALLDATALOAD SWAP1 POP PUSH2 0x1CE0 DUP2 PUSH2 0x1CBC JUMP JUMPDEST SWAP3 SWAP2 POP POP JUMP JUMPDEST PUSH0 DUP1 PUSH1 0x40 DUP4 DUP6 SUB SLT ISZERO PUSH2 0x1CFC JUMPI PUSH2 0x1CFB PUSH2 0x1810 JUMP JUMPDEST JUMPDEST PUSH0 PUSH2 0x1D09 DUP6 DUP3 DUP7 ADD PUSH2 0x1A41 JUMP JUMPDEST SWAP3 POP POP PUSH1 0x20 PUSH2 0x1D1A DUP6 DUP3 DUP7 ADD PUSH2 0x1CD2 JUMP JUMPDEST SWAP2 POP POP SWAP3 POP SWAP3 SWAP1 POP JUMP JUMPDEST PUSH0 PUSH8 0xFFFFFFFFFFFFFFFF DUP3 GT ISZERO PUSH2 0x1D3E JUMPI PUSH2 0x1D3D PUSH2 0x1B13 JUMP JUMPDEST JUMPDEST PUSH2 0x1D47 DUP3 PUSH2 0x190D JUMP JUMPDEST SWAP1 POP PUSH1 0x20 DUP2 ADD SWAP1 POP SWAP2 SWAP1 POP JUMP JUMPDEST PUSH0 PUSH2 0x1D66 PUSH2 0x1D61 DUP5 PUSH2 0x1D24 JUMP JUMPDEST PUSH2 0x1B71 JUMP JUMPDEST SWAP1 POP DUP3 DUP2 MSTORE PUSH1 0x20 DUP2 ADD DUP5 DUP5 DUP5 ADD GT ISZERO PUSH2 0x1D82 JUMPI PUSH2 0x1D81 PUSH2 0x1B0F JUMP JUMPDEST JUMPDEST PUSH2 0x1D8D DUP5 DUP3 DUP6 PUSH2 0x1BBB JUMP JUMPDEST POP SWAP4 SWAP3 POP POP POP JUMP JUMPDEST PUSH0 DUP3 PUSH1 0x1F DUP4 ADD SLT PUSH2 0x1DA9 JUMPI PUSH2 0x1DA8 PUSH2 0x1B0B JUMP JUMPDEST JUMPDEST DUP2 CALLDATALOAD PUSH2 0x1DB9 DUP5 DUP3 PUSH1 0x20 DUP7 ADD PUSH2 0x1D54 JUMP JUMPDEST SWAP2 POP POP SWAP3 SWAP2 POP POP JUMP JUMPDEST PUSH0 DUP1 PUSH0 DUP1 PUSH1 0x80 DUP6 DUP8 SUB SLT ISZERO PUSH2 0x1DDA JUMPI PUSH2 0x1DD9 PUSH2 0x1810 JUMP JUMPDEST JUMPDEST PUSH0 PUSH2 0x1DE7 DUP8 DUP3 DUP9 ADD PUSH2 0x1A41 JUMP JUMPDEST SWAP5 POP POP PUSH1 0x20 PUSH2 0x1DF8 DUP8 DUP3 DUP9 ADD PUSH2 0x1A41 JUMP JUMPDEST SWAP4 POP POP PUSH1 0x40 PUSH2 0x1E09 DUP8 DUP3 DUP9 ADD PUSH2 0x1994 JUMP JUMPDEST SWAP3 POP POP PUSH1 0x60 DUP6 ADD CALLDATALOAD PUSH8 0xFFFFFFFFFFFFFFFF DUP2 GT ISZERO PUSH2 0x1E2A JUMPI PUSH2 0x1E29 PUSH2 0x1814 JUMP JUMPDEST JUMPDEST PUSH2 0x1E36 DUP8 DUP3 DUP9 ADD PUSH2 0x1D95 JUMP JUMPDEST SWAP2 POP POP SWAP3 SWAP6 SWAP2 SWAP5 POP SWAP3 POP JUMP JUMPDEST PUSH0 DUP1 PUSH1 0x40 DUP4 DUP6 SUB SLT ISZERO PUSH2 0x1E58 JUMPI PUSH2 0x1E57 PUSH2 0x1810 JUMP JUMPDEST JUMPDEST PUSH0 PUSH2 0x1E65 DUP6 DUP3 DUP7 ADD PUSH2 0x1A41 JUMP JUMPDEST SWAP3 POP POP PUSH1 0x20 PUSH2 0x1E76 DUP6 DUP3 DUP7 ADD PUSH2 0x1A41 JUMP JUMPDEST SWAP2 POP POP SWAP3 POP SWAP3 SWAP1 POP JUMP JUMPDEST PUSH32 0x4E487B7100000000000000000000000000000000000000000000000000000000 PUSH0 MSTORE PUSH1 0x22 PUSH1 0x4 MSTORE PUSH1 0x24 PUSH0 REVERT JUMPDEST PUSH0 PUSH1 0x2 DUP3 DIV SWAP1 POP PUSH1 0x1 DUP3 AND DUP1 PUSH2 0x1EC4 JUMPI PUSH1 0x7F DUP3 AND SWAP2 POP JUMPDEST PUSH1 0x20 DUP3 LT DUP2 SUB PUSH2 0x1ED7 JUMPI PUSH2 0x1ED6 PUSH2 0x1E80 JUMP JUMPDEST JUMPDEST POP SWAP2 SWAP1 POP JUMP JUMPDEST PUSH0 DUP2 SWAP1 POP DUP2 PUSH0 MSTORE PUSH1 0x20 PUSH0 KECCAK256 SWAP1 POP SWAP2 SWAP1 POP JUMP JUMPDEST PUSH0 PUSH1 0x20 PUSH1 0x1F DUP4 ADD DIV SWAP1 POP SWAP2 SWAP1 POP JUMP JUMPDEST PUSH0 DUP3 DUP3 SHL SWAP1 POP SWAP3 SWAP2 POP POP JUMP JUMPDEST PUSH0 PUSH1 0x8 DUP4 MUL PUSH2 0x1F39 PUSH32 0xFFFFFFFFFFFFFFFFFFFFFFFFFFFFFFFFFFFFFFFFFFFFFFFFFFFFFFFFFFFFFFFF DUP3 PUSH2 0x1EFE JUMP JUMPDEST PUSH2 0x1F43 DUP7 DUP4 PUSH2 0x1EFE JUMP JUMPDEST SWAP6 POP DUP1 NOT DUP5 AND SWAP4 POP DUP1 DUP7 AND DUP5 OR SWAP3 POP POP POP SWAP4 SWAP3 POP POP POP JUMP JUMPDEST PUSH0 DUP2 SWAP1 POP SWAP2 SWAP1 POP JUMP JUMPDEST PUSH0 PUSH2 0x1F7E PUSH2 0x1F79 PUSH2 0x1F74 DUP5 PUSH2 0x1975 JUMP JUMPDEST PUSH2 0x1F5B JUMP JUMPDEST PUSH2 0x1975 JUMP JUMPDEST SWAP1 POP SWAP2 SWAP1 POP JUMP JUMPDEST PUSH0 DUP2 SWAP1 POP SWAP2 SWAP1 POP JUMP JUMPDEST PUSH2 0x1F97 DUP4 PUSH2 0x1F64 JUMP JUMPDEST PUSH2 0x1FAB PUSH2 0x1FA3 DUP3 PUSH2 0x1F85 JUMP JUMPDEST DUP5 DUP5 SLOAD PUSH2 0x1F0A JUMP JUMPDEST DUP3 SSTORE POP POP POP POP JUMP JUMPDEST PUSH0 SWAP1 JUMP JUMPDEST PUSH2 0x1FBF PUSH2 0x1FB3 JUMP JUMPDEST PUSH2 0x1FCA DUP2 DUP5 DUP5 PUSH2 0x1F8E JUMP JUMPDEST POP POP POP JUMP JUMPDEST JUMPDEST DUP2 DUP2 LT ISZERO PUSH2 0x1FED JUMPI PUSH2 0x1FE2 PUSH0 DUP3 PUSH2 0x1FB7 JUMP JUMPDEST PUSH1 0x1 DUP2 ADD SWAP1 POP PUSH2 0x1FD0 JUMP JUMPDEST POP POP JUMP JUMPDEST PUSH1 0x1F DUP3 GT ISZERO PUSH2 0x2032 JUMPI PUSH2 0x2003 DUP2 PUSH2 0x1EDD JUMP JUMPDEST PUSH2 0x200C DUP5 PUSH2 0x1EEF JUMP JUMPDEST DUP2 ADD PUSH1 0x20 DUP6 LT ISZERO PUSH2 0x201B JUMPI DUP2 SWAP1 POP JUMPDEST PUSH2 0x202F PUSH2 0x2027 DUP6 PUSH2 0x1EEF JUMP JUMPDEST DUP4 ADD DUP3 PUSH2 0x1FCF JUMP JUMPDEST POP POP JUMPDEST POP POP POP JUMP JUMPDEST PUSH0 DUP3 DUP3 SHR SWAP1 POP SWAP3 SWAP2 POP POP JUMP JUMPDEST PUSH0 PUSH2 0x2052 PUSH0 NOT DUP5 PUSH1 0x8 MUL PUSH2 0x2037 JUMP JUMPDEST NOT DUP1 DUP4 AND SWAP2 POP POP SWAP3 SWAP2 POP POP JUMP JUMPDEST PUSH0 PUSH2 0x206A DUP4 DUP4 PUSH2 0x2043 JUMP JUMPDEST SWAP2 POP DUP3 PUSH1 0x2 MUL DUP3 OR SWAP1 POP SWAP3 SWAP2 POP POP JUMP JUMPDEST PUSH2 0x2083 DUP3 PUSH2 0x18CB JUMP JUMPDEST PUSH8 0xFFFFFFFFFFFFFFFF DUP2 GT ISZERO PUSH2 0x209C JUMPI PUSH2 0x209B PUSH2 0x1B13 JUMP JUMPDEST JUMPDEST PUSH2 0x20A6 DUP3 SLOAD PUSH2 0x1EAD JUMP JUMPDEST PUSH2 0x20B1 DUP3 DUP3 DUP6 PUSH2 0x1FF1 JUMP JUMPDEST PUSH0 PUSH1 0x20 SWAP1 POP PUSH1 0x1F DUP4 GT PUSH1 0x1 DUP2 EQ PUSH2 0x20E2 JUMPI PUSH0 DUP5 ISZERO PUSH2 0x20D0 JUMPI DUP3 DUP8 ADD MLOAD SWAP1 POP JUMPDEST PUSH2 0x20DA DUP6 DUP3 PUSH2 0x205F JUMP JUMPDEST DUP7 SSTORE POP PUSH2 0x2141 JUMP JUMPDEST PUSH1 0x1F NOT DUP5 AND PUSH2 0x20F0 DUP7 PUSH2 0x1EDD JUMP JUMPDEST PUSH0 JUMPDEST DUP3 DUP2 LT ISZERO PUSH2 0x2117 JUMPI DUP5 DUP10 ADD MLOAD DUP3 SSTORE PUSH1 0x1 DUP3 ADD SWAP2 POP PUSH1 0x20 DUP6 ADD SWAP5 POP PUSH1 0x20 DUP2 ADD SWAP1 POP PUSH2 0x20F2 JUMP JUMPDEST DUP7 DUP4 LT ISZERO PUSH2 0x2134 JUMPI DUP5 DUP10 ADD MLOAD PUSH2 0x2130 PUSH1 0x1F DUP10 AND DUP3 PUSH2 0x2043 JUMP JUMPDEST DUP4 SSTORE POP JUMPDEST PUSH1 0x1 PUSH1 0x2 DUP9 MUL ADD DUP9 SSTORE POP POP POP JUMPDEST POP POP POP POP POP POP JUMP JUMPDEST PUSH0 DUP2 SWAP1 POP SWAP3 SWAP2 POP POP JUMP JUMPDEST PUSH0 PUSH2 0x215D DUP3 PUSH2 0x18CB JUMP JUMPDEST PUSH2 0x2167 DUP2 DUP6 PUSH2 0x2149 JUMP JUMPDEST SWAP4 POP PUSH2 0x2177 DUP2 DUP6 PUSH1 0x20 DUP7 ADD PUSH2 0x18E5 JUMP JUMPDEST DUP1 DUP5 ADD SWAP2 POP POP SWAP3 SWAP2 POP POP JUMP JUMPDEST PUSH0 PUSH2 0x218E DUP3 DUP6 PUSH2 0x2153 JUMP JUMPDEST SWAP2 POP PUSH2 0x219A DUP3 DUP5 PUSH2 0x2153 JUMP JUMPDEST SWAP2 POP DUP2 SWAP1 POP SWAP4 SWAP3 POP POP POP JUMP JUMPDEST PUSH0 PUSH1 0x80 DUP3 ADD SWAP1 POP DUP2 DUP2 SUB PUSH0 DUP4 ADD MSTORE PUSH2 0x21BE DUP2 DUP8 PUSH2 0x191D JUMP JUMPDEST SWAP1 POP PUSH2 0x21CD PUSH1 0x20 DUP4 ADD DUP7 PUSH2 0x1A93 JUMP JUMPDEST DUP2 DUP2 SUB PUSH1 0x40 DUP4 ADD MSTORE PUSH2 0x21DF DUP2 DUP6 PUSH2 0x191D JUMP JUMPDEST SWAP1 POP PUSH2 0x21EE PUSH1 0x60 DUP4 ADD DUP5 PUSH2 0x1A03 JUMP JUMPDEST SWAP6 SWAP5 POP POP POP POP POP JUMP JUMPDEST PUSH0 DUP2 MLOAD SWAP1 POP SWAP2 SWAP1 POP JUMP JUMPDEST PUSH0 DUP3 DUP3 MSTORE PUSH1 0x20 DUP3 ADD SWAP1 POP SWAP3 SWAP2 POP POP JUMP JUMPDEST PUSH0 PUSH2 0x221B DUP3 PUSH2 0x21F7 JUMP JUMPDEST PUSH2 0x2225 DUP2 DUP6 PUSH2 0x2201 JUMP JUMPDEST SWAP4 POP PUSH2 0x2235 DUP2 DUP6 PUSH1 0x20 DUP7 ADD PUSH2 0x18E5 JUMP JUMPDEST PUSH2 0x223E DUP2 PUSH2 0x190D JUMP JUMPDEST DUP5 ADD SWAP2 POP POP SWAP3 SWAP2 POP POP JUMP JUMPDEST PUSH0 PUSH1 0x80 DUP3 ADD SWAP1 POP PUSH2 0x225C PUSH0 DUP4 ADD DUP8 PUSH2 0x1A03 JUMP JUMPDEST PUSH2 0x2269 PUSH1 0x20 DUP4 ADD DUP7 PUSH2 0x1A03 JUMP JUMPDEST PUSH2 0x2276 PUSH1 0x40 DUP4 ADD DUP6 PUSH2 0x1A93 JUMP JUMPDEST DUP2 DUP2 SUB PUSH1 0x60 DUP4 ADD MSTORE PUSH2 0x2288 DUP2 DUP5 PUSH2 0x2211 JUMP JUMPDEST SWAP1 POP SWAP6 SWAP5 POP POP POP POP POP JUMP JUMPDEST PUSH0 DUP2 MLOAD SWAP1 POP PUSH2 0x22A1 DUP2 PUSH2 0x1843 JUMP JUMPDEST SWAP3 SWAP2 POP POP JUMP JUMPDEST PUSH0 PUSH1 0x20 DUP3 DUP5 SUB SLT ISZERO PUSH2 0x22BC JUMPI PUSH2 0x22BB PUSH2 0x1810 JUMP JUMPDEST JUMPDEST PUSH0 PUSH2 0x22C9 DUP5 DUP3 DUP6 ADD PUSH2 0x2293 JUMP JUMPDEST SWAP2 POP POP SWAP3 SWAP2 POP POP JUMP INVALID LOG2 PUSH5 0x6970667358 0x22 SLT KECCAK256 LT PREVRANDAO EXP 0xA8 PUSH22 0xDDBFD3DF0FDEFF97415A40B6A162D93B4ACCDD66631C 0xC5 PUSH16 0x3D2DCE64736F6C634300081500330000 "},"methodIdentifiers":{"approve(address,uint256)":"095ea7b3","balanceOf(address)":"70a08231","getApproved(uint256)":"081812fc","isApprovedForAll(address,address)":"e985e9c5","mint(address,uint256)":"40c10f19","name()":"06fdde03","owner()":"8da5cb5b","ownerOf(uint256)":"6352211e","renounceOwnership()":"715018a6","safeTransferFrom(address,address,uint256)":"42842e0e","safeTransferFrom(address,address,uint256,bytes)":"b88d4fde","setApprovalForAll(address,bool)":"a22cb465","setURI(string,uint256)":"67db3b8f","supportsInterface(bytes4)":"01ffc9a7","symbol()":"95d89b41","tokenURI(uint256)":"c87b56dd","totalSupply()":"18160ddd","transferFrom(address,address,uint256)":"23b872dd","transferOwnership(address)":"f2fde38b","updatePrompt(string,uint256)":"be9eb325"}}}}}